:020000040000FA
:060000000A128A110C280F
:10000800FE00030EF7000A08F8000A128A111928E0
:100018000A128A110F28F001F101F201F301F4012B
:10002800F50183010A128A111F29831203138C1DFB
:100038001E281F2877281412141B23282428282850
:10004800941F272828282F281308F6007608F1007F
:1000580014139413141683160313941A342835288A
:1000680053281419382839285328831203131308DE
:10007800F6007608F1008C11141683160313141C6D
:10008800462847284128831203131308F6007608E8
:10009800F4001430F600F60B4F2800007428941A68
:1000A800562857287428141D5A285B287428831248
:1000B80003131308F6007608F100831603131410CF
:1000C800750883120313930014161430F600F60B08
:1000D8006B280000831603131418732874286E28DD
:1000E800831203138C1178088A00770E8300FE0EA2
:1000F8007E0E0900FB00BB288F30831603138F0583
:10010800DD28831603130F088F3910388F00DD2878
:10011800831603130F088F3920388F00DD288316C4
:1001280003130F088F3910388F00DD288316031347
:100138000F088F3940388F00DD28831603130F0806
:100148008F3950388F00DD28831603130F088F3935
:1001580060388F00DD287030831603138F04DD2884
:10016800831603130F088F3960388F00DD287B084A
:10017800F900FA017A08003A0319C328B428790863
:10018800003A03198028013A03198528033A03190C
:100198008C28013A03199328073A03199A28013A37
:1001A8000319A128033A0319A828013A0319AF280B
:1001B800B4280F14080083120313861FE428E528C7
:1001C800F6287308031DE928EA28F6285A30F900AA
:1001D8007908F5000A128A117E210A128A11F301A0
:1001E800F30A0029861BF928FA2800297303031D3E
:1001F800FE28FF280029F30183120313861E052910
:10020800062914297208031D0A290B291429F50146
:100218000A128A1185210A128A11F201F20A1E298C
:10022800861A172918291E297203031D1C291D293E
:100238001E29F201080004300A128A117E200A12CF
:100248008A110A128A1171210A128A1120300A129F
:100258008A1144210A128A110A128A115E210A128D
:100268008A11F5010A128A1185210A128A110A12C5
:100278008A11DF200A128A113B290A128A110C28D6
:10028800F900790883160313930036308312031399
:100298009400803083160313940001309100871571
:1002A80007168B170B17831203138C11831603136E
:1002B8008C150800831603138714C83092000C307D
:1002C800831203139D008C101208FC390238920027
:1002D8001215831603138710080083160317880165
:1002E8008901831603138617861683120313860162
:1002F80087010800831203139D121D1219309B00F9
:100308000800831203139D161D1603309B00080076
:04400E00D4E0FFFFFC
:00000001FF
