:020000040000FA
:060000000A128A110C280F
:10000800FE00030EF1000A08F2000A128A111828ED
:100018000A128A110F28F801F901FA01FB01FC0103
:1000280083010A128A110129831203138C1D1D28CA
:100038001E2899281412141B222823282728941FC5
:10004800262827282E281308F0007008FA00141311
:100058009413141683160313941A3328342851283A
:100068001419372838285128831203131308F0006D
:100078007008FA008C11141683160313141C4528F3
:1000880046284028831203131308F0007008F8006C
:100098004D284E284F2800009628941A5428552891
:1000A8009628141D58285928962805307806031DC7
:1000B8005E285F287828831203131308F00070085D
:1000C800FA008316031314107C0883120313930099
:1000D80014166E286F28702800008316031314184E
:1000E800762877287128962806307806031D7D28FB
:1000F8007E289628831203131308F0007008FA006C
:100108008316031314107B08831203139300141629
:100118008D288E288F28000083160313141895281D
:1001280096289028831203138C1172088A00710E86
:100138008300FE0E7E0E0900F500DD288F30831641
:1001480003138F05FF28831603130F088F39103800
:100158008F00FF28831603130F088F3920388F006C
:10016800FF28831603130F088F3910388F00FF28D4
:10017800831603130F088F3940388F00FF28831622
:1001880003130F088F3950388F00FF288316031385
:100198000F088F3960388F00FF28703083160313DB
:1001A8008F04FF28831603130F088F3960388F00D8
:1001B800FF287508F300F4017408003A0319E528CC
:1001C800D6287308003A0319A228013A0319A72868
:1001D800033A0319AE28013A0319B528073A031957
:1001E800BC28013A0319C328033A0319CA28013A5B
:1001F8000319D128D6280F14080006300A128A11CC
:10020800A0200A128A110A128A116C210A128A1174
:100218000A128A1159210A128A1140300A128A11C7
:100228003F210A128A110A128A1184210A128A119C
:100238002930F7009430F600F60B2029F70B202917
:1002480000007808031D29292A2930290A128A1151
:100258007D210A128A1125295A307806031D35296D
:10026800362925290A128A1184210A128A11252978
:100278000A128A110C28F3007308831603139300DB
:1002880036308312031394008030831603139400CE
:1002980001309100871507168B170B17831203136C
:1002A8008C11831603138C15080083160313871407
:1002B8009A3092000C30831203139D008C101208A0
:1002C800FC390138920012158316031387100800B1
:1002D8008316031788018901831603130610061570
:1002E8008B170B170C170C14103083120313900084
:1002F8000800831203139D161D160B309B0008007F
:0E030800831203139D121D1605309B00080082
:04400E00D4E0FFFFFC
:00000001FF
