:020000040000FA
:060000000A128A110C280F
:10000800FE00030EF7000A08F8000A128A111928E0
:100018000A128A110F28F001F101F201F301F4012B
:10002800F50183010A128A110229831203138C1D18
:100038001E281F289A281412141B2328242828282D
:10004800941F272828282F281308F6007608F3007D
:1000580014139413141683160313941A342835288A
:1000680052281419382839285228831203131308E0
:10007800F6007608F3008C11141683160313141C6B
:10008800462847284128831203131308F6007608E8
:10009800F0004E284F28502800009728941A552819
:1000A80056289728141D59285A289728053071066C
:1000B800031D5F2860287928831203131308F600AC
:1000C8007608F300831603131410750883120313BC
:1000D800930014166F2870287128000083160313E4
:1000E8001418772878287228972806307106031D77
:1000F8007E287F289728831203131308F6007608B2
:10010800F300831603131410740883120313930067
:1001180014168E288F2890280000831603131418AD
:10012800962897289128831203138C1178088A003F
:10013800770E8300FE0E7E0E0900FB00DE288F304E
:10014800831603138F050029831603130F088F39AD
:1001580010388F000029831603130F088F392038B1
:100168008F000029831603130F088F3910388F006A
:100178000029831603130F088F3940388F00002990
:10018800831603130F088F3950388F000029831600
:1001980003130F088F3960388F00002970308316D9
:1001A80003138F040029831603130F088F3960384F
:1001B8008F0000297B08F900FA017A08003A031930
:1001C800E628D7287908003A0319A328013A031921
:1001D800A828033A0319AF28013A0319B628073AA1
:1001E8000319BD28013A0319C428033A0319CB2877
:1001F800013A0319D228D7280F14080006300A122A
:100208008A11A1200A128A110A128A117C210A1263
:100218008A110A128A1169210A128A1140300A12B7
:100228008A1137210A128A110A128A1194210A1294
:100238008A110A128A1151210A128A117008031DA3
:10024800262927292D290A128A118D210A128A1195
:100258001D295A307006031D322933291D291829F2
:100268000A128A110C28F9007908831603139300DF
:1002780036308312031394008030831603139400DE
:1002880001309100871507168B170B17831203137C
:100298008C11831603138C150800831203138E0127
:1002A8008F010614831203130610061D5C295D29AD
:1002B800592910140619612962295E2910100E089F
:1002C800F9007908F500F401080083160313871470
:1002D8009A3092000C30831203139D008C10120880
:1002E800FC39013892001215831603138710080091
:1002F8008316031788018901831603130610061550
:100308008B170B170C170C14103083120313900063
:100318000800831203139D161D160B309B0008005E
:0E032800831203139D121D1605309B00080062
:04400E00D4E0FFFFFC
:00000001FF
