:020000040000FA
:060000000A128A110C280F
:10000800FE00030EF1000A08F2000A128A112B2ED4
:100018000A128A110F28F801F901FA018312031351
:10002800E301E401E501E601E70183010A128A110F
:10003800EF2E8312031347088039CC004C08D400F4
:100048004708CC004C07CD004D08D600C61F2D2808
:100058002E282F28561456080319332834284428E4
:10006800560A031D3828392841280030C7000030B7
:10007800C6000030C5000030C400C617C7014C28B0
:100088000030C7000030C6000030C5000030C40092
:100098004B088039CC004C08D50055085406031984
:1000A80056285728582854174B08CC004C07CD0021
:1000B8004D08D500CA1F61286228632855145508C1
:1000C8000319672868287828550A031D6C286D28A5
:1000D80075280030CB000030CA000030C90000305D
:1000E800C800CA17CB0180280030CB000030CA00F6
:1000F8000030C9000030C80056085502031885288A
:100108008628CA28541F89288A288E288030CC003F
:100118004C08D4065608CC004C08D7005508CC002B
:100128004C08D6005708CC004C08D5004408CC0031
:100138004C08D7004808CC004C08C4005708CC002D
:100148004C08C8004508CC004C08D7004908CC002A
:100158004C08C5005708CC004C08C9004608CC001C
:100168004C08D7004A08CC004C08C6005708CC00F9
:100178004C08CA004708CC004C08D7004B08CC00F4
:100188004C08C7005708CC004C08CB00D7015508CD
:10019800CC00CD014D08CF0056084C02CE00031C00
:1001A800CF034F08803AFF0080307F02031DDE280E
:1001B8001A304E02031CE128E2281F298312031378
:1001C8004708460445044404031DEB28ED28013084
:1001D800EE280030CC004C08D7000030C7000030B3
:1001E800C6000030C5000030C4005508CC004C08DB
:1001F800D6002729571C012902290B295708CC00AA
:1002080003104C0C0138CD004D08D7000D29031000
:10021800D70C441C102911291229D7170130CC00FA
:10022800470DC70CC60CC50CC40CCC0B14290130E7
:10023800CC004C08D6078312031355085602031C3A
:1002480026292729FE28541B2A292B2976295608CE
:10025800031D2F29302939290030C7000030C60076
:100268000030C5000030C400A42A4808C407490863
:1002780003110318013E03194229C5074A0803114F
:100288000318013E03194929C6074B08031103182F
:10029800013E03195029C707471C532954292A2A04
:1002A800571C5729582961295708CC0003104C0CB2
:1002B8000138CD004D08D70063290310D70C441C22
:1002C800662967296829D7170130CC00470DC70C64
:1002D800C60CC50CC40CCC0B6A290130CC004C08E8
:1002E800D6072A2A4708803AFF004B08803A7F023F
:1002F800031D88294A084602031D88294908450222
:10030800031D88294808440203188B298C29E429ED
:10031800FF30CC00FF30CD00FF30CE00FF30CF00E3
:100328004808D0004908D1004A08D2004B08D30039
:100338004408D0024508031C450FA329A429D1026B
:100348004608031C460FA929AA29D2024708031CFC
:10035800470FAF29B029D3025008CC07510803181A
:10036800510FB729B829CD0752080318520FBD29D4
:10037800BE29CE0753080318530ACF074F08C700F2
:100388004E08C6004D08C5004C08C4008030CC009B
:100398004C08D406D709D70A5708031DD429D529EC
:1003A800F2290130C407003003180130C5070030B6
:1003B80003180130C607003003180130C707F229B7
:1003C8004808C4024908031C490FC5024A08031C0F
:1003D8004A0FC6024B08031C4B0FC70247084604C6
:1003E80045044404031DF929FA29262A5708031D40
:1003F800FE29FF29262A0030C7000030C600003039
:10040800C5000030C400A42A0130CC000310C40D7C
:10041800C50DC60DC70DCC0B0A2AD71F142A152ADD
:10042800162A4414571C192A1A2A1D2A0314D70DF0
:100438001F2A0310D70D56080319232A242A262A0F
:100448000130D602C61F292A2A2A082AD501D71F11
:100458002E2A2F2A3D2A57087F390319342A352A8C
:10046800382AD501D50A3D2A441C3B2A3C2A3D2A74
:10047800352A55080319412A422A762A0130C40729
:10048800003003180130C507003003180130C607D3
:10049800003003180130C707471C532A542A762A0C
:1004A8004408CC004508CD004608CE004708CF00D8
:1004B8000130D0004F0DCF0CCE0CCD0CCC0CD00B96
:1004C8005E2A4F08C7004E08C6004D08C5004C08F4
:1004D800C400560A0319712A722A762A0130CC0000
:1004E8004C08D607560A03197A2A7B2A802A560806
:1004F800031D7F2A802A8E2A0030C7000030C600DC
:100508000030C5000030C4005608031D8C2A8D2A0F
:100518008E2AD401561C912A922A942AC617982A00
:100528007F30CC004C08C6055608CC0003104C0C94
:10053800CD004D08C700D41FA22AA32AA42AC71792
:1005480008008312031331088039B2003208BB0057
:100558003108B2003207B3003308C200B01FB52A11
:10056800B62AB72A421442080319BB2ABC2ACC2A45
:10057800420A031DC02AC12AC92A0030B10000302E
:10058800B0000030AF000030AE00B017B101D42A7F
:100598000030B1000030B0000030AF000030AE00D5
:1005A8002D088039B2003208BB062D08B200320788
:1005B800B3003308C300AC1FE22AE32AE42A431439
:1005C80043080319E82AE92AF92A430A031DED2AF0
:1005D800EE2AF62A0030AD000030AC000030AB0047
:1005E8000030AA00AC17AD01012B0030AD0000307F
:1005F800AC000030AB000030AA002D082C042B04FE
:100608002A04031D082B092B222B0030B1000030CF
:10061800B0000030AF000030AE008030B0047F3052
:10062800B1043B08B2003208B1043108AD0030080B
:10063800AC002F08AB002E08AA00812C4208031D2D
:10064800262B272B302B0030AD000030AC000030BB
:10065800AB000030AA00812C4208B200B301330875
:10066800B50043083202B400031CB50334087F3ECA
:10067800BC0035080318013E003EBD003108BA0031
:100688003008B9002F08B8002E08B7000030B100B4
:100698000030B0000030AF000030AE000030C100C4
:1006A8000030C0000030BF000030BE00C301A62BE0
:1006B80043080319602B612B812B0130B200031012
:1006C800B70DB80DB90DBA0DB20B632B0130B200DE
:1006D8000310AE0DAF0DB00DB10DB20B6C2BC11FD9
:1006E800762B772B782B2E140130B2000310BE0D19
:1006F800BF0DC00DC10DB20B7A2B2D083A02031D98
:100708008F2B2C083902031D8F2B2B083802031D51
:100718008F2B2A083702031C922B932BA22B4117ED
:100728002A08B7022B08031C2B0FB8022C08031C3D
:100738002C0FB9022D08031C2D0FBA020130B2008C
:100748003208C3071A304302031CAB2BAC2B5C2BBB
:100758003A083904380437040319B32BB42BD32BC4
:100768003E14D32B0130B2000310AE0DAF0DB00D07
:10077800B10DB20BB82BC11FC22BC32BC42B2E1427
:100788000130B2000310BE0DBF0DC00DC10DB20B7C
:10079800C62BFF30BC070318BD0AFF30BD07B01FCA
:1007A800D62BD72BB62BC301C11FDB2BDC2BF82B89
:1007B800FF303E05B200FF303F05B300FF30400573
:1007C800B4007F304105B5003508340433043204E1
:1007D8000319EF2BF02BF32BC301C30AF82B2E1CA4
:1007E800F62BF72BF82BF02B43080319FC2BFD2BCA
:1007F8002E2C0130AE07003003180130AF0700304F
:1008080003180130B007003003180130B107311C5C
:100818000E2C0F2C2E2C2E08B2002F08B3003008F7
:10082800B4003108B5000130B600350DB50CB40C74
:10083800B30CB20CB60B192C3508B1003408B00053
:100848003308AF003208AE000130BC070318BD0AF8
:100858000030BD073D08803AFF0080307F02031D4D
:10086800372CFF303C02031C3A2C3B2C492CFF3020
:1008780083120313BC000030BD000030B10000300B
:10088800B0000030AF000030AE00831203133D0803
:10089800803AFF0080307F02031D542C01303C0257
:1008A8000318572C582C652C83120313BC01BD0167
:1008B8000030B1000030B0000030AF000030AE00B2
:1008C800BB01831203133C08B2003208C200421C69
:1008D8006E2C6F2C712CB017752C7F30B20032083B
:1008E800B0054208B2000310320CB3003308B1005F
:1008F8003B08B2003208B104192B08008312031315
:10090800A40024080319892C8A2C9E2CF61F8D2CF0
:100918008E2C9E2C7309A6007409A7007509A800DF
:100928007609A900A60A0319A70A0319A80A031930
:10093800A90AA62C7608A9007508A8007408A700BB
:100948007308A6007608750474047304031DAD2C9F
:10095800AE2CB72C0030F6000030F5000030F40063
:100968000030F3003D2D9630A0002008A500C92CCA
:100978000130A0002008A50701300310A90CA80C1D
:10098800A70CA60CFF3E031DC12CFE302905031D34
:10099800CE2CCF2CBC2CEB2C0130A0002008A507B6
:1009A8000130A607003003180130A70700300318EC
:1009B8000130A807003003180130A90701300310DF
:1009C800A90CA80CA70CA60CFF3E031DE32CFF30B6
:1009D8002905031DF02CF12CD02CFD2C0130A5028B
:1009E8000130A0000310A60DA70DA80DA90DA00B9E
:1009F800F62CA81B002D012D072D02302502031807
:100A0800062D072DF22C25180A2D0B2D132DFF303E
:100A1800A605FF30A7057F30A805FF30A9050310FC
:100A2800A50C2508A000A101A201A30118300310FC
:100A3800A00DA10DA20DA30DFF3E031D1B2D200827
:100A4800A6042108A7042208A8042308A904240846
:100A580003192F2D302D352DF61F332D342D352D1F
:100A6800A9172908F6002808F5002708F400260821
:100A7800F30008000310831203135A0D5B0DDC000A
:100A88005C08E2006208031D4A2D4B2D542D0030EE
:100A9800DB000030DA000030D9000030D800B92D72
:100AA8005808DC005908DD005A08DE005B08DF0042
:100AB8001F300310DF0CDE0CDD0CDC0CFF3E031DC9
:100AC8005D2D5C08E0006008E100DA17FF30D8050A
:100AD800FF30D905FF30DA050030DB059630E20239
:100AE800E21F772D782D922D6208803A973E0318E1
:100AF8007E2D7F2D802D4B2D01300310DB0CDA0C61
:100B0800D90CD80CFF3E031D812D0130DC005C0898
:100B1800E207031D902D912D802DA92D2030620212
:100B2800031C972D982DA42D4B2D0130DC000310AC
:100B3800D80DD90DDA0DDB0DDC0B9B2D0130E2024F
:100B48006208031DA82DA92D992D61080319AD2D43
:100B5800AE2DB92DD809D909DA09DB09D80A031944
:100B6800D90A0319DA0A0319DB0A080083120313E6
:100B78008E018F0108160330F700F70BC12D831281
:100B880003130812081FC92DCA2DC62D1014081BDF
:100B9800CE2DCF2DCB2D10100F08E4000E08E3004A
:100BA8006308F3006408F4000030F41BFF30F5001C
:100BB800F60001300A128A1182240A128A11760874
:100BC80083120313B1007508B0007408AF007308EE
:100BD800AE004230AD006B30AC004730AB00AE30F9
:100BE800AA000A128A11A5220A128A118312031373
:100BF8002D08CB002C08CA002B08C9002A08C800F9
:100C08003F30C7008030C6000030C5000030C40047
:100C18000A128A111D200A128A1183120313470827
:100C2800DB004608DA004508D9004408D8000A1253
:100C38008A113E250A128A11831203135908E70004
:100C48005808E6006608F7007708FA0008008312DB
:100C580003138C1D302E312E872E1412141B352EA3
:100C6800362E3A2E941F392E3A2E412E1308F000B4
:100C78007008F90014139413141683160313941AA6
:100C8800462E472E642E14194A2E4B2E642E83129C
:100C980003131308F0007008F9008C11141683165A
:100CA8000313141C582E592E532E831203131308A2
:100CB800F0007008E5005330F000F00B612E842E30
:100CC800941A672E682E842E141D6B2E6C2E842E7B
:100CD800831203131308F0007008F9008316031336
:100CE80014107A0883120313930014165330F0007B
:100CF800F00B7C2E831603131418832E842E7E2E5D
:100D0800831203138C1172088A00710E8300FE0E81
:100D18007E0E0900F500CB2E8F30831603138F0546
:100D2800ED2E831603130F088F3910388F00ED2E20
:100D3800831603130F088F3920388F00ED2E831682
:100D480003130F088F3910388F00ED2E8316031305
:100D58000F088F3940388F00ED2E831603130F08C4
:100D68008F3950388F00ED2E831603130F088F39F3
:100D780060388F00ED2E7030831603138F04ED2E2C
:100D8800831603130F088F3960388F00ED2E75080E
:100D9800F300F4017408003A0319D32EC42E730823
:100DA800003A0319902E013A0319952E033A0319B4
:100DB8009C2E013A0319A32E073A0319AA2E013AC9
:100DC8000319B12E033A0319B82E013A0319BF2E9D
:100DD800C42E0F14080006300A128A118E260A1231
:100DE8008A110A128A1123270A128A1130300A122C
:100DF8008A1109270A128A110A128A11BA250A12B7
:100E08008A11002F0A128A110C28F300730883161E
:100E18000313930036308312031394008030831633
:100E28000313940001309100871507168B170B17D1
:100E3800831203138C11831603138C150800831671
:100E480003178801890183160313081208178312F0
:0A0E58000313880110309000080019
:04400E00D4E0FFFFFC
:00000001FF
