:020000040000FA
:100000000A128A11F62F00308A000408840A820737
:0C00100000344E34613464346134003438
:100BCC0083160313981CEB2DEC2DE62D760883125F
:100BDC00031399000800F60083160313981CF72DD5
:100BEC00F82DF22D76088312031399000800831256
:100BFC0003138C1E022E032EFD2D981C062E072E81
:100C0C00092E181218161A08080006300A128A1132
:100C1C005A260A128A110A128A111F260A128A11DE
:100C2C000A128A11BB260A128A11162E0A128A116E
:100C3C00002883160313981618128312031398179F
:100C4C008316031318138312031318161930831603
:100C5C00031399009A018316031787118316031344
:100C6C0018150800F800F9014C2E79087807840053
:100C7C000A128A1103200A128A110A128A11F1250A
:100C8C000A128A110130F7007708F90779087807FA
:100C9C0084000A128A1103200A128A11003A031DD9
:100CAC00582E592E3B2E0800F800972E8F308316A5
:100CBC0003138F05B92E831603130F088F391038C1
:100CCC008F00B92E831603130F088F3920388F002D
:100CDC00B92E831603130F088F3910388F00B92ED5
:100CEC00831603130F088F3940388F00B92E8316E3
:100CFC0003130F088F3950388F00B92E8316031346
:100D0C000F088F3960388F00B92E7030831603139B
:100D1C008F04B92E831603130F088F3960388F0098
:100D2C00B92E7808F600F7017708003A03199F2EC0
:100D3C00902E7608003A03195C2E013A0319612EA5
:100D4C00033A0319682E013A03196F2E073A031957
:100D5C00762E013A03197D2E033A0319842E013A9B
:100D6C0003198B2E902E0F1408000A128A11FD25E0
:100D7C000A128A11FA007A08F5000330FB0097304A
:100D8C00FA00FA0BC72EFB0BC72ECC2EDC2F0A1247
:100D9C008A11FD250A128A11FA007A08F400033030
:100DAC00FB009730FA00FA0BD92EFB0BD92EDE2E56
:100DBC007508FA00FB017A08F6007B08F7000A12A6
:100DCC008A11E6250A128A110330FB009730FA00CB
:100DDC00FA0BEE2EFB0BEE2EF32E7408FA00FB0131
:100DEC007A08F6007B08F7000A128A11E6250A1227
:100DFC008A110330FB009730FA00FA0B032FFB0B20
:100E0C00032F082FF52F0A128A11FD250A128A11B9
:100E1C00FA007A08F3000330FB009730FA00FA0B63
:100E2C00152FFB0B152F1A2F7508FA00FB017A08EA
:100E3C00F6007B08F7000A128A11E6250A128A11BD
:100E4C000330FB009730FA00FA0B2A2FFB0B2A2FEA
:100E5C002F2F7308FA00FB017A08F6007B08F700C5
:100E6C000A128A11E6250A128A11FF2E0A128A1119
:100E7C00FD250A128A11FA007A08F2000330FB00F1
:100E8C009730FA00FA0B482FFB0B482F4D2F7508A3
:100E9C00FA00FB017A08F6007B08F7000A128A11A7
:100EAC00E6250A128A110330FB009730FA00FA0B80
:100EBC005D2FFB0B5D2F622F7208FA00FB017A0885
:100ECC00F6007B08F7000A128A11E6250A128A112D
:100EDC00FF2E0A128A11FD250A128A11FA007A08CD
:100EEC00F1000330FB009730FA00FA0B7B2FFB0B61
:100EFC007B2F802F7508FA00FB017A08F6007B081F
:100F0C00F7000A128A11E6250A128A110330FB0037
:100F1C009730FA00FA0B902FFB0B902F952F71083E
:100F2C00FA00FB017A08F6007B08F7000A128A1116
:100F3C00E6250A128A11FF2E0A128A11FD250A12C1
:100F4C008A11FA007A08F0000330FB009730FA009F
:100F5C00FA0BAE2FFB0BAE2FB32F7508FA00FB016B
:100F6C007A08F6007B08F7000A128A11E6250A12A5
:100F7C008A110330FB009730FA00FA0BC32FFB0BDE
:100F8C00C32FC82F7008FA00FB017A08F6007B0803
:100F9C00F7000A128A11E6250A128A11FF2E013077
:100FAC000A128A1138260A128A11F52F7508FA00CE
:100FBC00FB017B08003A0319E42FD52F7A08003A7D
:100FCC000319CD2E013A0319092F033A03193C2FAB
:100FDC00013A03196F2F073A0319A22FD52F0800D6
:100FEC00F001F101F201F301F401F50183010A12A0
:040FFC008A110B2E1D
:04400E00D4E0FFFFFC
:00000001FF
