:020000040000FA
:060000000A128A110C280F
:10000800FE00030EF7000A08F8000A128A111B28DE
:100018000A128A110F28F001F101F201F301F4012B
:1000280083120313A60183010A128A11F12883128D
:1000380003130C1F202821282B280C130330F6004B
:100048009730F500F50B2628F60B26282B28831267
:1000580003138C1D3028312887281412141B3528C7
:1000680036283A28941F39283A2841281308F500D9
:100078007508F10014139413141683160313941AB5
:1000880046284728642814194A284B2864288312CC
:1000980003131308F5007508F1008C111416831664
:1000A8000313141C582859285328831203131308C0
:1000B800F5007508A6005330F500F50B6128842873
:1000C800941A672868288428141D6B286C288428AB
:1000D800831203131308F5007508F1008316031340
:1000E8001410740883120313930014165330F50088
:1000F800F50B7C28831603131418832884287E287C
:10010800831203138C1178088A00770E8300FE0E81
:100118007E0E0900F900CB288F30831603138F0554
:10012800EF28831603130F088F3910388F00EF2834
:10013800831603130F088F3920388F00EF28831692
:1001480003130F088F3910388F00EF288316031315
:100158000F088F3940388F00EF28831603130F08D4
:100168008F3950388F00EF28831603130F088F3903
:1001780060388F00EF287030831603138F04EF2840
:10018800831603130F088F3960388F00EF2879081A
:1001980083120313A000A1012108003A0319D528EE
:1001A800C4282008003A03199028013A0319952811
:1001B800033A03199C28013A0319A328073A03199B
:1001C800AA28013A0319B128033A0319B828013AB1
:1001D8000319BF28C4280F14080006300A128A1110
:1001E8008E200A128A110A128A11A8210A128A116B
:1001F800023083120313A0000030A1000A128A11F2
:1002080063210A128A1120300A128A118E210A12D9
:100218008A11C330831203139F0500300A128A1112
:100228002B210A128A11831203132008A400240820
:10023800F400033083120313A5009730A400A40B25
:100248002329A50B23290D290A128A110C28F90044
:1002580008307902031C3129322937298312031304
:10026800A001A1016229C53083120313A20022084C
:100278009F057908A20002300310A20DFF3E031D5E
:1002880040290310220DA30023089F040330831282
:100298000313A3009730A200A20B5029A30B5029E7
:1002A800831203139F149F185A295B2957291E0884
:1002B800A200A3012208A0002308A10008007429B5
:1002C8003F309F0586291F083F3940389F008629FF
:1002D8001F083F3980389F008629C0309F0486292F
:1002E800831203132108003A03197B297129200876
:1002F800013A03196429033A03196729013A0319D2
:100308006C2971299F141F14831603139F139F12BE
:100318001F120800F900790883160313930036307A
:100328008312031394008030831603139400013062
:100338009100871507168B170B17831203138C115F
:10034800831603138C150800831603178801890187
:1003580008148814831603130514851483120313D1
:0E03680085018B170B17831603130C17080063
:04400E00D4E0FFFFFC
:00000001FF
