:020000040000FA
:060000000A128A110C280F
:10000800FE00030EF2000A08F3000A128A111B28E8
:100018000A128A110F28F601F701F801F901831273
:100028000313A401A50183010A128A111529831259
:1000380003130C1F202821282B280C130330F10050
:100048009730F000F00B2628F10B26282B28831276
:1000580003138C1D30283128AB281412141B3528A3
:1000680036283A28941F39283A2841281308F000DE
:100078007008F70014139413141683160313941AB4
:1000880046284728642814194A284B2864288312CC
:1000980003131308F0007008F7008C111416831668
:1000A8000313141C582859285328831203131308C0
:1000B800F0007008A4005330F000F00B6128A82865
:1000C800941A67286828A828141D6B286C28A82863
:1000D8007603031D702871288A28831203131308D6
:1000E800F0007008F70083160313141079088312C0
:1000F8000313930014165330F000F00B8128831675
:1001080003131418882889288328A828023076061B
:10011800031D8F289028A828831203131308F000C2
:100128007008F7008316031314107808831203135A
:10013800930014165330F000F00BA0288316031315
:100148001418A728A828A228831203138C1173084F
:100158008A00720E8300FE0E7E0E090083120313BE
:10016800A000F1288F30831603138F0513298316F7
:1001780003130F088F3910388F00132983160313C0
:100188000F088F3920388F001329831603130F089F
:100198008F3910388F001329831603130F088F39EE
:1001A80040388F001329831603130F088F395038EE
:1001B8008F001329831603130F088F3960388F00B7
:1001C80013297030831603138F041329831603131E
:1001D8000F088F3960388F0013292008F400F501C3
:1001E8007508003A0319F928EA287408003A03192F
:1001F800B628013A0319BB28033A0319C228013A61
:100208000319C928073A0319D028013A0319D7282E
:10021800033A0319DE28013A0319E528EA280F14DE
:10022800080006300A128A11B2200A128A110A122C
:100238008A11E6210A128A110230F4000030F50012
:100248000A128A119B210A128A1120300A128A1175
:10025800CC210A128A11C330831203139F05003080
:100268000A128A1165210A128A117408831203136B
:10027800A3002308F900C73083120313A3004429FD
:10028800A30B43294729831203131F08C3390438D2
:100298009F0000300A128A1165210A128A11740817
:1002A80083120313A3002308F800C7308312031333
:1002B800A3005E29A30B5D2961292F290A128A113F
:1002C8000C2883120313A20008302202031C6D2994
:1002D8006E297129F401F5019A29C530A00020087A
:1002E8009F052208A00002300310A00DFF3E031D49
:1002F80078290310200DA10021089F0403308312E0
:100308000313A1009730A000A00B8829A10B88290E
:10031800831203139F149F18922993298F291E086B
:10032800A000A1012008F4002108F5000800B42964
:100338003F30831203139F05C429831203131F0838
:100348003F3940389F00C429831203131F083F39DF
:1003580080389F00C429C030831203139F04C42926
:100368007508003A0319B929AF297408013A031925
:100378009C29033A0319A129013A0319A829AF298D
:100388009F141F14831603139F139F121F12080034
:10039800F400740883160313930036308312031392
:1003A8009400803083160313940001309100871560
:1003B80007168B170B17831203138C11831603135D
:1003C8008C150800831603178801890108148814FE
:1003D80083160313051485148312031385018B17E1
:0A03E8000B17831603130C1708000F
:04400E00D4E0FFFFFC
:00000001FF
