:020000040000FA
:060000000A128A110C280F
:10000800FE00030EF1000A08F2000A128A111C28E9
:100018000A128A110F28F601F701F801F901FA010D
:1000280083120313A301A40183010A128A11502920
:10003800831203130C1F212822282A280C13C730E7
:10004800F0002628F00B252829282A2883120313D4
:100058008C1D2F283028E8281412141B3428352822
:100068003928941F3828392840281308F0007008C8
:10007800A40014139413141683160313941A452812
:1000880046286328141949284A2863288312031329
:100098001308F0007008A4008C11141683160313BB
:1000A800141C572858285228831203131308F000E9
:1000B8007008F8005330F000F00B6028E528941A17
:1000C80066286728E528141D6A286B28E528780320
:1000D800031D6F2870288928831203131308F00062
:1000E8007008A4008316031314107A0883120313EC
:1000F800930014165330F000F00B80288316031376
:100108001418872888288228E52802307806031DD5
:100118008E288F28A828831203131308F00070086C
:10012800A400831603131410790883120313930091
:1001380014165330F000F00B9F288316031314187D
:10014800A628A728A128E52803307806031DAD288E
:10015800AE28C728831203131308F0007008A40000
:1001680083160313141077088312031393001416CD
:100178005330F000F00BBE28831603131418C5285B
:10018800C628C028E52804307806031DCC28CD28C9
:10019800E528831203131308F0007008A4008316DF
:1001A80003131410760883120313930014165330A4
:1001B800F000F00BDD28831603131418E428E52853
:1001C800DF28831203138C1172088A00710E8300D2
:1001D800FE0E7E0E0900F5002C298F3083160313BE
:1001E8008F054E29831603130F088F3910388F0097
:1001F8004E29831603130F088F3920388F004E2994
:10020800831603130F088F3910388F004E29831671
:1002180003130F088F3940388F004E2983160313B4
:100228000F088F3950388F004E29831603130F0893
:100238008F3960388F004E297030831603138F046E
:100248004E29831603130F088F3960388F004E2903
:100258007508F300F4017408003A031934292529B4
:100268007308003A0319F128013A0319F628033AEA
:100278000319FD28013A03190429073A03190B2920
:10028800013A03191229033A03191929013A0319E2
:10029800202925290F14080006300A128A11EF2098
:1002A8000A128A110A128A1128220A128A110230A5
:1002B800F3000030F4000A128A11DB210A128A11B5
:1002C80020300A128A1143220A128A11C33083127B
:1002D80003139F0500300A128A11A5210A128A11F8
:1002E800730883120313A2002208FA00C73083128E
:1002F8000313A2007F29A20B7E29822983120313EC
:100308001F08C33904389F0000300A128A11A5213A
:100318000A128A11730883120313A2002208F90033
:10032800C73083120313A2009929A20B98299C298C
:100338000A128A110C220A128A116A290A128A11CF
:100348000C28F50008307502031CAB29AC29AF292D
:10035800F301F401DA29C53083120313A000200841
:100368009F057508A00002300310A00DFF3E031D75
:10037800B8290310200DA10021089F04033083121F
:100388000313A1009730A000A00BC829A10BC8290E
:10039800831203139F149F18D229D329CF291E082B
:1003A800A000A1012008F3002108F4000800F429A6
:1003B8003F30831203139F05042A831203131F0877
:1003C8003F3940389F00042A831203131F083F391E
:1003D80080389F00042AC030831203139F04042A24
:1003E8007408003A0319F929EF297308013A031927
:1003F800DC29033A0319E129013A0319E829EF290D
:100408009F141F14831603139F139F121F120800B3
:10041800831203138E018F0108140330F300F30BCA
:10042800132A831203130810881C1B2A1C2A182A53
:1004380010148818202A212A1D2A10100E08F300EB
:100448007308F700F601080083160317880189016D
:1004580008148814831603130514851408108814C7
:1004680083120313850188018B170B178316031357
:100478000C170C1410308312031390000800F300BB
:100488007308831603139300363083120313940002
:1004980080308316031394000130910087150716E6
:1004A8008B170B17831203138C11831603138C15E8
:0204B80008003A
:04400E00D4E0FFFFFC
:00000001FF
