:020000040000FA
:060000000A128A110C280F
:10000800FE00030EF2000A08F3000A128A11C8283B
:100018000A128A110F28F601F701F801F901830184
:100028000A128A119E2928283F309F0589281F080F
:100038003F3940389F0089281F083F3980389F0082
:100048008928C0309F048928831203132108003AA5
:1000580003192F2825282008013A03191828033ADC
:1000680003191B28013A031920282528C3309F05A6
:10007800C0281F08C33904389F00C0281F08C33987
:1000880008389F00C0281F08C3390C389F00C028B3
:100098001F08C33910389F00C0281F08C3391438F7
:1000A8009F00C0281F08C33918389F00C0281F08A0
:1000B800C3391C389F00C0281F08C33920389F0047
:1000C800C0281F08C33924389F00C0281F08C33917
:1000D80028389F00C0281F08C3392C389F00C02823
:1000E8001F08C33930389F00C0281F08C339343867
:1000F8009F00C0281F08C33938389F00C0283C30EB
:100108009F04C028C3309F05C0282308003A03195C
:100118008E2886282208003A03193A28013A03193A
:100128003D28033A03194228013A03194728073A98
:1001380003194C28013A03195128033A0319562880
:10014800013A03195B280F3A03196028013A031989
:100158006528033A03196A28013A03196F28073AF0
:1001680003197428013A03197928033A03197E28D8
:10017800013A0319832886289F141F148316031332
:100188009F139F121F120800831203130C1FCD2800
:10019800CE28D8280C130330F1009730F000F00B6C
:1001A800D328F10BD328D828831203138C1DDD28FC
:1001B800DE2834291412141BE228E328E728941FA8
:1001C800E628E728EE281308F0007008F800141352
:1001D8009413141683160313941AF328F428112978
:1001E8001419F728F8281129831203131308F000AB
:1001F8007008F8008C11141683160313141C0529B3
:1002080006290029831203131308F0007008F6006A
:100218005330F000F00B0E293129941A14291529AE
:100228003129141D18291929312983120313130898
:10023800F0007008F800831603131410790883126D
:100248000313930014165330F000F00B292983167A
:1002580003131418302931292B29831203138C1105
:1002680073088A00720E8300FE0E7E0E0900831248
:100278000313A0007A298F30831603138F059C2956
:10028800831603130F088F3910388F009C298316A3
:1002980003130F088F3920388F009C298316031306
:1002A8000F088F3910388F009C29831603130F0805
:1002B8008F3940388F009C29831603130F088F3914
:1002C80050388F009C29831603130F088F39603824
:1002D8008F009C297030831603138F049C29831682
:1002E80003130F088F3960388F009C292008F40009
:1002F800F5017508003A0319822973297408003A30
:1003080003193F29013A03194429033A03194B29D0
:10031800013A03195229073A03195929013A0319CD
:100328006029033A03196729013A03196E297329C9
:100338000F14080006300A128A113B210A128A118A
:100348000A128A1127220A128A1102308312031311
:10035800A0000030A1000030A200A3000A128A11F8
:1003680017200A128A1110300A128A110D220A1255
:100378008A1100300A128A11D7210A128A117408C8
:1003880083120313A4002408F90003308312031313
:10039800A5009730A400A40BCF29A50BCF29BD2910
:1003A8000A128A110C2883120313A20008302202B1
:1003B800031CDF29E029E329F401F5010C2AC530E3
:1003C800A00020089F052208A00002300310A00DFD
:1003D800FF3E031DEA290310200DA10021089F04F8
:1003E800033083120313A1009730A000A00BFA2951
:1003F800A10BFA29831203139F149F18042A052AB4
:10040800012A1E08A000A1012008F4002108F50017
:100418000800F4007408831603139300363083121F
:100428000313940080308316031394000130910065
:10043800871507168B170B17831203138C11831656
:1004480003138C1508008316031788018901081403
:100458008316031305148312031385018B170B17D7
:08046800831603130C170800B2
:04400E00D4E0FFFFFC
:00000001FF
