:020000040000FA
:100000000A128A11F32F00308A000408840A82073A
:1000100000343034313432343334343435343634DB
:1000200037343834393420342034203420342034E8
:100030002034003441344C34453452345434413447
:10004000003448346F34723461343A340034483404
:1000500075346D346F343A340034543465346D344F
:100060003A3400344C3475347A343A3400344F34F2
:1000700046344634003458343A340034433443343C
:1000800000344F344E340034503450340034633430
:0C0090006D3400342B3400342D34003467
:10014C0064008001840A0406031900340406A728FD
:10015C000A128A11CA200A128A1183160313111467
:10016C0008000A128A11CA200A128A118316031374
:10017C00111508000A128A11CA200A128A11700875
:10018C008312031393000800831603131419CF284A
:10019C00D028CA2811081F39031DD528D628CA28EB
:1001AC000800831203130813183086008817C73011
:1001BC00F000E028F00BDF28E328E4288312031377
:1001CC00881308008316031788018901831603130B
:1001DC008501860187010813881383120313850197
:1001EC00860187018801080000300A128A110D214E
:1001FC000A128A1101300A128A110D210A128A116F
:10020C000C300A128A110D210A128A110800F20010
:10021C008312031308137208860088170630F10046
:10022C003030F000F00B1829F10B18290000831264
:10023C00031388130800F2008312031308177208C3
:10024C00860088170330F1009730F000F00B2C2952
:10025C00F10B2C2931298312031388130800F500A4
:10026C007303031D3A293B29472975087F3EF40087
:10027C007408F60076080A128A110D210A128A11E6
:10028C00582902307306031D4C294D29582975082D
:10029C00BF3EF4007408F60076080A128A110D218C
:1002AC000A128A1108000A128A11CA200A128A112B
:1002BC008316031391150A128A11CA200A128A1185
:1002CC00831203131308F200F3017208F40073088D
:1002DC00F5000A128A11CA200A128A1170037104DD
:1002EC00031D79297A297E298316031391128129FA
:1002FC0083160313911611167508F1007408F0009B
:10030C000800F400F201F301AA2983120313081761
:10031C007208740784000A128A1103200A128A11C7
:10032C00860088170330F1009730F000F00B9C2901
:10033C00F10B9C29A1298312031388130130F207B6
:10034C000318F30A0030F3077208740784000A12CA
:10035C008A1103200A128A11003A031DB629B72903
:10036C008B2908002830831203139400831603137F
:10037C009101831203133808BC003908BD003A08F8
:10038C00BE003B08BF0002300310BC0DBD0DBE0DFE
:10039C00BF0DFF3E031DCA293F08F3003E08F200C3
:1003AC003D08F1003C08F0000030F7003D30F6004D
:1003BC000930F5000030F4000A128A1153230A1296
:1003CC008A117008FF3E831603139300940187155E
:1003DC000716080083120313081300300A128A113F
:1003EC000D210A128A111430F4007930F300F30B4A
:1003FC00FD29F40BFD29022A30300A128A110D2135
:10040C000A128A110630F4003030F300F30B0C2A78
:10041C00F40B0C2A000030300A128A110D210A123A
:10042C008A113530F300F30B192A30300A128A1175
:10043C000D210A128A113530F300F30B232A3830C0
:10044C000A128A110D210A128A1110300A128A110D
:10045C000D210A128A1101300A128A110D210A1279
:10046C008A1106300A128A110D210A128A110F30D4
:10047C000A128A110D210A128A1108008312031321
:10048C003608031D4A2A4B2A6F2A0230F7007708D8
:10049C00F30026300A128A1135210A128A11103003
:1004AC000A128A1187210A128A11831203138510EA
:1004BC000230F7007708F30027300A128A11352131
:1004CC000A128A1144300A128A1187210A128A11DF
:1004DC00982A5A303606031D742A752A982A023037
:1004EC00F7007708F30027300A128A1135210A1217
:1004FC008A1110300A128A1187210A128A1183126A
:10050C00031385140230F7007708F30026300A1223
:10051C008A1135210A128A1142300A128A11872156
:10052C000A128A110800F601F31F9D2A9E2AA52A99
:10053C00F209F309F20A0319F30AF601F60AF11F9C
:10054C00A82AA92AAE2AF009F109F00A0319F10A1E
:10055C00700871040319B32AB42AE32AF501F50AC9
:10056C00C22A01300310F00DF10DFF3E031DB82A15
:10057C000130F4007408F507F11FC52AC62AB72A02
:10058C0071087302031DCC2A70087202031CCF2A57
:10059C00D02AD62A7008F2027108031CF303F30266
:1005AC0001300310F10CF00CFF3E031DD72A013073
:1005BC00F502031DE22AE32AC62A76080319E72A64
:1005CC00E82AED2AF209F309F20A0319F30A73086F
:1005DC00F1007208F0000800F2002F2B8F30831608
:1005EC0003138F05512B831603130F088F39103803
:1005FC008F00512B831603130F088F3920388F006F
:10060C00512B831603130F088F3910388F00512B81
:10061C00831603130F088F3940388F00512B831624
:10062C0003130F088F3950388F00512B8316031387
:10063C000F088F3960388F00512B703083160313DD
:10064C008F04512B831603130F088F3960388F00DA
:10065C00512B7208F000F1017108003A0319372B85
:10066C00282B7008003A0319F42A013A0319F92AC5
:10067C00033A0319002B013A0319072B073A031904
:10068C000E2B013A0319152B033A03191C2B013AB3
:10069C000319232B282B0F1408000030FC0000300A
:1006AC00FB000030FA000030F9007308720471048A
:1006BC0070040319622B632BB02BFD01FD0A732B05
:1006CC000130F8000310F00DF10DF20DF30DF80BE5
:1006DC00682B0130F8007808FD07F31F762B772B79
:1006EC00662B0130F8000310F90DFA0DFB0DFC0D13
:1006FC00F80B792B73087702031D8E2B7208760288
:10070C00031D8E2B71087502031D8E2B700874024D
:10071C00031C912B922BA12B7008F4027108031C63
:10072C00710FF5027208031C720FF6027308031C9A
:10073C00730FF702791401300310F30CF20CF10C67
:10074C00F00CFF3E031DA22B0130FD02031DAF2B4D
:10075C00B02B772B7C08F3007B08F2007A08F100B1
:10076C007908F0000800F601F11FBD2BBE2BC52B3C
:10077C00F009F109F00A0319F10AF601F60AF31F60
:10078C00C82BC92BD22BF209F309F20A0319F30A6D
:10079C000130F4007408F606F701F80170087104D2
:1007AC000319D92BDA2B112CF501F50AE82B0130A2
:1007BC000310F00DF10DFF3E031DDE2B0130F40094
:1007CC007408F507F11FEB2BEC2BDD2B013003101C
:1007DC00F70DF80DFF3E031DED2B71087302031D81
:1007EC00F92B70087202031CFC2BFD2B042C7008D7
:1007FC00F2027108031CF303F302771401300310A7
:10080C00F10CF00CFF3E031D052C0130F502031D0D
:10081C00102C112CEC2B76080319152C162C1B2CD8
:10082C00F709F809F70A0319F80A7808F1007708AC
:10083C00F00008000A30F0000030F10083120313BE
:10084C003508F900FA017908F2007A08F3000A1267
:10085C008A11B9230A128A11710883120313AB008F
:10086C007008AA000A30F0000030F1003508F900D9
:10087C00FA017908F2007A08F3000A128A11992217
:10088C000A128A11710883120313A9007008A800B8
:10089C00F301F30A0A300A128A1135210A128A115D
:1008AC00831203132A08013E84000A128A110320C2
:1008BC000A128A110A128A1121210A128A11F301D1
:1008CC00F30A0B300A128A1135210A128A1183128B
:1008DC0003132808013E84000A128A1103200A120D
:1008EC008A110A128A1121210A128A110F308312DD
:1008FC00031335020318832C842C982C0230F90036
:10090C007908F30008300A128A1135210A128A116B
:10091C0012300A128A1187210A128A1183120313C8
:10092C008515AB2C0230F9007908F30008300A1257
:10093C008A1135210A128A110B300A128A11872169
:10094C000A128A1183120313851108006430F00017
:10095C000030F100831203133408F900FA0179080E
:10096C00F2007A08F3000A128A11B9230A128A11CA
:10097C00710883120313A7007008A6006430F000FE
:10098C000030F1003408F900FA017908F2007A0815
:10099C00F3000A128A1199220A128A117108831221
:1009AC000313A5007008A4000A30F0000030F10019
:1009BC002508F3002408F2000A128A11B9230A123E
:1009CC008A11710883120313A3007008A2000A3065
:1009DC00F0000030F1002508F3002408F2000A12A0
:1009EC008A1199220A128A11710883120313A10029
:1009FC007008A000F301F30A14300A128A11352191
:100A0C000A128A11831203132608013E84000A126B
:100A1C008A1103200A128A110A128A1121210A1240
:100A2C008A11F301F30A15300A128A1135210A12C0
:100A3C008A11831203132208013E84000A128A11C0
:100A4C0003200A128A110A128A1121210A128A1110
:100A5C00F301F30A16300A128A1135210A128A118F
:100A6C00831203132008013E84000A128A1103200A
:100A7C000A128A110A128A1121210A128A113330A0
:100A8C00831203133402031C4C2D4D2D612D0230A7
:100A9C00F9007908F30010300A128A1135210A1274
:100AAC008A1112300A128A1187210A128A118312B2
:100ABC0003130516742D0230F9007908F300103079
:100ACC000A128A1135210A128A110B300A128A1164
:100ADC0087210A128A11831203130512080064304D
:100AEC00F0000030F100831203133708F900FA010B
:100AFC007908F2007A08F3000A128A11B9230A1253
:100B0C008A11710883120313B3007008B2006430A9
:100B1C00F0000030F1003708F900FA017908F20012
:100B2C007A08F3000A128A1199220A128A117108A2
:100B3C0083120313B1007008B0000A30F0000030CB
:100B4C00F1003108F3003008F2000A128A11B923BF
:100B5C000A128A11710883120313AF007008AE00D9
:100B6C000A30F0000030F1003108F3003008F200D8
:100B7C000A128A1199220A128A117108831203131C
:100B8C00AD007008AC000230F9007908F3000130B8
:100B9C000A128A1135210A128A11831203133208A0
:100BAC00013E84000A128A1103200A128A110A12C9
:100BBC008A1121210A128A110230F9007908F300F6
:100BCC0002300A128A1135210A128A118312031378
:100BDC002E08013E84000A128A1103200A128A117F
:100BEC000A128A1121210A128A110230F90079089D
:100BFC00F30003300A128A1135210A128A1183126A
:100C0C0003132C08013E84000A128A1103200A12D5
:100C1C008A110A128A1121210A128A113230831286
:100C2C000313370203181B2E1C2E3E2E0230F90024
:100C3C007908F30004300A128A1135210A128A113C
:100C4C000E300A128A1187210A128A11F301F30A53
:100C5C0005300A128A1135210A128A1139300A120A
:100C6C008A1187210A128A118312031305155F2E2C
:100C7C00F301F30A05300A128A1135210A128A117E
:100C8C000F300A128A1187210A128A110230F900D8
:100C9C007908F30004300A128A1135210A128A11DC
:100CAC002F300A128A1187210A128A118312031318
:100CBC000511080006300A128A11F2220A128A1152
:100CCC000A128A11E8200A128A110A128A11F021DA
:100CDC000A128A110A128A11FA200A128A11003099
:100CEC0083120313BB000130BA008630B900A03068
:100CFC00B8000A128A11B8210A128A11F301F30AF8
:100D0C0001300A128A1135210A128A112A300A126C
:100D1C008A1187210A128A11F301F30A08300A1288
:100D2C008A1135210A128A1133300A128A1187214D
:100D3C000A128A11F301F30A0C300A128A113521B6
:100D4C000A128A113F300A128A1187210A128A115B
:100D5C00F301F30A0F300A128A1135210A128A1193
:100D6C001F300A128A1187210A128A11F301F30A21
:100D7C0018300A128A1135210A128A1125300A12EA
:100D8C008A1187210A128A11023083120313C000C0
:100D9C004008F3001A300A128A1135210A128A11FE
:100DAC00DF300A128A1121210A128A1102308312B1
:100DBC000313C0004008F3001B300A128A113521BE
:100DCC000A128A1137300A128A1187210A128A11E3
:100DDC00F301F30A1D300A128A1135210A128A1105
:100DEC0019300A128A1187210A128A1102308312D1
:100DFC000313C0004008F3001F300A128A1135217A
:100E0C000A128A1134300A128A1187210A128A11A5
:100E1C00F301F30A23300A128A1135210A128A11BE
:100E2C003C300A128A1187210A128A11F301F30A43
:100E3C0026300A128A1135210A128A1136300A120A
:100E4C008A1187210A128A110A128A11AE200A12FB
:100E5C008A111130F0000030F1000A128A11C02002
:100E6C000A128A110030F000F1000A128A1159217D
:100E7C000A128A11700883120313C0004008B700CD
:100E8C000A128A11B7200A128A11823083120313B4
:100E9C00C100DD30C000C00B512FC10B512F0A1205
:100EAC008A11AE200A128A112130F0000030F100B4
:100EBC000A128A11C0200A128A110030F000F100C7
:100ECC000A128A1159210A128A117008831203130B
:100EDC00C0004008B6000A128A11B7200A128A1103
:100EEC00823083120313C100DD30C000C00B7C2F95
:100EFC00C10B7C2F0A128A11AE200A128A113130D2
:100F0C00F0000030F1000A128A11C0200A128A1176
:100F1C000030F000F1000A128A1159210A128A11CC
:100F2C00700883120313C0004008B5000A128A111E
:100F3C00B7200A128A11823083120313C100DD30EC
:100F4C00C000C00BA72FC10BA72F0A128A11AE200D
:100F5C000A128A114130F0000030F1000A128A1195
:100F6C00C0200A128A110030F000F1000A128A1116
:100F7C0059210A128A11700883120313C000400809
:100F8C00B4000A128A11B7200A128A118230831215
:100F9C000313C100DD30C000C00BD22FC10BD22F08
:100FAC000A128A1175250A128A110A128A11442210
:100FBC000A128A110A128A1120240A128A110A12A0
:100FCC008A11AC240A128A110A128A11D7200A1229
:100FDC008A112A2F0A128A110028831320308400C8
:100FEC0038300A128A11A6200A128A1183010A12B9
:040FFC008A11602EC8
:04400E00D4E0FFFFFC
:00000001FF
