:020000040000FA
:060000000A128A11EF2F25
:100008000030FC000030FB000030FA000030F9003E
:1000180073087204710470040319132814286128E2
:10002800FD01FD0A24280130F8000310F00DF10D40
:10003800F20DF30DF80B19280130F8007808FD07C8
:10004800F31F2728282817280130F8000310F90D76
:10005800FA0DFB0DFC0DF80B2A2873087702031D17
:100068003F2872087602031D3F2871087502031D98
:100078003F2870087402031C42284328522870083D
:10008800F4027108031C710FF5027208031C720F49
:10009800F6027308031C730FF7027914013003107A
:1000A800F30CF20CF10CF00CFF3E031D5328013049
:1000B800FD02031D6028612828287C08F3007B08BE
:1000C800F2007A08F1007908F0000800F601F11F43
:1000D8006E286F287628F009F109F00A0319F10A49
:1000E800F601F60AF31F79287A288328F209F3091A
:1000F800F20A0319F30A0130F4007408F606F7014E
:10010800F8017008710403198A288B28C228F501A0
:10011800F50A992801300310F00DF10DFF3E031D7B
:100128008F280130F4007408F507F11F9C289D28DA
:100138008E2801300310F70DF80DFF3E031D9E2891
:1001480071087302031DAA2870087202031CAD28E7
:10015800AE28B5287008F2027108031CF303F302F5
:10016800771401300310F10CF00CFF3E031DB62884
:100178000130F502031DC128C2289D2876080319FD
:10018800C628C728CC28F709F809F70A0319F80A76
:100198007808F1007708F0000800031083120313B1
:1001A800620D630DE4006408EA006A08031DDD2897
:1001B800DE28E7280030E3000030E2000030E100EC
:1001C8000030E0004C296008E4006108E50062089E
:1001D800E6006308E7001F300310E70CE60CE50CA7
:1001E800E40CFF3E031DF0286408E8006808E900F5
:1001F800E217FF30E005FF30E105FF30E20500308F
:10020800E3059630EA02EA1F0A290B2925296A081C
:10021800803A973E0318112912291329DE28013044
:100228000310E30CE20CE10CE00CFF3E031D142963
:100238000130E4006408EA07031D2329242913294F
:100248003C2920306A02031C2A292B293729DE2859
:100258000130E4000310E00DE10DE20DE30DE40BC5
:100268002E290130EA026A08031D3B293C292C2962
:1002780069080319402941294C29E009E109E209E3
:10028800E309E00A0319E10A0319E20A0319E30A78
:100298000800831203134708803AFF0080307F026A
:1002A800031D582965304602031C5B295C29602917
:1002B8008312031385157229831203134708803AA2
:1002C800FF0080307F02031D6B296430460203184B
:1002D8006E296F2972298312031385118312031360
:1002E8004508803AFF0080307F02031D7D293330A6
:1002F8004402031C802981298529831203130512CE
:100308009729831203134508803AFF0080307F0243
:10031800031D902932304402031893299429972900
:100328008312031305164130F300F030F200003059
:10033800F1000030F000831203132308F7002208AD
:10034800F6002108F5002008F4000A128A11D521C8
:100358000A128A110318B129B229B6298312031384
:100368000515D429831203132308F3002208F20089
:100378002108F1002008F0004130F700F030F600C5
:100388000030F5000030F4000A128A11D5210A1253
:100398008A110318D029D129D429831203130515EA
:1003A800080000307005F80000307105F900803051
:1003B8007205FA007F307305FB007B087A04790424
:1003C8007804031DE829E929F1290030F3000030F9
:1003D800F2000030F1000030F00000307405F80041
:1003E80000307505F90080307605FA007F30770512
:1003F800FB007B087A0479047804031D042A052A83
:100408000D2A0030F7000030F6000030F50000300B
:10041800F400F31F102A112A352A0030F8000030A2
:10042800F9000030FA008030FB007008F80271080B
:10043800031C710F202A212AF9027208031C720F6B
:10044800262A272AFA027308031C730F2C2A2D2A3E
:10045800FB027B08F3007A08F2007908F1007808BB
:10046800F000F71F382A392A5D2A0030F8000030DA
:10047800F9000030FA008030FB007408F8027508B3
:10048800031C750F482A492AF9027608031C760FBF
:100498004E2A4F2AFA027708031C770F542A552A46
:1004A800FB027B08F7007A08F6007908F50078085F
:1004B800F4008030F3068030F70677087302031DD6
:1004C8006F2A76087202031D6F2A75087102031DD0
:1004D8006F2A740870020318722A732A752A031087
:1004E800762A0314080006300A128A159F270A1272
:1004F8008A110A128A15C3250A128A11003083123A
:100508000313CE000130CD008630CC00A030CB00E4
:100518000A128A15BA260A128A110A128A15F226AE
:100528000A128A110A128A15D5250A128A110B3065
:1005380083120313EF002630EE005D30ED00ED0B63
:10054800A32AEE0BA32AEF0BA32AF301F30A013027
:100558000A128A1510260A128A110B300A128A15F5
:1005680089260A128A11F301F30A06300A128A153B
:1005780010260A128A1115300A128A1589260A12BB
:100588008A11F301F30A0A300A128A1510260A1290
:100598008A1110300A128A1589260A128A110A123B
:1005A8008A159A250A128A112130F0000030F100CC
:1005B8000A128A15AC250A128A110030F000F100DF
:1005C8000A128A155B260A128A117008831203130D
:1005D800ED006D08C9000A128A15A3250A128A11AE
:1005E800023083120313EF000430EE00B930ED003F
:1005F800ED0BFC2AEE0BFC2AEF0BFC2A032B0A124C
:100608008A116C230A128A11023083120313ED0037
:100618006D08F30006300A128A1510260A128A118C
:10062800831203133808013E84000A128A15002039
:100638000A128A110A128A15FC250A128A11023036
:1006480083120313ED006D08F30007300A128A15B0
:1006580010260A128A11831203133408013E8400FB
:100668000A128A1500200A128A110A128A15FC2514
:100678000A128A11023083120313ED006D08F30089
:1006880008300A128A1510260A128A1183120313D7
:100698003208013E84000A128A1500200A128A11C3
:1006A8000A128A15FC250A128A11033083120313D1
:1006B800EE009730ED00ED0B5F2BEE0B5F2B0A126F
:1006C8008A114D210A128A11D32A0A128A11002886
:1006D80083120313C601C7016430F0000030F10033
:1006E8004708F3004608F2000A128A116A200A1223
:1006F8008A11710883120313C1007008C0006430A6
:10070800F0000030F1004708F3004608F2000A1232
:100718008A1546270A128A11710883120313BF002B
:100728007008BE000A30F0000030F1003F08F30006
:100738003E08F2000A128A116A200A128A11710808
:1007480083120313BD007008BC000A30F0000030AB
:10075800F1003F08F3003E08F2000A128A15462706
:100768000A128A11710883120313BB007008BA00B9
:100778004908EB00EC016B08C4006C08C500643044
:10078800F0000030F1004508F3004408F2000A12B6
:100798008A116A200A128A11710883120313B90098
:1007A8007008B8006430F0000030F1004508F3002C
:1007B8004408F2000A128A1546270A128A1171089B
:1007C80083120313B7007008B6000A30F000003037
:1007D800F1003708F3003608F2000A128A116A207D
:1007E8000A128A11710883120313B5007008B40045
:1007F8000A30F0000030F1003708F3003608F20044
:100808000A128A1546270A128A11710883120313DD
:10081800B3007008B2000030A3000030A20000301E
:10082800A1000030A0002308D2002208D10021082E
:10083800D0002008CF004230CE00C830CD000030B4
:10084800CC000030CB000A128A118E240A128A11B9
:10085800831203134E08E3004D08E2004C08E10040
:100868004B08E0000A128A11D1200A128A11831259
:1008780003136108B1006008B0006430F000003074
:10088800F1003108F3003008F2000A128A116A20D8
:100898000A128A11710883120313AF007008AE00A0
:1008A8006430F0000030F1003108F3003008F20045
:1008B8000A128A1546270A128A117108831203132D
:1008C800AD007008AC000A30F0000030F1002D08CF
:1008D800F3002C08F2000A128A116A200A128A11FF
:1008E800710883120313AB007008AA000A30F000E5
:1008F8000030F1002D08F3002C08F2000A128A15C6
:1009080046270A128A11710883120313A900700876
:10091800A8000800831203134E088039F9007908EB
:10092800D3004E08F9007907FA007A08D900CD1FDC
:100938009E2C9F2CA02C591459080319A42CA52CC3
:10094800B42C590A031DA92CAA2CB22C0030CE00B5
:100958000030CD000030CC000030CB00CD17BC2CCF
:100968000030CE000030CD000030CC000030CB008D
:1009780052088039F9007908D3065208F900790736
:10098800FA007A08D800D11FCA2CCB2CCC2C5814CA
:1009980058080319D02CD12CE02C580A031DD52C4B
:1009A800D62CDE2C0030D2000030D1000030D00030
:1009B8000030CF00D117E82C0030D2000030D10031
:1009C8000030D0000030CF0058080319EC2CED2C73
:1009D800F22C5908031DF12CF22CFB2C0030CE0010
:1009E8000030CD000030CC000030CB00EE2F4B089B
:1009F800F9007908F00051080A128A1534260A12FB
:100A08008A11710883120313DF007008DE005E0884
:100A1800F900FA01FB01FC017C08D7007B08D6002D
:100A28007A08D5007908D4005F08F900FA01FB01BB
:100A3800FC017C08DD007B08DC007A08DB00790813
:100A4800DA004C08F9007908F00050080A128A15F3
:100A580034260A128A11710883120313DF00700802
:100A6800DE005E08F900FA01FB01FC017908D407F1
:100A78007A0803110318013E0319432DD5077B0893
:100A880003110318013E03194A2DD6077C080311E8
:100A98000318013E0319512DD7075F08F900FA0121
:100AA800FB01FC017908DA077A0803110318013EF3
:100AB80003195F2DDB077B0803110318013E031997
:100AC800662DDC077C0803110318013E03196D2D00
:100AD800DD074D08F9007908F0004F080A128A1559
:100AE80034260A128A11710883120313DF00700872
:100AF800DE005E08F900FA01FB01FC017908D40761
:100B08007A0803110318013E03198B2DD5077B08BA
:100B180003110318013E0319922DD6077C0803110F
:100B28000318013E0319992DD7075F08F900FA0148
:100B3800FB01FC017908DA077A0803110318013E62
:100B48000319A72DDB077B0803110318013E0319BE
:100B5800AE2DDC077C0803110318013E0319B52DDF
:100B6800DD070830F9000310D40DD50DD60DD70DCB
:100B7800F90BB72D4C08F9007908F0004F080A1254
:100B88008A1534260A128A11710883120313DF00AA
:100B98007008DE005E08F9005F08FA00FB01FC013E
:100BA8007908D4077A0803110318013E0319DD2DCB
:100BB800D5077B0803110318013E0319E42DD60756
:100BC8007C0803110318013E0319EB2DD7074B08C6
:100BD800F9007908F00050080A128A1534260A121A
:100BE8008A11710883120313DF007008DE005E08A3
:100BF800F9005F08FA00FB01FC017908D4077A08BC
:100C080003110318013E03190A2ED5077B080311A7
:100C18000318013E0319112ED6077C080311031887
:100C2800013E0319182ED7070830F9000310D40D18
:100C3800D50DD60DD70DF90B1A2E4B08F9007908EA
:100C4800F0004F080A128A1534260A128A11710810
:100C580083120313DF007008DE005E08F9005F08E6
:100C6800FA00FB01FC017908D4077A08031103187C
:100C7800013E0319402ED5077B0803110318013ED6
:100C88000319472ED6077C0803110318013E0319E0
:100C98004E2ED7074C08F9007908F00051080A12BF
:100CA8008A1534260A128A11710883120313DF0089
:100CB8007008DE005E08F9005F08FA00FB01FC011D
:100CC8007908DA077A0803110318013E03196D2E13
:100CD800DB077B0803110318013E0319742EDC0798
:100CE8007C0803110318013E03197B2EDD074D080C
:100CF800F9007908F00050080A128A1534260A12F9
:100D08008A11710883120313DF007008DE005E0881
:100D1800F9005F08FA00FB01FC017908DA077A0894
:100D280003110318013E03199A2EDB077B080311F0
:100D38000318013E0319A12EDC077C0803110318D0
:100D4800013E0319A82EDD074D08F9007908F000C7
:100D580051080A128A1534260A128A117108831258
:100D68000313DF007008DE005E08F9005F08FA0070
:100D7800FB01FC0108300310F90DFA0DFB0DFC0D09
:100D8800FF3E031DBF2E7908DA077A0803110318FE
:100D9800013E0319D02EDB077B0803110318013E1F
:100DA8000319D72EDC077C0803110318013E031929
:100DB800DE2EDD075408F9005508FA005608FB0036
:100DC8005708FC0018300310FC0CFB0CFA0CF90C4B
:100DD800FF3E031DE72E7908DA077A080311031886
:100DE800013E0319F82EDB077B0803110318013EA7
:100DF8000319FF2EDC077C0803110318013E0319B1
:100E0800062FDD070830F9000310D40DD50DD60DD7
:100E1800D70DF90B082F59085807F900FA01FA0DF0
:100E28007908823EDE007A080318013EFF3EDF00A3
:100E38003A2F0130F9000310DA0DDB0DDC0DDD0D62
:100E4800F90B1F2FD71F292F2A2F2B2F5A140130A8
:100E5800F9000310D40DD50DD60DD70DF90B2D2F94
:100E6800FF30DE070318DF0AFF30DF07DC1F3D2FE6
:100E78003E2F1D2FD801D71F422F432F5F2FFF3042
:100E88005405F900FF305505FA00FF305605FB0000
:100E98007F305705FC007C087B047A047904031929
:100EA800562F572F5A2FD801D80A5F2F5A1C5D2F5B
:100EB8005E2F5F2F572F58080319632F642F952F24
:100EC8000130DA07003003180130DB07003003185F
:100ED8000130DC07003003180130DD075D1C752F79
:100EE800762F952F5A08F9005B08FA005C08FB007A
:100EF8005D08FC000130FD007C0DFC0CFB0CFA0CBD
:100F0800F90CFD0B802F7C08DD007B08DC007A08DB
:100F1800DB007908DA000130DE070318DF0A003049
:100F2800DF075F08803AFF0080307F02031D9E2F95
:100F3800FF305E02031CA12FA22FAD2F7F3083123A
:100F48000313DD008030DC000030DB000030DA0005
:100F5800E22F831203135F08803AFF0080307F027C
:100F6800031DB82F01305E020318BB2FBC2FC82FFA
:100F7800003083120313DD000030DC000030DB009A
:100F88000030DA00D301E22F831203135E08F90060
:100F98007908D900FF30DA05FF30DB057F30DC0542
:100FA8000030DD05591CD92FDA2FDB2FDC17590843
:100FB800F9000310790CFA007A08DD005308F900EB
:100FC8007908DD045D08CE005C08CD005B08CC0024
:100FD8005A08CB0008008313203084004B300A12D3
:100FE8008A1592250A128A1183160313A001A101FA
:100FF80083010A128A11772A08308A000408840AB1
:1010080082070034303431343234333434343534B4
:101018003634373438343934483475346D346F34B1
:101028000034543465346D34703400344C347534C1
:041038007A340034D2
:101B240064008001840A0406031900340406932D1A
:101B34000A128A15B6250A128A158316031311147C
:101B440008000A128A15B6250A128A158316031389
:101B5400111508000A128A15B6250A128A1570088A
:101B64008312031393000800831603131419BB2D67
:101B7400BC2DB62D11081F39031DC12DC22DB62D44
:101B8400080083160317880189018316031385014E
:101B94000514851486010813881383120313850121
:101BA40086018701080000300A128A15E8250A1206
:101BB4008A1501300A128A15E8250A128A150C3092
:101BC4000A128A15E8250A128A150800F2008312FF
:101BD400031308137208860088170630F1003030AA
:101BE400F000F00BF32DF10BF32D0000831203131F
:101BF40088130800F2008312031308177208860082
:101C040088170330F1009730F000F00B072EF10B2A
:101C1400072E0C2E8312031388130800F500730398
:101C2400031D152E162E222E75087F3EF40074080F
:101C3400F60076080A128A15E8250A128A15332E48
:101C440002307306031D272E282E332E7508BF3E3F
:101C5400F4007408F60076080A128A15E8250A12B8
:101C64008A150800F800F401F5017008F200F30188
:101C74007208F6007308F700781C412E422E482E95
:101C84007608F4070318F50A7708F50701300310FE
:101C9400F60DF70DFF3E031D492E0310F80C7808CE
:101CA400031D552E562E3E2E7508F1007408F000C3
:101CB40008000A128A15B6250A128A158316031318
:101CC40091150A128A15B6250A128A15831203136E
:101CD4001308F200F3017208F4007308F5000A1205
:101CE4008A15B6250A128A1570037104031D7B2E0A
:101CF4007C2E802E831603139112832E83160313D6
:101D0400911611167508F1007408F0000800F4002B
:101D1400F201F301AC2E831203130817720874073F
:101D240084000A128A1500200A128A158600881770
:101D34000330F1009730F000F00B9E2EF10B9E2E35
:101D4400A32E8312031388130130F2070318F30A36
:101D54000030F3077208740784000A128A15002001
:101D64000A128A15003A031DB82EB92E8D2E0800CA
:101D740028308312031394008316031391018312F2
:101D840003134B08CF004C08D0004D08D1004E0877
:101D9400D20002300310CF0DD00DD10DD20DFF3E75
:101DA400031DCC2E5208F3005108F2005008F10034
:101DB4004F08F0000030F7003D30F6000930F50020
:101DC4000030F4000A128A1104200A128A157008DD
:101DD400FF3E83160313930094018715071608002A
:101DE40083120313081300300A128A15E8250A1215
:101DF4008A151430F4007930F300F30BFF2EF40B42
:101E0400FF2E042F30300A128A15E8250A128A158B
:101E14000630F4003030F300F30B0E2FF40B0E2FCA
:101E2400000030300A128A15E8250A128A15353066
:101E3400F300F30B1B2F30300A128A15E8250A121F
:101E44008A153530F300F30B252F38300A128A1522
:101E5400E8250A128A1510300A128A15E8250A1292
:101E64008A1501300A128A15E8250A128A150630E5
:101E74000A128A15E8250A128A150F300A128A15E1
:101E8400E8250A128A150800F601F31F4A2F4B2F82
:101E9400522FF209F309F20A0319F30AF601F60ABA
:101EA400F11F552F562F5B2FF009F109F00A031982
:101EB400F10A700871040319602F612F902FF50146
:101EC400F50A6F2F01300310F00DF10DFF3E031DD5
:101ED400652F0130F4007408F507F11F722F732F7A
:101EE400642F71087302031D792F70087202031C9A
:101EF4007C2F7D2F832F7008F2027108031CF303DB
:101F0400F30201300310F10CF00CFF3E031D842F8B
:101F14000130F502031D8F2F902F732F76080319BC
:101F2400942F952F9A2FF209F309F20A0319F30A51
:101F34007308F1007208F0000800F200DC2F8F3003
:101F4400831603138F05FE2F831603130F088F398F
:101F540010388F00FE2F831603130F088F39203893
:101F64008F00FE2F831603130F088F3910388F004C
:101F7400FE2F831603130F088F3940388F00FE2F6E
:101F8400831603130F088F3950388F00FE2F8316E2
:101F940003130F088F3960388F00FE2F70308316BB
:101FA40003138F04FE2F831603130F088F39603831
:101FB4008F00FE2F7208F000F1017108003A031936
:101FC400E42FD52F7008003A0319A12F013A031901
:101FD400A62F033A0319AD2F013A0319B42F073A78
:101FE4000319BB2F013A0319C22F033A0319C92F4E
:0C1FF400013A0319D02FD52F0F1408005C
:04400E00D4E0FFFFFC
:00000001FF
