:020000040000FA
:100000000A128A11F32F00308A000408840A82073A
:1000100000343034313432343334343435343634DB
:1000200037343834393420342034203420342034E8
:100030002034003441344C34453452345434413447
:1000400000344F344634463400344C3475347A34FA
:0E005000003458343A3400344F344E34003407
:1005880064008001840A0406031900340406C52A9D
:100598000A128A11E8220A128A1183160313111407
:1005A80008000A128A11E8220A128A118316031314
:1005B800111508000A128A11E8220A128A11700815
:1005C8008312031393000800831603131419ED2AEA
:1005D800EE2AE82A11081F39031DF32AF42AE82A0B
:1005E8000800831603178801890183160313850100
:1005F8008601870108138813831203138501860176
:1006080087018801080000300A128A111A230A1289
:100618008A1101300A128A111A230A128A110C301F
:100628000A128A111A230A128A110800F200831288
:10063800031308137208860088170630F10030305B
:10064800F000F00B252BF10B252B00008312031370
:1006580088130800F2008312031308177208860033
:1006680088170330F1009730F000F00B392BF10BAD
:10067800392B3E2B8312031388130800F5007303EC
:10068800031D472B482B542B75087F3EF400740834
:10069800F60076080A128A111A230A128A11652BA3
:1006A80002307306031D592B5A2B652B7508BF3E64
:1006B800F4007408F60076080A128A111A230A123E
:1006C8008A1108000A128A11E8220A128A1183166E
:1006D800031391150A128A11E8220A128A11831249
:1006E80003131308F200F3017208F4007308F5000D
:1006F8000A128A11E8220A128A1170037104031D72
:10070800862B872B8B2B8316031391128E2B831624
:100718000313911611167508F1007408F00008000B
:10072800F400F201F301B72B8312031308177208C0
:10073800740784000A128A1103200A128A1186009B
:1007480088170330F1009730F000F00BA92BF10B5C
:10075800A92BAE2B8312031388130130F207031859
:10076800F30A0030F3077208740784000A128A112A
:1007780003200A128A11003A031DC32BC42B982B9D
:100788000800283083120313940083160313910181
:10079800831203133308B7003408B8003508B900CA
:1007A8003608BA0002300310B70DB80DB90DBA0DEE
:1007B800FF3E031DD72B3A08F3003908F20038082A
:1007C800F1003708F0000030F7003D30F60009303E
:1007D800F5000030F4000A128A110B250A128A115A
:1007E8007008FF3E831603139300940187150716BC
:1007F800080083120313081300300A128A111A23FF
:100808000A128A111430F4007930F300F30B0A2C21
:10081800F40B0A2C0F2C30300A128A111A230A12F0
:100828008A110630F4003030F300F30B192CF40B66
:10083800192C000030300A128A111A230A128A1160
:100848003530F300F30B262C30300A128A111A23A4
:100858000A128A113530F300F30B302C38300A12A3
:100868008A111A230A128A1110300A128A111A23BD
:100878000A128A1101300A128A111A230A128A11DD
:1008880006300A128A111A230A128A110F300A1224
:100898008A111A230A128A110800F601F31F552C2F
:1008A800562C5D2CF209F309F20A0319F30AF60132
:1008B800F60AF11F602C612C662CF009F109F00A88
:1008C8000319F10A7008710403196B2C6C2C9B2C0A
:1008D800F501F50A7A2C01300310F00DF10DFF3EF9
:1008E800031D702C0130F4007408F507F11F7D2CEE
:1008F8007E2C6F2C71087302031D842C7008720201
:10090800031C872C882C8E2C7008F2027108031C9B
:10091800F303F30201300310F10CF00CFF3E031D4A
:100928008F2C0130F502031D9A2C9B2C7E2C760807
:1009380003199F2CA02CA52CF209F309F20A03191C
:10094800F30A7308F1007208F0000800F200E72CBF
:100958008F30831603138F05092D831603130F0891
:100968008F3910388F00092D831603130F088F391C
:1009780020388F00092D831603130F088F3910387C
:100988008F00092D831603130F088F3940388F0005
:10099800092D831603130F088F3950388F00092D3E
:1009A800831603130F088F3960388F00092D7030B4
:1009B800831603138F04092D831603130F088F3929
:1009C80060388F00092D7208F000F1017108003AB3
:1009D8000319EF2CE02C7008003A0319AC2C013AEB
:1009E8000319B12C033A0319B82C013A0319BF2C87
:1009F800073A0319C62C013A0319CD2C033A0319F7
:100A0800D42C013A0319DB2CE02C0F140800003019
:100A1800FC000030FB000030FA000030F9007308D9
:100A280072047104700403191A2D1B2D682DFD0121
:100A3800FD0A2B2D0130F8000310F00DF10DF20D19
:100A4800F30DF80B202D0130F8007808FD07F31F8F
:100A58002E2D2F2D1E2D0130F8000310F90DFA0D43
:100A6800FB0DFC0DF80B312D73087702031D462D85
:100A780072087602031D462D71087502031D462D66
:100A880070087402031C492D4A2D592D7008F40270
:100A98007108031C710FF5027208031C720FF6022D
:100AA8007308031C730FF702791401300310F30C59
:100AB800F20CF10CF00CFF3E031D5A2D0130FD0223
:100AC800031D672D682D2F2D7C08F3007B08F2008D
:100AD8007A08F1007908F0000800F601F11F752D79
:100AE800762D7D2DF009F109F00A0319F10AF601B6
:100AF800F60AF31F802D812D8A2DF209F309F20AD7
:100B08000319F30A0130F4007408F606F701F80136
:100B1800700871040319912D922DC92DF501F50A5C
:100B2800A02D01300310F00DF10DFF3E031D962D91
:100B38000130F4007408F507F11FA32DA42D952D9D
:100B480001300310F70DF80DFF3E031DA52D7108A8
:100B58007302031DB12D70087202031CB42DB52D4C
:100B6800BC2D7008F2027108031CF303F30277141A
:100B780001300310F10CF00CFF3E031DBD2D0130B8
:100B8800F502031DC82DC92DA42D76080319CD2DF6
:100B9800CE2DD32DF709F809F70A0319F80A7808B2
:100BA800F1007708F00008000A30F0000030F1008A
:100BB800831203133008F900FA017908F2007A0861
:100BC800F3000A128A1171250A128A117108831218
:100BD8000313A7007008A6000A30F0000030F100E7
:100BE8003008F900FA017908F2007A08F3000A12CD
:100BF8008A1151240A128A11710883120313A5005D
:100C08007008A400F301F30A04300A128A1142237F
:100C18000A128A11831203132608013E84000A125D
:100C28008A1103200A128A110A128A112E230A1223
:100C38008A11F301F30A05300A128A1142230A12B3
:100C48008A11831203132408013E84000A128A11B0
:100C580003200A128A110A128A112E230A128A11F3
:100C6800143083120313300203183B2E3C2E502EEF
:100C78000230F9007908F30001300A128A11422380
:100C88000A128A1112300A128A1194230A128A113E
:100C9800831203138515632E0230F9007908F300D7
:100CA80001300A128A1142230A128A110B300A12E1
:100CB8008A1194230A128A118312031385110800DA
:100CC80006300A128A11AA240A128A110A128A11F3
:100CD800F5220A128A110A128A11FD230A128A11B0
:100CE8000A128A1107230A128A1100308312031389
:100CF800B6000130B5008630B400A030B3000A1247
:100D08008A11C5230A128A11F301F30A0A300A125A
:100D18008A1142230A128A111D300A128A11942359
:100D28000A128A11F301F30A01300A128A114223C6
:100D38000A128A1121300A128A1194230A128A117E
:100D48000A128A11CC220A128A111130F0000030DE
:100D5800F1000A128A11DE220A128A110030F0000C
:100D6800F1000A128A1166230A128A117008831286
:100D78000313BB003B08B2000A128A11D5220A12DB
:100D88008A11823083120313BC00DD30BB00BB0B19
:100D9800CB2EBC0BCB2E0A128A11CC220A128A1136
:100DA8003130F0000030F1000A128A11DE220A12F6
:100DB8008A110030F000F1000A128A1166230A1223
:100DC8008A11700883120313BB003B08B0000A1293
:100DD8008A11D5220A128A11823083120313BC00A9
:100DE800DD30BB00BB0BF62EBC0BF62E0A128A11A7
:100DF80008270A128A110A128A11D8250A128A119A
:100E0800A42E0A128A1100286430F0000030F10084
:100E1800831203133208F900FA017908F2007A08FC
:100E2800F3000A128A1171250A128A1171088312B5
:100E38000313AF007008AE006430F0000030F1001A
:100E48003208F900FA017908F2007A08F3000A1268
:100E58008A1151240A128A11710883120313AD00F2
:100E68007008AC000A30F0000030F1002D08F300E3
:100E78002C08F2000A128A1171250A128A117108C7
:100E880083120313AB007008AA000A30F000003088
:100E9800F1002D08F3002C08F2000A128A115124DF
:100EA8000A128A11710883120313A9007008A80096
:100EB8000230F9007908F3000A300A128A11422335
:100EC8000A128A11831203132E08013E84000A12A3
:100ED8008A1103200A128A110A128A112E230A1271
:100EE8008A110230F9007908F3000B300A128A11CE
:100EF80042230A128A11831203132A08013E84002E
:100F08000A128A1103200A128A110A128A112E2340
:100F18000A128A110230F9007908F3000C300A121B
:100F28008A1142230A128A11831203132808013EE8
:100F380084000A128A1103200A128A110A128A11DD
:100F48002E230A128A113230831203133202031835
:100F5800AE2FAF2FD12F0230F9007908F3000E30F1
:100F68000A128A1142230A128A110E300A128A11B1
:100F780094230A128A11F301F30A0E300A128A1115
:100F880042230A128A1124300A128A1194230A125F
:100F98008A11831203130515F22FF301F30A0E3099
:100FA8000A128A1142230A128A110E300A128A1171
:100FB80094230A128A110230F9007908F3000E30DE
:100FC8000A128A1142230A128A1119300A128A1146
:100FD80094230A128A11831203130511080083133C
:100FE8002030840033300A128A11C4220A128A116E
:080FF80083010A128A11642E24
:04400E00D4E0FFFFFC
:00000001FF
