:020000040000FA
:060000000A128A11FC2F18
:100F0A0083160317880189018316031386010800D3
:100F1A0006300A128A119B270A128A110A128A11AA
:100F2A0085270A128A110A128A110028F200D82F7C
:100F3A008F30831603138F05FA2F831603130F08B6
:100F4A008F3910388F00FA2F831603130F088F3941
:100F5A0020388F00FA2F831603130F088F391038A1
:100F6A008F00FA2F831603130F088F3940388F002A
:100F7A00FA2F831603130F088F3950388F00FA2F70
:100F8A00831603130F088F3960388F00FA2F7030D9
:100F9A00831603138F04FA2F831603130F088F394E
:100FAA0060388F00FA2F7208F000F1017108003AD8
:100FBA000319E02FD12F7008003A03199D2F013A27
:100FCA000319A22F033A0319A92F013A0319B02FC3
:100FDA00073A0319B72F013A0319BE2F033A031927
:100FEA00C52F013A0319CC2FD12F0F140800830102
:060FFA000A128A118D2F7E
:04400E00D4E0FFFFFC
:00000001FF
