:020000040000FA
:060000000A128A11EB2F29
:1000100083160313981C0D280E2808288312031337
:100020006208D7006108D6006008D5005F08D400D8
:100030000A128A1597230A128A118312031354088D
:10004000990008006430F0000030F10083120313BF
:100050006B08F900FA017908F2007A08F3000A1235
:100060008A1530230A128A11710883160313AD0012
:100070007008AC006430F0000030F100831203130C
:100080006B08F900FA017908F2007A08F3000A1205
:100090008A1510220A128A11710883160313AB0005
:1000A0007008AA000A30F0000030F1002B08F300BD
:1000B0002A08F2000A128A1530230A128A117108DE
:1000C00083160313A9007008A8000A30F00000305E
:1000D000F1002B08F3002A08F2000A128A151022F8
:1000E0000A128A11710883160313A7007008A6006C
:1000F000F301F30A14300A128A1585200A128A11B4
:10010000831603132C08013E84000A128A1500206E
:100110000A128A110A128A1558200A128A11F3014A
:10012000F30A15300A128A1585200A128A118316DD
:1001300003132808013E84000A128A1500200A12BF
:100140008A110A128A1558200A128A11F301F30A39
:1001500016300A128A1585200A128A118316031393
:100160002608013E84000A128A1500200A128A110C
:100170000A128A1558200A128A1133308312031387
:100180006B02031CC428C528D9280230F90079085D
:10019000F30010300A128A1585200A128A111230D3
:1001A0000A128A15FE200A128A11831203130516F9
:1001B000EC280230F9007908F30010300A128A1591
:1001C00085200A128A110B300A128A15FE200A12A3
:1001D0008A1183120313051208006430F000003006
:1001E000F100831203136E08F900FA017908F20096
:1001F0007A08F3000A128A1530230A128A1171084C
:1002000083160313B7007008B6006430F0000030A6
:10021000F100831203136E08F900FA017908F20065
:100220007A08F3000A128A1510220A128A1171083C
:1002300083120313E9007008E8000A30F000003070
:10024000F1006908F3006808F2000A128A153023E9
:100250000A128A11710883160313B5007008B400DE
:100260000A30F0000030F100831203136908F30034
:100270006808F2000A128A1510220A128A117108FF
:1002800083160313B3007008B2000230F900790836
:10029000F30001300A128A1585200A128A1183168A
:1002A00003133608013E84000A128A1500200A1240
:1002B0008A110A128A1558200A128A110230F9008E
:1002C0007908F30002300A128A1585200A128A1171
:1002D000831603133408013E84000A128A15002095
:1002E0000A128A110A128A1558200A128A1102303B
:1002F000F9007908F30003300A128A1585200A12E2
:100300008A11831603133208013E84000A128A15EB
:1003100000200A128A110A128A1558200A128A111C
:100320003230831203136E02031897299829BA29D1
:100330000230F9007908F30004300A128A1585208A
:100340000A128A110E300A128A15FE200A128A1128
:10035000F301F30A05300A128A1585200A128A1160
:1003600039300A128A15FE200A128A1183120313E9
:100370000515DB29F301F30A05300A128A158520D9
:100380000A128A110F300A128A15FE200A128A11E7
:100390000230F9007908F30004300A128A1585202A
:1003A0000A128A112F300A128A15FE200A128A11A7
:1003B000831203130511080006300A128A156922F8
:1003C0000A128A110A168A11C7270A128A110A12FA
:1003D0008A1567210A128A110A168A11D9270A1268
:1003E0008A110A128A156C200A128A1100308312AF
:1003F0000313A3000130A2008630A100A030A000AA
:100400000A128A152F210A128A11F301F30A013008
:100410000A128A1585200A128A112A300A128A15B0
:10042000FE200A128A11F301F30A08300A128A1513
:1004300085200A128A1133300A128A15FE200A1208
:100440008A11F301F30A0C300A128A1585200A1268
:100450008A113F300A128A15FE200A128A11F3010E
:10046000F30A0F300A128A1585200A128A111F30EA
:100470000A128A15FE200A128A11F301F30A1830B3
:100480000A128A1585200A128A1125300A128A1545
:10049000FE200A128A11023083120313E40064085A
:1004A000F3001A300A128A1585200A128A11DF30E9
:1004B0000A128A1558200A128A1102308312031375
:1004C000E4006408F3001B300A128A1585200A1222
:1004D0008A1137300A128A15FE200A128A11F30196
:1004E000F30A1D300A128A1585200A128A11193062
:1004F0000A128A15FE200A128A110230831203138F
:10050000E4006408F3001F300A128A1585200A12DD
:100510008A1134300A128A15FE200A128A11F30158
:10052000F30A23300A128A1585200A128A113C30F8
:100530000A128A15FE200A128A11F301F30A2630E4
:100540000A128A1585200A128A1136300A128A1573
:10055000FE200A128A110A168A119A270A128A1193
:100560001130F0000030F1000A168A11AC270A128F
:100570008A110030F000F1000A128A15D0200A1208
:100580008A11700883120313E4006408EE000A164F
:100590008A11A3270A128A11823083120313E500FD
:1005A000DD30E400E40BD22AE50BD22A0A168A11C8
:1005B0009A270A128A112130F0000030F1000A1641
:1005C0008A11AC270A128A110030F000F1000A12D9
:1005D0008A15D0200A128A11700883120313E400CE
:1005E0006408ED000A168A11A3270A128A118230C4
:1005F00083120313E500DD30E400E40BFD2AE50B74
:10060000FD2A0A168A119A270A128A113130F0003F
:100610000030F1000A168A11AC270A128A11003044
:10062000F000F1000A128A15D0200A128A1170080F
:1006300083120313E4006408EC000A168A11A3274E
:100640000A128A11823083120313E500DD30E400C0
:10065000E40B282BE50B282B0A168A119A270A127D
:100660008A114130F0000030F1000A168A11AC27DF
:100670000A128A110030F000F1000A128A15D02007
:100680000A128A11700883120313E4006408EB0055
:100690000A168A11A3270A128A11823083120313C1
:1006A000E500DD30E400E40B532BE50B532B0A1679
:1006B0008A119A270A128A115130F0000030F10095
:1006C0000A168A11AC270A128A110030F000F100D4
:1006D0000A128A15D0200A128A1170088312031395
:1006E000E4006408EF000A168A11A3270A128A118F
:1006F000823083120313E500DD30E400E40B7E2B2F
:10070000E50B7E2B0A128A11ED200A128A110A12B9
:100710008A15BB210A128A110A128A1513240A1299
:100720008A110A128A1122200A128A110A128A15C3
:100730005B250A128A110A168A11B6270A128A1133
:10074000831203136B08E400E501E601E701670883
:10075000F3006608F2006508F1006408F00000305C
:100760000A128A15A1240A128A117308831203132C
:10077000E2007208E1007108E0007008DF000A1270
:100780008A1108200A128A11033083120313E5002C
:100790009730E400E40BCA2BE50BCA2B831203133A
:1007A0006C08E400E501E601E7016708F30066086C
:1007B000F2006508F1006408F00000300A128A15A2
:1007C000A1240A128A11730883120313E20072082B
:1007D000E1007108E0007008DF000A128A110820A9
:1007E0000A128A11033083120313E5009730E400E4
:1007F000E40BF82BE50BF82B831203136E08E400CF
:10080000E501E601E7016708F3006608F200650804
:10081000F1006408F00000300A128A15A1240A12BF
:100820008A11730883120313E2007208E100710851
:10083000E0007008DF000A128A1108200A128A11EB
:10084000033083120313E5009730E400E40B262CF9
:10085000E50B262C831203136D08E400E501E60185
:10086000E7016708F3006608F2006508F100640814
:10087000F00000300A128A15A1240A128A117308A6
:1008800083120313E2007208E1007108E0007008AF
:10089000DF000A128A1108200A128A11033083121B
:1008A0000313E5009730E400E40B542CE50B542CC3
:1008B000831203136A08E400E501E601E701670813
:1008C000F3006608F2006508F1006408F0000030EB
:1008D0000A128A15A1240A128A11730883120313BB
:1008E000E2007208E1007108E0007008DF000A12FF
:1008F0008A1108200A128A11033083120313E500BB
:100900009730E400E40B822CE50B822CAB2A0A1210
:100910008A1100288312031323088039A8002808AD
:10092000AD002308A8002807A9002908B300A21FCA
:100930009A2C9B2C9C2C331433080319A02CA12C2B
:10094000B02C330A031DA52CA62CAE2C0030A3001E
:100950000030A2000030A1000030A000A217B82C87
:100960000030A3000030A2000030A1000030A00041
:1009700027088039A8002808AD062708A8002807FE
:10098000A9002908B200A61FC62CC72CC82C3214F7
:1009900032080319CC2CCD2CDC2C320A031DD12CAF
:1009A000D22CDA2C0030A7000030A6000030A500C1
:1009B0000030A400A617E42C0030A7000030A600E9
:1009C0000030A5000030A40032080319E82CE92CFF
:1009D000EE2C3308031DED2CEE2CF72C0030A30079
:1009E0000030A2000030A1000030A000EA2F200853
:1009F000A8002808F00026080A128A15A9200A1261
:100A00008A11710883120313B9007008B8003808FE
:100A1000A800A901AA01AB012B08B1002A08B00067
:100A20002908AF002808AE003908A800A901AA01CA
:100A3000AB012B08B7002A08B6002908B500280822
:100A4000B4002108A8002808F00025080A128A1519
:100A5000A9200A128A11710883120313B9007008C1
:100A6000B8003808A800A901AA01AB012808AE0700
:100A7000290803110318013E03193F2DAF072A0867
:100A800003110318013E0319462DB0072B0803116B
:100A90000318013E03194D2DB1073908A800A9011B
:100AA000AA01AB012808B407290803110318013E65
:100AB00003195B2DB5072A0803110318013E03191A
:100AC000622DB6072B0803110318013E0319692D87
:100AD000B7072208A8002808F00024080A128A157F
:100AE000A9200A128A11710883120313B900700831
:100AF000B8003808A800A901AA01AB012808AE0770
:100B0000290803110318013E0319872DAF072A088E
:100B100003110318013E03198E2DB0072B08031192
:100B20000318013E0319952DB1073908A800A90142
:100B3000AA01AB012808B407290803110318013ED4
:100B40000319A32DB5072A0803110318013E031941
:100B5000AA2DB6072B0803110318013E0319B12D66
:100B6000B7070830A8000310AE0DAF0DB00DB10DE2
:100B7000A80BB32D2108A8002808F00024080A12A9
:100B80008A15A9200A128A11710883120313B90069
:100B90007008B8003808A8003908A900AA01AB01FC
:100BA0002808AE07290803110318013E0319D92D9F
:100BB000AF072A0803110318013E0319E02DB007FF
:100BC0002B0803110318013E0319E72DB107200874
:100BD000A8002808F00025080A128A15A9200A1280
:100BE0008A11710883120313B9007008B80038081D
:100BF000A8003908A900AA01AB012808AE072908F6
:100C000003110318013E0319062EAF072A0803112A
:100C10000318013E03190D2EB0072B08031103180A
:100C2000013E0319142EB1070830A8000310AE0DC1
:100C3000AF0DB00DB10DA80B162E2008A800280886
:100C4000F00024080A128A15A9200A128A117108D4
:100C500083120313B9007008B8003808A8003908D7
:100C6000A900AA01AB012808AE072908031103183F
:100C7000013E03193C2EAF072A0803110318013E59
:100C80000319432EB0072B0803110318013E031963
:100C90004A2EB1072108A8002808F00026080A12E9
:100CA0008A15A9200A128A11710883120313B90048
:100CB0007008B8003808A8003908A900AA01AB01DB
:100CC0002808B407290803110318013E0319692EE7
:100CD000B5072A0803110318013E0319702EB60741
:100CE0002B0803110318013E0319772EB7072208BA
:100CF000A8002808F00025080A128A15A9200A125F
:100D00008A11710883120313B9007008B8003808FB
:100D1000A8003908A900AA01AB012808B4072908CE
:100D200003110318013E0319962EB5072A08031173
:100D30000318013E03199D2EB6072B080311031853
:100D4000013E0319A42EB7072208A8002808F000C6
:100D500026080A128A15A9200A128A11710883121C
:100D60000313B9007008B8003808A8003908A900B2
:100D7000AA01AB0108300310A80DA90DAA0DAB0DF7
:100D8000FF3E031DBB2E2808B407290803110318D2
:100D9000013E0319CC2EB5072A0803110318013EA2
:100DA0000319D32EB6072B0803110318013E0319AC
:100DB000DA2EB7072E08A8002F08A9003008AA00CD
:100DC0003108AB0018300310AB0CAA0CA90CA80C0E
:100DD000FF3E031DE32E2808B4072908031103185A
:100DE000013E0319F42EB5072A0803110318013E2A
:100DF0000319FB2EB6072B0803110318013E031934
:100E0000022FB7070830A8000310AE0DAF0DB00DCC
:100E1000B10DA80B042F33083207A800A901A90DB2
:100E20002808823EB80029080318013EFF3EB90099
:100E3000362F0130A8000310B40DB50DB60DB70D57
:100E4000A80B1B2FB11F252F262F272F341401305D
:100E5000A8000310AE0DAF0DB00DB10DA80B292FDA
:100E6000FF30B8070318B90AFF30B907B61F392F8A
:100E70003A2F192FB201B11F3E2F3F2F5B2FFF30AA
:100E80002E05A800FF302F05A900FF303005AA006D
:100E90007F303105AB002B082A04290428040319EC
:100EA000522F532F562FB201B20A5B2F341C592FE9
:100EB0005A2F5B2F532F320803195F2F602F912F6A
:100EC0000130B407003003180130B50700300318B3
:100ED0000130B607003003180130B707371C712FF7
:100EE000722F912F3408A8003508A9003608AA00EF
:100EF0003708AB000130AC002B0DAB0CAA0CA90CD1
:100F0000A80CAC0B7C2F2B08B7002A08B6002908C8
:100F1000B5002808B4000130B8070318B90A00303A
:100F2000B9073908803AFF0080307F02031D9A2FED
:100F3000FF303802031C9D2F9E2FA92F7F30831274
:100F40000313B7008030B6000030B5000030B400A5
:100F5000DE2F831203133908803AFF0080307F02AE
:100F6000031DB42F013038020318B72FB82FC42F38
:100F7000003083120313B7000030B6000030B50014
:100F80000030B400AD01DE2F831203133808A8002F
:100F90002808B300FF30B405FF30B5057F30B60533
:100FA0000030B705331CD52FD62FD72FB6173308EF
:100FB000A8000310280CA9002908B7002D08A800D4
:100FC0002808B7043708A3003608A2003508A10096
:100FD0003408A000080083136830840070300A16BB
:100FE0008A1192270A128A11A0308400B8300A169A
:100FF0008A1192270A128A1183010A128A11DC29A6
:1010000008308A000408840A8207003430343134FE
:101010003234333434343534363437343834393484
:10102000203420342034203420342034003441341F
:101030004C344534523454344134003448346F34E1
:10104000723461343A340034483475346D346F345A
:101050003A340034543465346D343A3400344C340A
:1010600075347A343A3400344F34463446340034DC
:1010700058343A3400344334433400344F344E341B
:10108000003450345034003463346D3400342B3425
:1010900000342D34003483160313141950285128BA
:1010A0004B2811081F39031D562857284B280800C4
:1010B000F2008312031308177208860088170330A2
:1010C000F1009730F000F00B6328F10B63286828DB
:1010D000831203138813080083160313981618123B
:1010E0008312031398178316031318138312031321
:1010F000181619308316031399009A0183160317E3
:1011000087118316031318150800F5007303031DD8
:101110008A288B28972875087F3EF4007408F6000B
:1011200076080A168A11EC270A128A15A8280230B6
:101130007306031D9C289D28A8287508BF3EF4004F
:101140007408F60076080A168A11EC270A128A1526
:101150000800F800F401F5017008F200F3017208CC
:10116000F6007308F700781CB628B728BD28760863
:10117000F4070318F50A7708F50701300310F60D98
:10118000F70DFF3E031DBE280310F80C7808031D61
:10119000CA28CB28B3287508F1007408F0000800AD
:1011A0000A128A154B200A128A1583160313911509
:1011B0000A128A154B200A128A1583120313130888
:1011C000F200F3017208F4007308F5000A128A15A0
:1011D0004B200A128A1570037104031DF028F128B0
:1011E000F528831603139112F8288316031391161A
:1011F00011167508F1007408F0000800F400F201FF
:10120000F30121298312031308177208740784005D
:101210000A128A1500200A128A15860088170330E0
:10122000F1009730F000F00B1329F10B1329182966
:101230008312031388130130F2070318F30A0030F6
:10124000F3077208740784000A128A1500200A1234
:101250008A15003A031D2D292E290229080028305D
:101260008312031394008316031391018312031353
:101270002008A4002108A5002208A6002308A70032
:1012800002300310A40DA50DA60DA70DFF3E031DF2
:1012900041292708F3002608F2002508F100240858
:1012A000F0000030F7003D30F6000930F500003066
:1012B000F4000A128A15CA220A128A157008FF3E23
:1012C00083160313930094018715071608008312F1
:1012D0000313081300300A168A11EC270A128A1524
:1012E0001430F4007930F300F30B7429F40B7429F3
:1012F000792930300A168A11EC270A128A1506302D
:10130000F4003030F300F30B8329F40B8329000041
:1013100030300A168A11EC270A128A153530F3008C
:10132000F30B902930300A168A11EC270A128A151D
:101330003530F300F30B9A2938300A168A11EC275E
:101340000A128A1510300A168A11EC270A128A1519
:1013500001300A168A11EC270A128A1506300A167D
:101360008A11EC270A128A150F300A168A11EC2707
:101370000A128A150800831203136D08031DC12980
:10138000C229E6290230F7007708F30026300A1256
:101390008A1585200A128A1510300A128A15FE2035
:1013A0000A128A158312031385100230F70077089A
:1013B000F30027300A128A1585200A128A15443054
:1013C0000A128A15FE200A128A150F2A5A306D0653
:1013D000031DEB29EC290F2A0230F7007708F300F0
:1013E00027300A128A1585200A128A1510300A122F
:1013F0008A15FE200A128A158312031385140230FF
:10140000F7007708F30026300A128A1585200A12A1
:101410008A1542300A128A15FE200A128A1508001F
:10142000F601F31F142A152A1C2AF209F309F20AFD
:101430000319F30AF601F60AF11F1F2A202A252AAA
:10144000F009F109F00A0319F10A7008710403198F
:101450002A2A2B2A5A2AF501F50A392A01300310C3
:10146000F00DF10DFF3E031D2F2A0130F40074082A
:10147000F507F11F3C2A3D2A2E2A71087302031D2D
:10148000432A70087202031C462A472A4D2A700814
:10149000F2027108031CF303F30201300310F10C94
:1014A000F00CFF3E031D4E2A0130F502031D592AA0
:1014B0005A2A3D2A760803195E2A5F2A642AF2090D
:1014C000F309F20A0319F30A7308F1007208F00035
:1014D0000800F200A62A8F30831603138F05C82A4E
:1014E000831603130F088F3910388F00C82A83160C
:1014F00003130F088F3920388F00C82A831603136F
:101500000F088F3910388F00C82A831603130F086D
:101510008F3940388F00C82A831603130F088F397C
:1015200050388F00C82A831603130F088F3960388C
:101530008F00C82A7030831603138F04C82A8316BD
:1015400003130F088F3960388F00C82A7208F00023
:10155000F1017108003A0319AE2A9F2A7008003A77
:1015600003196B2A013A0319702A033A0319772ADF
:10157000013A03197E2A073A0319852A013A031909
:101580008C2A033A0319932A013A03199A2A9F2AAB
:101590000F1408000030FC000030FB000030FA009F
:1015A0000030F90073087204710470040319D92A19
:1015B000DA2A272BFD01FD0AEA2A0130F800031080
:1015C000F00DF10DF20DF30DF80BDF2A0130F800EC
:1015D0007808FD07F31FED2AEE2ADD2A0130F80016
:1015E0000310F90DFA0DFB0DFC0DF80BF02A730832
:1015F0007702031D052B72087602031D052B710867
:101600007502031D052B70087402031C082B092B9F
:10161000182B7008F4027108031C710FF502720890
:10162000031C720FF6027308031C730FF702791480
:1016300001300310F30CF20CF10CF00CFF3E031D13
:10164000192B0130FD02031D262B272BEE2A7C08C7
:10165000F3007B08F2007A08F1007908F000080036
:10166000F601F11F342B352B3C2BF009F109F00A60
:101670000319F10AF601F60AF31F3F2B402B492B01
:10168000F209F309F20A0319F30A0130F4007408AD
:10169000F606F701F801700871040319502B512B5D
:1016A000882BF501F50A5F2B01300310F00DF10DC9
:1016B000FF3E031D552B0130F4007408F507F11FA0
:1016C000622B632B542B01300310F70DF80DFF3EF6
:1016D000031D642B71087302031D702B70087202C6
:1016E000031C732B742B7B2B7008F2027108031CF4
:1016F000F303F302771401300310F10CF00CFF3EFA
:10170000031D7C2B0130F502031D872B882B632BD7
:10171000760803198C2B8D2B922BF709F809F70A01
:101720000319F80A7808F1007708F00008000310A0
:1017300083120313560D570DD8005808DE005E08BB
:10174000031DA32BA42BAD2B0030D7000030D600F7
:101750000030D5000030D400122C5408D8005508B1
:10176000D9005608DA005708DB001F300310DB0CE5
:10177000DA0CD90CD80CFF3E031DB62B5808DC0040
:101780005C08DD00D617FF30D405FF30D505FF30EB
:10179000D6050030D7059630DE02DE1FD02BD12BC8
:1017A000EB2B5E08803A973E0318D72BD82BD92B0A
:1017B000A42B01300310D70CD60CD50CD40CFF3E53
:1017C000031DDA2B0130D8005808DE07031DE92B72
:1017D000EA2BD92B022C20305E02031CF02BF12BBC
:1017E000FD2BA42B0130D8000310D40DD50DD60D40
:1017F000D70DD80BF42B0130DE025E08031D012C3F
:10180000022CF22B5D080319062C072C122CD4098C
:10181000D509D609D709D40A0319D50A0319D60A56
:101820000319D70A08000A30F0000030F1008312D3
:1018300003136C08F900FA017908F2007A08F30042
:101840000A128A1530230A128A15710883160313A7
:10185000B1007008B0000A30F0000030F1008312CF
:1018600003136C08F900FA017908F2007A08F30012
:101870000A128A1510220A128A1571088316031398
:10188000AF007008AE00F301F30A0A300A128A159D
:1018900085200A128A15831603133008013E84003E
:1018A0000A128A1500200A128A150A128A1558206F
:1018B0000A128A15F301F30A0B300A128A158520E1
:1018C0000A128A15831603132E08013E84000A1299
:1018D0008A1500200A128A150A128A1558200A123F
:1018E0008A150F30831203136C020318782C792C9D
:1018F0008D2C0230F9007908F30008300A128A159D
:1019000085200A128A1512300A128A15FE200A1240
:101910008A15831203138515A02C0230F90079086B
:10192000F30008300A128A1585200A128A150B3036
:101930000A128A15FE200A128A15831203138511D2
:101940000800F80078080319A62CA72CBB2CF31F5D
:10195000AA2CAB2CBB2C7009FA007109FB00720990
:10196000FC007309FD00FA0A0319FB0A0319FC0ABB
:101970000319FD0AC32C7308FD007208FC007108EE
:10198000FB007008FA007308720471047004031DF0
:10199000CA2CCB2CD42C0030F3000030F2000030E5
:1019A000F1000030F0005A2D9630F4007408F90070
:1019B000E62C0130F4007408F90701300310FD0C27
:1019C000FC0CFB0CFA0CFF3E031DDE2CFE307D05EB
:1019D000031DEB2CEC2CD92C082D0130F4007408DD
:1019E000F9070130FA07003003180130FB07003017
:1019F00003180130FC07003003180130FD070130E7
:101A00000310FD0CFC0CFB0CFA0CFF3E031D002D1B
:101A1000FF307D05031D0D2D0E2DED2C1A2D0130EF
:101A2000F9020130F4000310FA0DFB0DFC0DFD0D61
:101A3000F40B132DFC1B1D2D1E2D242D02307902BD
:101A40000318232D242D0F2D7918272D282D302D07
:101A5000FF30FA05FF30FB057F30FC05FF30FD0548
:101A60000310F90C7908F400F501F601F7011830BC
:101A70000310F40DF50DF60DF70DFF3E031D382D87
:101A80007408FA047508FB047608FC047708FD0462
:101A9000780803194C2D4D2D522DF31F502D512D2B
:101AA000522DFD177D08F3007C08F2007B08F10041
:101AB0007A08F0000800831203136F08DF00E001CA
:101AC000E101E2016208F3006108F2006008F10040
:101AD0005F08F00001300A128A15A1240A128A1543
:101AE000730883120313A7007208A6007108A500EB
:101AF0007008A4004030A300A030A2000030A10074
:101B00000030A0000A128A118A240A128A15831250
:101B100003132308C1002208C0002108BF002008C9
:101B2000BE004330BD007F30BC000030BB00003041
:101B3000BA000A128A1523260A128A158312031381
:101B40003D08D7003C08D6003B08D5003A08D40031
:101B50000A128A1597230A128A158312031354084E
:101B6000E3006308EA000A30F0000030F1006A0880
:101B7000DF00E0015F08F2006008F3000A128A1536
:101B800030230A128A15710883160313A500700802
:101B9000A4000A30F0000030F100831203136A0839
:101BA000DF00E0015F08F2006008F3000A128A1506
:101BB00010220A128A15710883160313A3007008F5
:101BC000A200023083120313DF005F08F300183015
:101BD0000A128A1585200A128A158316031324080F
:101BE000013E84000A128A1500200A128A150A1280
:101BF0008A1558200A128A15023083120313DF0057
:101C00005F08F30019300A128A1585200A128A1516
:101C1000831603132208013E84000A128A1500204D
:101C20000A128A150A128A1558200A128A151F30BC
:101C3000831203136A02031C1E2E1F2E212E8516EB
:101C4000222E851208008312031341088039C20036
:101C50004208CB004108C2004207C3004308D2003B
:101C6000C01F332E342E352E521452080319392E2C
:101C70003A2E4A2E520A031D3E2E3F2E472E00308A
:101C8000C1000030C0000030BF000030BE00C017EF
:101C9000C101522E0030C1000030C0000030BF0032
:101CA0000030BE003D088039C2004208CB063D0826
:101CB000C2004207C3004308D300BC1F602E612E40
:101CC000622E531453080319662E672E772E530A7B
:101CD000031D6B2E6C2E742E0030BD000030BC0036
:101CE0000030BB000030BA00BC17BD017F2E0030B1
:101CF000BD000030BC000030BB000030BA003D0821
:101D00003C043B043A04031D862E872EA02E00308F
:101D1000C1000030C0000030BF000030BE00803085
:101D2000C0047F30C1044B08C2004208C10441080E
:101D3000BD004008BC003F08BB003E08BA00FF2FB2
:101D40005208031DA42EA52EAE2E0030BD0000307B
:101D5000BC000030BB000030BA00FF2F5208C200A8
:101D6000C3014308C50053084202C400031CC50355
:101D700044087F3ECC0045080318013E003ECD00DC
:101D80004108CA004008C9003F08C8003E08C70013
:101D90000030C1000030C0000030BF000030BE0085
:101DA0000030D1000030D0000030CF000030CE0035
:101DB000D301242F53080319DE2EDF2EFF2E01300E
:101DC000C2000310C70DC80DC90DCA0DC20BE12E0C
:101DD0000130C2000310BE0DBF0DC00DC10DC20BFE
:101DE000EA2ED11FF42EF52EF62E3E140130C2003D
:101DF0000310CE0DCF0DD00DD10DC20BF82E3D0826
:101E00004A02031D0D2F3C084902031D0D2F3B08FC
:101E10004802031D0D2F3A084702031C102F112FF3
:101E2000202F51173A08C7023B08031C3B0FC8027A
:101E30003C08031C3C0FC9023D08031C3D0FCA02AD
:101E40000130C2004208D3071A305302031C292F65
:101E50002A2FDA2E4A084904480447040319312F6F
:101E6000322F512F4E14512F0130C2000310BE0DDE
:101E7000BF0DC00DC10DC20B362FD11F402F412FFA
:101E8000422F3E140130C2000310CE0DCF0DD00DF5
:101E9000D10DC20B442FFF30CC070318CD0AFF3001
:101EA000CD07C01F542F552F342FD301D11F592FC9
:101EB0005A2F762FFF304E05C200FF304F05C3006A
:101EC000FF305005C4007F305105C500450844046B
:101ED0004304420403196D2F6E2F712FD301D30ACF
:101EE000762F3E1C742F752F762F6E2F53080319F3
:101EF0007A2F7B2FAC2F0130BE0700300318013042
:101F0000BF07003003180130C0070030031801304C
:101F1000C107411C8C2F8D2FAC2F3E08C2003F08FB
:101F2000C3004008C4004108C5000130C600450D8B
:101F3000C50CC40CC30CC20CC60B972F4508C100BE
:101F40004408C0004308BF004208BE000130CC076F
:101F50000318CD0A0030CD074D08803AFF008030CD
:101F60007F02031DB52FFF304C02031CB82FB92F81
:101F7000C72FFF3083120313CC000030CD00003098
:101F8000C1000030C0000030BF000030BE0083122E
:101F900003134D08803AFF0080307F02031DD22FCB
:101FA00001304C020318D52FD62FE32F83120313D1
:101FB000CC01CD010030C1000030C0000030BF00B6
:101FC0000030BE00CB01831203134C08C20042084C
:101FD000D200521CEC2FED2FEF2FC017F32F7F30C4
:101FE000C2004208C0055208C2000310420CC300E0
:101FF0004308C1004B08C2004208C104972E0800E4
:102F240064008001840A0406031900340406932F04
:102F34000A128A154B200A168A11831603131114D8
:102F440008000A128A154B200A168A1183160313E5
:102F5400111508000A128A154B200A168A117008E6
:102F64008312031393000800831203130813183009
:102F740086008817C730F000BF2FF00BBE2FC22F7A
:102F8400C32F8312031388130800831603178801C1
:102F940089018316031385018601870108138813A9
:102FA400831203138501860187018801080000301C
:102FB4000A168A11EC270A168A1101300A168A1198
:102FC400EC270A168A110C300A168A11EC270A1605
:102FD4008A110800F2008312031308137208860092
:102FE40088170630F1003030F000F00BF72FF10BAA
:0C2FF400F72F000083120313881308005D
:04400E00D4E0FFFFFC
:00000001FF
