:020000040000FA
:060000000A128A11EB2F29
:10001400831203136B08803AFF0080307F02031DB4
:10002400152865306A02031C182819283D28023057
:10003400FC007C08F30001300A128A15AE210A1272
:100044008A1115300A128A1527220A128A110230DF
:10005400FC007C08F30001300A128A15AE210A1252
:100064008A1121300A128A1527220A128A11831250
:100074000313851560280230FC007C08F30001306E
:100084000A128A15AE210A128A1116300A128A152A
:1000940027220A128A110230FC007C08F300013086
:1000A4000A128A15AE210A128A1119300A128A1507
:1000B40027220A128A118312031385116908803AD0
:1000C400FF0080307F02031D692833306802031C5F
:1000D4006C286D2891280230FC007C08F30006305F
:1000E4000A128A15AE210A128A1116300A128A15CA
:1000F40027220A128A110230FC007C08F300063021
:100104000A128A15AE210A128A1119300A128A15A6
:1001140027220A128A11831203130512B42802300B
:10012400FC007C08F30006300A128A15AE210A127C
:100134008A1115300A128A1527220A128A110230EE
:10014400FC007C08F30006300A128A15AE210A125C
:100154008A1121300A128A1527220A128A1183125F
:10016400031305164130F300F030F2000030F100C3
:100174000030F000831603132308F7002208F6006A
:100184002108F5002008F4000A128A1528250A120D
:100194008A110318CE28CF28F3280230FC007C08EB
:1001A400F3000A300A128A15AE210A128A11153098
:1001B4000A128A1527220A128A110230FC007C08CE
:1001C400F3000A300A128A15AE210A128A1121306C
:1001D4000A128A1527220A128A118312031305159B
:1001E40016290230FC007C08F3000A300A128A1532
:1001F400AE210A128A1115300A128A1527220A1210
:100204008A110230FC007C08F3000A300A128A15B5
:10021400AE210A128A1119300A128A1527220A12EB
:100224008A118312031305150800831203136E0841
:10023400D400D5015408EA005508EB006430F000FE
:100244000030F1006B08F3006A08F2000A128A1504
:1002540045240A128A11710883160313B500700825
:10026400B4006430F0000030F100831203136B0813
:10027400F3006A08F2000A128A1525230A128A1169
:10028400710883120313E7007008E6000A30F000D7
:100294000030F1006708F3006608F2000A128A15BC
:1002A40045240A128A11710883160313B3007008D7
:1002B400B2000A30F0000030F10083120313670823
:1002C400F3006608F2000A128A1525230A128A111D
:1002D400710883160313B1007008B000831203136E
:1002E4006D08D400D5015408E8005508E9006430CD
:1002F400F0000030F1006908F3006808F2000A1207
:100304008A1545240A128A11710883160313AF0053
:100314007008AE006430F0000030F1008312031363
:100324006908F3006808F2000A128A1525230A12E4
:100334008A11710883120313E5007008E4000A307F
:10034400F0000030F1006508F3006408F2000A12BE
:100354008A1545240A128A11710883160313AD0005
:100364007008AC000A30F0000030F100831203136F
:100374006508F3006408F2000A128A1525230A129C
:100384008A11710883160313AB007008AA00433066
:1003940083120313BD007F30BC000030BB0000306B
:1003A400BA004030A300A030A2000030A100003009
:1003B400A0006C08D400D501D601D7015708F3007A
:1003C4005608F2005508F1005408F00001300A12F2
:1003D4008A15CA250A128A11730883120313A70007
:1003E4007208A6007108A5007008A4000A128A11F8
:1003F4008A240A128A11831203132308C1002208D3
:10040400C0002108BF002008BE000A128A11AD22D4
:100414000A128A11831203133D0883160313A300DF
:10042400831203133C0883160313A20083120313DD
:100434003B0883160313A100831203133A0883169F
:100444000313A000230883120313A70083160313C6
:10045400220883120313A6008316031321088312B0
:100464000313A50083160313200883120313A400A7
:100474004230A300C830A2000030A1000030A00028
:100484000A128A118A240A128A1183120313230876
:10049400BD002208BC002108BB002008BA000A12D3
:1004A4008A15AC240A128A11831203133B08E30051
:1004B4003A08E2006430F0000030F1006308F30011
:1004C4006208F2000A128A1545240A128A11710878
:1004D40083160313A9007008A8006430F0000030EC
:1004E400F100831203136308F3006208F2000A1296
:1004F4008A1525230A128A11710883120313E10055
:100504007008E0000A30F0000030F1006108F300E8
:100514006008F2000A128A1545240A128A11710829
:1005240083160313A7007008A6000A30F0000030F9
:10053400F100831203136108F3006008F2000A1249
:100544008A1525230A128A11710883160313A5003C
:100554007008A40008008312031341088039C20004
:100564004208CB004108C2004207C3004308D2003E
:10057400C01FBD2ABE2ABF2A521452080319C32A17
:10058400C42AD42A520A031DC82AC92AD12A0030EF
:10059400C1000030C0000030BF000030BE00C017F2
:1005A400C101DC2A0030C1000030C0000030BF00AF
:1005B4000030BE003D088039C2004208CB063D0829
:1005C400C2004207C3004308D300BC1FEA2AEB2A37
:1005D400EC2A531453080319F02AF12A012B530A65
:1005E400031DF52AF62AFE2A0030BD000030BC00A7
:1005F4000030BB000030BA00BC17BD01092B00302D
:10060400BD000030BC000030BB000030BA003D0823
:100614003C043B043A04031D102B112B2A2B0030FD
:10062400C1000030C0000030BF000030BE00803088
:10063400C0047F30C1044B08C2004208C104410811
:10064400BD004008BC003F08BB003E08BA00892C2E
:100654005208031D2E2B2F2B382B0030BD000030E9
:10066400BC000030BB000030BA00892C5208C20024
:10067400C3014308C50053084202C400031CC50358
:1006840044087F3ECC0045080318013E003ECD00DF
:100694004108CA004008C9003F08C8003E08C70016
:1006A4000030C1000030C0000030BF000030BE0088
:1006B4000030D1000030D0000030CF000030CE0038
:1006C400D301AE2B53080319682B692B892B0130F6
:1006D400C2000310C70DC80DC90DCA0DC20B6B2B88
:1006E4000130C2000310BE0DBF0DC00DC10DC20B01
:1006F400742BD11F7E2B7F2B802B3E140130C20024
:100704000310CE0DCF0DD00DD10DC20B822B3D08A1
:100714004A02031D972B3C084902031D972B3B08F3
:100724004802031D972B3A084702031C9A2B9B2B64
:10073400AA2B51173A08C7023B08031C3B0FC802F7
:100744003C08031C3C0FC9023D08031C3D0FCA02B0
:100754000130C2004208D3071A305302031CB32BE2
:10076400B42B642B4A084904480447040319BB2BDF
:10077400BC2BDB2B4E14DB2B0130C2000310BE0D4F
:10078400BF0DC00DC10DC20BC02BD11FCA2BCB2B6B
:10079400CC2B3E140130C2000310CE0DCF0DD00D72
:1007A400D10DC20BCE2BFF30CC070318CD0AFF307E
:1007B400CD07C01FDE2BDF2BBE2BD301D11FE32BB4
:1007C400E42B002CFF304E05C200FF304F05C30060
:1007D400FF305005C4007F305105C500450844046E
:1007E400430442040319F72BF82BFB2BD301D30A40
:1007F400002C3E1CFE2BFF2B002CF82B5308031956
:10080400042C052C362C0130BE07003003180130AF
:10081400BF07003003180130C0070030031801304F
:10082400C107411C162C172C362C3E08C2003F0869
:10083400C3004008C4004108C5000130C600450D8E
:10084400C50CC40CC30CC20CC60B212C4508C1003A
:100854004408C0004308BF004208BE000130CC0772
:100864000318CD0A0030CD074D08803AFF008030D0
:100874007F02031D3F2CFF304C02031C422C432CEF
:10088400512CFF3083120313CC000030CD00003014
:10089400C1000030C0000030BF000030BE00831231
:1008A40003134D08803AFF0080307F02031D5C2C47
:1008B40001304C0203185F2C602C6D2C831203133F
:1008C400CC01CD010030C1000030C0000030BF00B9
:1008D4000030BE00CB01831203134C08C20042084F
:1008E400D200521C762C772C792CC0177D2C7F30AB
:1008F400C2004208C0055208C2000310420CC300E3
:100904004308C1004B08C2004208C104212B08005F
:100914008312031323088039A8002808AD00230894
:10092400A8002807A9002908B300A21F9A2C9B2C11
:100934009C2C331433080319A02CA12CB02C330A9B
:10094400031DA52CA62CAE2C0030A3000030A20061
:100954000030A1000030A000A217B82C0030A30082
:100964000030A2000030A1000030A0002708803928
:10097400A8002808AD062708A8002807A900290808
:10098400B200A61FC62CC72CC82C32143208031977
:10099400CC2CCD2CDC2C320A031DD12CD22CDA2CFD
:1009A4000030A7000030A6000030A5000030A400ED
:1009B400A617E42C0030A7000030A6000030A500E4
:1009C4000030A40032080319E82CE92CEE2C33087B
:1009D400031DED2CEE2CF72C0030A3000030A200F8
:1009E4000030A1000030A000EA2F2008A800280849
:1009F400F00026080A128A15D2210A128A117108F7
:100A040083120313B9007008B8003808A800A901BC
:100A1400AA01AB012B08B1002A08B0002908AF00D5
:100A24002808AE003908A800A901AA01AB012B08C7
:100A3400B7002A08B6002908B5002808B400210820
:100A4400A8002808F00025080A128A15D2210A12E3
:100A54008A11710883120313B9007008B8003808AA
:100A6400A800A901AA01AB012808AE0729080311AF
:100A74000318013E03193F2DAF072A080311031879
:100A8400013E0319462DB0072B0803110318013E3C
:100A940003194D2DB1073908A800A901AA01AB011A
:100AA4002808B407290803110318013E03195B2D14
:100AB400B5072A0803110318013E0319622DB6076E
:100AC4002B0803110318013E0319692DB7072208E7
:100AD400A8002808F00024080A128A15D2210A1254
:100AE4008A11710883120313B9007008B80038081A
:100AF400A800A901AA01AB012808AE07290803111F
:100B04000318013E0319872DAF072A0803110318A0
:100B1400013E03198E2DB0072B0803110318013E63
:100B24000319952DB1073908A800A901AA01AB0141
:100B34002808B407290803110318013E0319A32D3B
:100B4400B5072A0803110318013E0319AA2DB60795
:100B54002B0803110318013E0319B12DB707083000
:100B6400A8000310AE0DAF0DB00DB10DA80BB32D41
:100B74002108A8002808F00024080A128A15D221A6
:100B84000A128A11710883120313B9007008B8009D
:100B94003808A8003908A900AA01AB012808AE0743
:100BA400290803110318013E0319D92DAF072A0898
:100BB40003110318013E0319E02DB0072B0803119C
:100BC4000318013E0319E72DB1072008A8002808DF
:100BD400F00025080A128A15D2210A128A11710816
:100BE40083120313B9007008B8003808A800390844
:100BF400A900AA01AB012808AE07290803110318AC
:100C0400013E0319062EAF072A0803110318013EFB
:100C140003190D2EB0072B0803110318013E031905
:100C2400142EB1070830A8000310AE0DAF0DB00D9F
:100C3400B10DA80B162E2008A8002808F0002408DF
:100C44000A128A15D2210A128A1171088312031317
:100C5400B9007008B8003808A8003908A900AA012A
:100C6400AB012808AE07290803110318013E031934
:100C74003C2EAF072A0803110318013E0319432E23
:100C8400B0072B0803110318013E03194A2EB107BC
:100C94002108A8002808F00026080A128A15D22183
:100CA4000A128A11710883120313B9007008B8007C
:100CB4003808A8003908A900AA01AB012808B4071C
:100CC400290803110318013E0319692EB5072A08E0
:100CD40003110318013E0319702EB6072B080311E4
:100CE4000318013E0319772EB7072208A800280825
:100CF400F00025080A128A15D2210A128A117108F5
:100D040083120313B9007008B8003808A800390822
:100D1400A900AA01AB012808B40729080311031884
:100D2400013E0319962EB5072A0803110318013E44
:100D340003199D2EB6072B0803110318013E03194E
:100D4400A42EB7072208A8002808F00026080A12D3
:100D54008A15D2210A128A11710883120313B90069
:100D64007008B8003808A8003908A900AA01AB0126
:100D740008300310A80DA90DAA0DAB0DFF3E031DED
:100D8400BB2E2808B407290803110318013E0319D0
:100D9400CC2EB5072A0803110318013E0319D32EDC
:100DA400B6072B0803110318013E0319DA2EB707FF
:100DB4002E08A8002F08A9003008AA003108AB00AB
:100DC40018300310AB0CAA0CA90CA80CFF3E031D91
:100DD400E32E2808B407290803110318013E031958
:100DE400F42EB5072A0803110318013E0319FB2E3C
:100DF400B6072B0803110318013E0319022FB70786
:100E04000830A8000310AE0DAF0DB00DB10DA80B46
:100E1400042F33083207A800A901A90D2808823E2F
:100E2400B80029080318013EFF3EB900362F0130EF
:100E3400A8000310B40DB50DB60DB70DA80B1B2FEC
:100E4400B11F252F262F272F34140130A80003109B
:100E5400AE0DAF0DB00DB10DA80B292FFF30B807A3
:100E64000318B90AFF30B907B61F392F3A2F192FC3
:100E7400B201B11F3E2F3F2F5B2FFF302E05A8007C
:100E8400FF302F05A900FF303005AA007F3031055F
:100E9400AB002B082A04290428040319522F532FCA
:100EA400562FB201B20A5B2F341C592F5A2F5B2FD5
:100EB400532F320803195F2F602F912F0130B4078D
:100EC400003003180130B507003003180130B607AD
:100ED400003003180130B707371C712F722F912F80
:100EE4003408A8003508A9003608AA003708AB0062
:100EF4000130AC002B0DAB0CAA0CA90CA80CAC0B4C
:100F04007C2F2B08B7002A08B6002908B50028084A
:100F1400B4000130B8070318B90A0030B90739081A
:100F2400803AFF0080307F02031D9A2FFF30380281
:100F3400031C9D2F9E2FA92F7F3083120313B7000C
:100F44008030B6000030B5000030B400DE2F8312CC
:100F540003133908803AFF0080307F02031DB42F49
:100F6400013038020318B72FB82FC42F0030831272
:100F74000313B7000030B6000030B5000030B400F1
:100F8400AD01DE2F831203133808A8002808B3002C
:100F9400FF30B405FF30B5057F30B6050030B70526
:100FA400331CD52FD62FD72FB6173308A80003101C
:100FB400280CA9002908B7002D08A8002808B704A0
:100FC4003708A3003608A2003508A1003408A000A1
:100FD400080083135A3084006F300A128A154D2199
:100FE4000A128A11A0308400B8300A128A154D21E1
:100FF4000A128A1183010A128A15842E08308A0083
:101004000408840A820700343034313432343334EF
:101014003434353436343734383439344834753428
:101024006D346F340034543465346D3470340034AA
:1010340020342034203400344F34463446340034D1
:0E1044004C3475347A3400344F344E3400345A
:10129A0064008001840A04060319003404064E29F6
:1012AA000A128A1571210A128A1583160313111458
:1012BA0008000A128A1571210A128A158316031365
:1012CA00111508000A128A1571210A128A15700866
:1012DA008312031393000800831603131419762943
:1012EA007729712911081F39031D7C297D29712944
:1012FA00080000300A128A159A210A128A1501304A
:10130A000A128A159A210A128A15080083160317E7
:10131A008801890183160313850105148514860142
:10132A0083120313850186010800F2008312031356
:10133A0008137208860088170630F1003030F00072
:10134A00F00BA529F10BA5290000831203138813BA
:10135A000800F5007303031DB329B429C0297508D1
:10136A007F3EF4007408F60076080A128A159A215C
:10137A000A128A15D12902307306031DC529C62906
:10138A00D1297508BF3EF4007408F60076080A12DF
:10139A008A159A210A128A150800F800F401F50143
:1013AA007008F200F3017208F6007308F700781C5F
:1013BA00DF29E029E6297608F4070318F50A7708F1
:1013CA00F50701300310F60DF70DFF3E031DE7295F
:1013DA000310F80C7808031DF329F429DC29750891
:1013EA00F1007408F00008000A128A1571210A1225
:1013FA008A158316031391150A128A1571210A1286
:10140A008A15831203131308F200F3017208F40019
:10141A007308F5000A128A1571210A128A157003D7
:10142A007104031D192A1A2A1E2A831603139112FC
:10143A00212A83160313911611167508F1007408F0
:10144A00F0000800F400F201F3014A2A83120313A0
:10145A0008177208740784000A128A1500200A12F3
:10146A008A15860088170330F1009730F000F00BD8
:10147A003C2AF10B3C2A412A8312031388130130B8
:10148A00F2070318F30A0030F3077208740784009E
:10149A000A128A1500200A128A15003A031D562AD2
:1014AA00572A2B2A08002830831203139400831624
:1014BA0003139101831203132008A4002108A50035
:1014CA002208A6002308A70002300310A40DA50DC8
:1014DA00A60DA70DFF3E031D6A2A2708F30026085A
:1014EA00F2002508F1002408F0000030F7003D3032
:1014FA00F6000930F5000030F4000A128A15DF23DD
:10150A000A128A157008FF3E83160313930094018A
:10151A0087150716080083120313051C952A962AB5
:10152A00A62A5E085F04031D9B2A9C2AA62A5A3013
:10153A00DA000030DB000130DE000030DF00851603
:10154A00B22A0518A92AAA2AB22A5E035F04031D31
:10155A00AF2AB02AB22ADE01DF01851CB52AB62AD3
:10156A00C42A5C085D04031DBB2ABC2AC42ADA010A
:10157A00DB010130DC000030DD008512D02A0518BD
:10158A00C72AC82AD02A5C035D04031DCD2ACE2AA5
:10159A00D02ADC01DD01080083120313081300308E
:1015AA000A128A159A210A128A151430F40079301F
:1015BA00F300F30BDE2AF40BDE2AE32A30300A1298
:1015CA008A159A210A128A150630F4003030F3007F
:1015DA00F30BED2AF40BED2A000030300A128A15BB
:1015EA009A210A128A153530F300F30BFA2A3030A1
:1015FA000A128A159A210A128A153530F300F30B5A
:10160A00042B38300A128A159A210A128A151030C8
:10161A000A128A159A210A128A1501300A128A15A3
:10162A009A210A128A1506300A128A159A210A1272
:10163A008A150F300A128A159A210A128A15080089
:10164A00F601F31F292B2A2B312BF209F309F20A8F
:10165A000319F30AF601F60AF11F342B352B3A2B3C
:10166A00F009F109F00A0319F10A70087104031963
:10167A003F2B402B6F2BF501F50A4E2B013003103F
:10168A00F00DF10DFF3E031D442B0130F4007408E8
:10169A00F507F11F512B522B432B71087302031DBF
:1016AA00582B70087202031C5B2B5C2B622B700890
:1016BA00F2027108031CF303F30201300310F10C68
:1016CA00F00CFF3E031D632B0130F502031D6E2B48
:1016DA006F2B522B76080319732B742B792BF20973
:1016EA00F309F20A0319F30A7308F1007208F00009
:1016FA000800F200BB2B8F30831603138F05DD2BF6
:10170A00831603130F088F3910388F00DD2B8316C9
:10171A0003130F088F3920388F00DD2B831603132C
:10172A000F088F3910388F00DD2B831603130F082B
:10173A008F3940388F00DD2B831603130F088F393A
:10174A0050388F00DD2B831603130F088F3960384A
:10175A008F00DD2B7030831603138F04DD2B831665
:10176A0003130F088F3960388F00DD2B7208F000E1
:10177A00F1017108003A0319C32BB42B7008003A1F
:10178A000319802B013A0319852B033A03198C2B71
:10179A00013A0319932B073A03199A2B013A0319B1
:1017AA00A12B033A0319A82B013A0319AF2BB42B27
:1017BA000F1408000030FC000030FB000030FA0073
:1017CA000030F90073087204710470040319EE2BD7
:1017DA00EF2B3C2CFD01FD0AFF2B0130F800031012
:1017EA00F00DF10DF20DF30DF80BF42B0130F800AA
:1017FA007808FD07F31F022C032CF22B0130F800A6
:10180A000310F90DFA0DFB0DFC0DF80B052C7308EE
:10181A007702031D1A2C72087602031D1A2C71080E
:10182A007502031D1A2C70087402031C1D2C1E2C31
:10183A002D2C7008F4027108031C710FF50272084E
:10184A00031C720FF6027308031C730FF702791454
:10185A0001300310F30CF20CF10CF00CFF3E031DE7
:10186A002E2C0130FD02031D3B2C3C2C032C7C0842
:10187A00F3007B08F2007A08F1007908F00008000A
:10188A00F601F11F492C4A2C512CF009F109F00AF2
:10189A000319F10AF601F60AF31F542C552C5E2C93
:1018AA00F209F309F20A0319F30A0130F400740881
:1018BA00F606F701F801700871040319652C662C05
:1018CA009D2CF501F50A742C01300310F00DF10D71
:1018DA00FF3E031D6A2C0130F4007408F507F11F5E
:1018EA00772C782C692C01300310F70DF80DFF3E88
:1018FA00031D792C71087302031D852C700872026E
:10190A00031C882C892C902C7008F2027108031C85
:10191A00F303F302771401300310F10CF00CFF3ECD
:10192A00031D912C0130F502031D9C2C9D2C782C53
:10193A0076080319A12CA22CA72CF709F809F70A93
:10194A000319F80A7808F1007708F0000800031074
:10195A00831203133C0D3D0DBE003E08C40044082B
:10196A00031DB82CB92CC22C0030BD000030BC00BD
:10197A000030BB000030BA00272D3A08BE003B08F1
:10198A00BF003C08C0003D08C1001F300310C10C55
:10199A00C00CBF0CBE0CFF3E031DCB2C3E08C20080
:1019AA004208C300BC17FF30BA05FF30BB05FF3041
:1019BA00BC050030BD059630C402C41FE52CE62CD8
:1019CA00002D4408803A973E0318EC2CED2CEE2C9F
:1019DA00B92C01300310BD0CBC0CBB0CBA0CFF3E79
:1019EA00031DEF2C0130BE003E08C407031DFE2C68
:1019FA00FF2CEE2C172D20304402031C052D062D3A
:101A0A00122DB92C0130BE000310BA0DBB0DBC0D4E
:101A1A00BD0DBE0B092D0130C4024408031D162D4D
:101A2A00172D072D430803191B2D1C2D272DBA0925
:101A3A00BB09BC09BD09BA0A0319BB0A0319BC0AC6
:101A4A000319BD0A080000307005F800003071055E
:101A5A00F90080307205FA007F307305FB007B08BD
:101A6A007A0479047804031D3B2D3C2D442D003063
:101A7A00F3000030F2000030F1000030F0000030D6
:101A8A007405F80000307505F90080307605FA0013
:101A9A007F307705FB007B087A0479047804031DFC
:101AAA00572D582D602D0030F7000030F600003019
:101ABA00F5000030F400F31F632D642D882D0030EB
:101ACA00F8000030F9000030FA008030FB0070089E
:101ADA00F8027108031C710F732D742DF902720834
:101AEA00031C720F792D7A2DFA027308031C730FE7
:101AFA007F2D802DFB027B08F3007A08F20079081B
:101B0A00F1007808F000F71F8B2D8C2DB02D0030D6
:101B1A00F8000030F9000030FA008030FB00740849
:101B2A00F8027508031C750F9B2D9C2DF902760887
:101B3A00031C760FA12DA22DFA027708031C770F3A
:101B4A00A72DA82DFB027B08F7007A08F600790872
:101B5A00F5007808F4008030F3068030F70677083D
:101B6A007302031DC22D76087202031DC22D750869
:101B7A007102031DC22D740870020318C52DC62DEB
:101B8A00C82D0310C92D03140800F800780803199A
:101B9A00CF2DD02DE42DF31FD32DD42DE42D700994
:101BAA00FA007109FB007209FC007309FD00FA0AC8
:101BBA000319FB0A0319FC0A0319FD0AEC2D730821
:101BCA00FD007208FC007108FB007008FA00730837
:101BDA00720471047004031DF32DF42DFD2D0030E1
:101BEA00F3000030F2000030F1000030F000832EE4
:101BFA009630F4007408F9000F2E0130F4007408CE
:101C0A00F90701300310FD0CFC0CFB0CFA0CFF3E2B
:101C1A00031D072EFE307D05031D142E152E022EE0
:101C2A00312E0130F4007408F9070130FA07003048
:101C3A0003180130FB07003003180130FC0700309D
:101C4A0003180130FD0701300310FD0CFC0CFB0CDE
:101C5A00FA0CFF3E031D292EFF307D05031D362E8B
:101C6A00372E162E432E0130F9020130F4000310EC
:101C7A00FA0DFB0DFC0DFD0DF40B3C2EFC1B462E44
:101C8A00472E4D2E0230790203184C2E4D2E382E37
:101C9A007918502E512E592EFF30FA05FF30FB05C8
:101CAA007F30FC05FF30FD050310F90C7908F400BC
:101CBA00F501F601F70118300310F40DF50DF60DD4
:101CCA00F70DFF3E031D612E7408FA047508FB0424
:101CDA007608FC047708FD0478080319752E762E19
:101CEA007B2EF31F792E7A2E7B2EFD177D08F300AB
:101CFA007C08F2007B08F1007A08F0000800063040
:101D0A000A128A157E230A128A150A128A158B214B
:101D1A000A128A15003083120313A3000130A200AD
:101D2A008630A100A030A0000A128A1558220A1291
:101D3A008A150A128A15D1220A128A150A128A15D6
:101D4A007E210A128A15F301F30A01300A128A1552
:101D5A00AE210A128A150B300A128A1527220A1294
:101D6A008A15F301F30A06300A128A15AE210A12FD
:101D7A008A151D300A128A1527220A128A15F301BA
:101D8A00F30A0A300A128A15AE210A128A1510308D
:101D9A000A128A1527220A128A150A128A15552149
:101DAA000A128A152030F0000030F1000A128A1552
:101DBA0067210A128A150230F0000030F1000A1277
:101DCA008A1567210A128A150A128A155E210A12D1
:101DDA008A15823083120313D900DD30D800D80B5C
:101DEA00F42ED90BF42E0A128A1555210A128A15D5
:101DFA002130F0000030F1000A128A1567210A1218
:101E0A008A150030F000F1000A128A15F9210A1227
:101E1A008A15700883120313D8005808EE000A12B4
:101E2A008A155E210A128A15823083120313D90099
:101E3A00DD30D800D80B1F2FD90B1F2F0A128A1595
:101E4A0055210A128A152030F0000030F1000A12DA
:101E5A008A1567210A128A150130F0000030F10054
:101E6A000A128A1567210A128A150A128A155E2130
:101E7A000A128A15823083120313D900DD30D80082
:101E8A00D80B452FD90B452F0A128A1555210A124C
:101E9A008A152130F0000030F1000A128A156721F4
:101EAA000A128A150030F000F1000A128A15F92187
:101EBA000A128A15700883120313D8005808ED0015
:101ECA000A128A155E210A128A15823083120313B6
:101EDA00D900DD30D800D80B702FD90B702F0A1219
:101EEA008A1555210A128A152030F0000030F100B7
:101EFA000A128A1567210A128A150330F000003087
:101F0A00F1000A128A1567210A128A150A128A151D
:101F1A005E210A128A15823083120313D900DD303A
:101F2A00D800D80B962FD90B962F0A128A1555214D
:101F3A000A128A152130F0000030F1000A128A15BF
:101F4A0067210A128A150030F000F1000A128A1578
:101F5A00F9210A128A15700883120313D800580847
:101F6A00EC000A128A155E210A128A15823083123F
:101F7A000313D900DD30D800D80BC12FD90BC12FDC
:101F8A000A128A1555210A128A154030F0000030CB
:101F9A00F1000A128A1567210A128A15831203139D
:101FAA005B08F1005A08F0000A128A1567210A1222
:101FBA008A150A128A155E210A128A15823083123C
:101FCA000313D900DD30D800D80BE92FD90BE92F3C
:101FDA000A128A1117210A128A150A128A110A206C
:101FEA000A128A150A128A1590220A128A15D22E04
:061FFA000A128A11002802
:04400E00D4E0FFFFFC
:00000001FF
