:020000040000FA
:060000000A128A11EB2F29
:100014000A30F0000030F100831203136C08F90079
:10002400FA017908F2007A08F3000A128A159C236F
:100034000A128A11710883160313BD007008BC00EC
:100044000A30F0000030F100831203136C08F90049
:10005400FA017908F2007A08F3000A128A151C22C0
:100064000A128A11710883160313BB007008BA00C0
:10007400F301F30A0A300A128A15E6200A128A11D9
:10008400831603133C08013E84000A128A150020DB
:100094000A128A110A128A15B9200A128A11F30166
:1000A400F30A0B300A128A15E6200A128A11831603
:1000B40003133A08013E84000A128A1500200A122A
:1000C4008A110A128A15B9200A128A110F30831272
:1000D40003136C0203186F28702884280230F90077
:1000E4007908F30008300A128A15E6200A128A11E8
:1000F40012300A128A155F210A128A11831203131D
:10010400851597280230F9007908F30008300A129F
:100114008A15E6200A128A110B300A128A155F2109
:100124000A128A118312031385116C08F900FA016B
:10013400790883160313A4007A08A5000800831223
:10014400031341088039C2004208CB004108C200B1
:100154004207C3004308D200C01FB128B228B32805
:10016400521452080319B728B828C828520A031D84
:10017400BC28BD28C5280030C1000030C0000030B4
:10018400BF000030BE00C017C101D0280030C1003C
:100194000030C0000030BF000030BE003D08803990
:1001A400C2004208CB063D08C2004207C300430810
:1001B400D300BC1FDE28DF28E0285314530803199A
:1001C400E428E528F528530A031DE928EA28F2283B
:1001D4000030BD000030BC000030BB000030BA006D
:1001E400BC17BD01FD280030BD000030BC0000304C
:1001F400BB000030BA003D083C043B043A04031D34
:10020400042905291E290030C1000030C000003037
:10021400BF000030BE008030C0047F30C1044B08F2
:10022400C2004208C1044108BD004008BC003F08A8
:10023400BB003E08BA007D2A5208031D2229232947
:100244002C290030BD000030BC000030BB00003061
:10025400BA007D2A5208C200C3014308C5005308EE
:100264004202C400031CC50344087F3ECC00450879
:100274000318013E003ECD004108CA004008C900F1
:100284003F08C8003E08C7000030C1000030C0006D
:100294000030BF000030BE000030D1000030D0007C
:1002A4000030CF000030CE00D301A2295308031937
:1002B4005C295D297D290130C2000310C70DC80DDA
:1002C400C90DCA0DC20B5F290130C2000310BE0D57
:1002D400BF0DC00DC10DC20B6829D11F722973292E
:1002E40074293E140130C2000310CE0DCF0DD00D81
:1002F400D10DC20B76293D084A02031D8B293C0807
:100304004902031D8B293B084802031D8B293A0827
:100314004702031C8E298F299E2951173A08C702C8
:100324003B08031C3B0FC8023C08031C3C0FC902DA
:100334003D08031C3D0FCA020130C2004208D30726
:100344001A305302031CA729A82958294A0849042A
:10035400480447040319AF29B029CF294E14CF29E3
:100364000130C2000310BE0DBF0DC00DC10DC20B84
:10037400B429D11FBE29BF29C0293E140130C200AF
:100384000310CE0DCF0DD00DD10DC20BC229FF30FD
:10039400CC070318CD0AFF30CD07C01FD229D329BB
:1003A400B229D301D11FD729D829F429FF304E050A
:1003B400C200FF304F05C300FF305005C4007F303A
:1003C4005105C50045084404430442040319EB29BC
:1003D400EC29EF29D301D30AF4293E1CF229F3298D
:1003E400F429EC2953080319F829F9292A2A013098
:1003F400BE07003003180130BF0700300318013076
:10040400C007003003180130C107411C0A2A0B2A17
:100414002A2A3E08C2003F08C3004008C40041081D
:10042400C5000130C600450DC50CC40CC30CC20C7C
:10043400C60B152A4508C1004408C0004308BF0084
:100444004208BE000130CC070318CD0A0030CD07A6
:100454004D08803AFF0080307F02031D332AFF30AD
:100464004C02031C362A372A452AFF308312031311
:10047400CC000030CD000030C1000030C00000309E
:10048400BF000030BE00831203134D08803AFF0002
:1004940080307F02031D502A01304C020318532A76
:1004A400542A612A83120313CC01CD010030C10008
:1004B4000030C0000030BF000030BE00CB0183120A
:1004C40003134C08C2004208D200521C6A2A6B2A49
:1004D4006D2AC017712A7F30C2004208C005520835
:1004E400C2000310420CC3004308C1004B08C20001
:1004F4004208C1041529080006300A128A15D522BB
:100504000A128A110A128A1592200A128A110A12F0
:100514008A15C8210A128A110A128A157F200A1222
:100524008A11003083120313A3000130A200863025
:10053400A100A030A0000A128A1590210A128A1183
:10054400F301F30A01300A128A15E6200A128A110D
:100554002A300A128A155F210A128A11F301F30A5A
:1005640008300A128A15E6200A128A1133300A1258
:100574008A155F210A128A11F301F30A0C300A1258
:100584008A15E6200A128A113F300A128A155F2161
:100594000A128A11F301F30A0F300A128A15E620AF
:1005A4000A128A111F300A128A155F210A128A114F
:1005B400F301F30A18300A128A15E6200A128A1186
:1005C40025300A128A155F210A128A110230831219
:1005D4000313E4006408F3001A300A128A15E620B3
:1005E4000A128A11DF300A128A15B9200A128A11F6
:1005F400023083120313E4006408F3001B300A1270
:100604008A15E6200A128A1137300A128A155F21E8
:100614000A128A11F301F30A1D300A128A15E62020
:100624000A128A1119300A128A155F210A128A11D4
:10063400023083120313E4006408F3001F300A122B
:100644008A15E6200A128A1134300A128A155F21AB
:100654000A128A11F301F30A23300A128A15E620DA
:100664000A128A113C300A128A155F210A128A1171
:10067400F301F30A26300A128A15E6200A128A11B7
:1006840036300A128A155F210A128A110A128A1553
:10069400CD200A128A1183120313E601E7010A1618
:1006A4008A11EE270A128A111130F0000030F1008D
:1006B4000A128A154C200A128A110030F000F10047
:1006C4000A128A1531210A128A117008831203133F
:1006D400E4006408EE000A168A11F7270A128A1148
:1006E400823083120313E500DD30E400E40B782B41
:1006F400E50B782B0A168A11EE270A128A1121308B
:10070400F0000030F1000A128A154C200A128A11F6
:100714000030F000F1000A128A1531210A128A1100
:10072400700883120313E4006408ED000A168A11AA
:10073400F7270A128A11823083120313E500DD3091
:10074400E400E40BA32BE50BA32B0A168A11EE2776
:100754000A128A113130F0000030F1000A128A15B1
:100764004C200A128A110030F000F1000A128A1596
:1007740031210A128A11700883120313E4006408F9
:10078400EC000A168A11F7270A128A1182308312A2
:100794000313E500DD30E400E40BCE2BE50BCE2B98
:1007A4000A168A11EE270A128A114130F00000302D
:1007B400F1000A128A154C200A128A110030F00046
:1007C400F1000A128A1531210A128A117008831263
:1007D4000313E4006408EB000A168A11F7270A12CF
:1007E4008A11823083120313E500DD30E400E40B48
:1007F400F92BE50BF92B0A168A11EE270A128A1136
:100804005130F0000030F1000A128A154C200A120F
:100814008A110030F000F1000A128A1531210A12FF
:100824008A11700883120313E4006408EF000A16A7
:100834008A11F7270A128A11823083120313E50002
:10084400DD30E400E40B242CE50B242C0A128A1579
:100854000D260A128A110A128A1575220A128A11A1
:100864000A128A110A200A128A110A128A153925D3
:100874000A128A110A128A1505270A128A110A1203
:100884008A156E200A128A11831203136708F10075
:100894006608F0000A128A1556200A128A110D30D1
:1008A40083120313E500FB30E400E40B572CE50B43
:1008B400572C831203136608E4006407A03E8400E7
:1008C40083130008F000840A0008F1000A128A1554
:1008D40056200A128A110D3083120313E500FB30EF
:1008E400E400E40B732CE50B732C01308312031327
:1008F400E6070318E70A0030E707053066066704D1
:10090400031D852C862C512B4D2B0A128A1100288D
:100914008312031323088039A8002808AD00230894
:10092400A8002807A9002908B300A21F9A2C9B2C11
:100934009C2C331433080319A02CA12CB02C330A9B
:10094400031DA52CA62CAE2C0030A3000030A20061
:100954000030A1000030A000A217B82C0030A30082
:100964000030A2000030A1000030A0002708803928
:10097400A8002808AD062708A8002807A900290808
:10098400B200A61FC62CC72CC82C32143208031977
:10099400CC2CCD2CDC2C320A031DD12CD22CDA2CFD
:1009A4000030A7000030A6000030A5000030A400ED
:1009B400A617E42C0030A7000030A6000030A500E4
:1009C4000030A40032080319E82CE92CEE2C33087B
:1009D400031DED2CEE2CF72C0030A3000030A200F8
:1009E4000030A1000030A000EA2F2008A800280849
:1009F400F00026080A128A150A210A128A117108BF
:100A040083120313B9007008B8003808A800A901BC
:100A1400AA01AB012B08B1002A08B0002908AF00D5
:100A24002808AE003908A800A901AA01AB012B08C7
:100A3400B7002A08B6002908B5002808B400210820
:100A4400A8002808F00025080A128A150A210A12AB
:100A54008A11710883120313B9007008B8003808AA
:100A6400A800A901AA01AB012808AE0729080311AF
:100A74000318013E03193F2DAF072A080311031879
:100A8400013E0319462DB0072B0803110318013E3C
:100A940003194D2DB1073908A800A901AA01AB011A
:100AA4002808B407290803110318013E03195B2D14
:100AB400B5072A0803110318013E0319622DB6076E
:100AC4002B0803110318013E0319692DB7072208E7
:100AD400A8002808F00024080A128A150A210A121C
:100AE4008A11710883120313B9007008B80038081A
:100AF400A800A901AA01AB012808AE07290803111F
:100B04000318013E0319872DAF072A0803110318A0
:100B1400013E03198E2DB0072B0803110318013E63
:100B24000319952DB1073908A800A901AA01AB0141
:100B34002808B407290803110318013E0319A32D3B
:100B4400B5072A0803110318013E0319AA2DB60795
:100B54002B0803110318013E0319B12DB707083000
:100B6400A8000310AE0DAF0DB00DB10DA80BB32D41
:100B74002108A8002808F00024080A128A150A216E
:100B84000A128A11710883120313B9007008B8009D
:100B94003808A8003908A900AA01AB012808AE0743
:100BA400290803110318013E0319D92DAF072A0898
:100BB40003110318013E0319E02DB0072B0803119C
:100BC4000318013E0319E72DB1072008A8002808DF
:100BD400F00025080A128A150A210A128A117108DE
:100BE40083120313B9007008B8003808A800390844
:100BF400A900AA01AB012808AE07290803110318AC
:100C0400013E0319062EAF072A0803110318013EFB
:100C140003190D2EB0072B0803110318013E031905
:100C2400142EB1070830A8000310AE0DAF0DB00D9F
:100C3400B10DA80B162E2008A8002808F0002408DF
:100C44000A128A150A210A128A11710883120313DF
:100C5400B9007008B8003808A8003908A900AA012A
:100C6400AB012808AE07290803110318013E031934
:100C74003C2EAF072A0803110318013E0319432E23
:100C8400B0072B0803110318013E03194A2EB107BC
:100C94002108A8002808F00026080A128A150A214B
:100CA4000A128A11710883120313B9007008B8007C
:100CB4003808A8003908A900AA01AB012808B4071C
:100CC400290803110318013E0319692EB5072A08E0
:100CD40003110318013E0319702EB6072B080311E4
:100CE4000318013E0319772EB7072208A800280825
:100CF400F00025080A128A150A210A128A117108BD
:100D040083120313B9007008B8003808A800390822
:100D1400A900AA01AB012808B40729080311031884
:100D2400013E0319962EB5072A0803110318013E44
:100D340003199D2EB6072B0803110318013E03194E
:100D4400A42EB7072208A8002808F00026080A12D3
:100D54008A150A210A128A11710883120313B90031
:100D64007008B8003808A8003908A900AA01AB0126
:100D740008300310A80DA90DAA0DAB0DFF3E031DED
:100D8400BB2E2808B407290803110318013E0319D0
:100D9400CC2EB5072A0803110318013E0319D32EDC
:100DA400B6072B0803110318013E0319DA2EB707FF
:100DB4002E08A8002F08A9003008AA003108AB00AB
:100DC40018300310AB0CAA0CA90CA80CFF3E031D91
:100DD400E32E2808B407290803110318013E031958
:100DE400F42EB5072A0803110318013E0319FB2E3C
:100DF400B6072B0803110318013E0319022FB70786
:100E04000830A8000310AE0DAF0DB00DB10DA80B46
:100E1400042F33083207A800A901A90D2808823E2F
:100E2400B80029080318013EFF3EB900362F0130EF
:100E3400A8000310B40DB50DB60DB70DA80B1B2FEC
:100E4400B11F252F262F272F34140130A80003109B
:100E5400AE0DAF0DB00DB10DA80B292FFF30B807A3
:100E64000318B90AFF30B907B61F392F3A2F192FC3
:100E7400B201B11F3E2F3F2F5B2FFF302E05A8007C
:100E8400FF302F05A900FF303005AA007F3031055F
:100E9400AB002B082A04290428040319522F532FCA
:100EA400562FB201B20A5B2F341C592F5A2F5B2FD5
:100EB400532F320803195F2F602F912F0130B4078D
:100EC400003003180130B507003003180130B607AD
:100ED400003003180130B707371C712F722F912F80
:100EE4003408A8003508A9003608AA003708AB0062
:100EF4000130AC002B0DAB0CAA0CA90CA80CAC0B4C
:100F04007C2F2B08B7002A08B6002908B50028084A
:100F1400B4000130B8070318B90A0030B90739081A
:100F2400803AFF0080307F02031D9A2FFF30380281
:100F3400031C9D2F9E2FA92F7F3083120313B7000C
:100F44008030B6000030B5000030B400DE2F8312CC
:100F540003133908803AFF0080307F02031DB42F49
:100F6400013038020318B72FB82FC42F0030831272
:100F74000313B7000030B6000030B5000030B400F1
:100F8400AD01DE2F831203133808A8002808B3002C
:100F9400FF30B405FF30B5057F30B6050030B70526
:100FA400331CD52FD62FD72FB6173308A80003101C
:100FB400280CA9002908B7002D08A8002808B704A0
:100FC4003708A3003608A2003508A1003408A000A1
:100FD400080083136630840070300A168A11E627ED
:100FE4000A128A11A0308400C4300A168A11E62736
:100FF4000A128A1183010A128A117E2A08308A0091
:101004000408840A820700343034313432343334EF
:1010140034343534363437343834393420342034A5
:101024002034203420342034003441344C344534CA
:10103400523454344134003448346F34723461349B
:101044003A340034483475346D346F343A340034EF
:10105400543465346D343A3400344C3475347A3451
:101064003A3400344F3446344634003458343A3435
:1010740000344334433400344F344E340034503459
:101084005034003463346D3400342B3400342D3444
:02109400003426
:101098000A128A1561200A128A157008831203132E
:1010A8009300080083160313981C5B285C285628B5
:1010B8007008831203139900080083160313141988
:1010C80066286728612811081F39031D6C286D28B8
:1010D8006128080083120313081318308600881744
:1010E800C730F0007728F00B76287A287B288312FF
:1010F80003138813080000300A128A15A5200A1263
:101108008A1501300A128A15A5200A128A150C3090
:101118000A128A15A5200A128A15080083160317D1
:101128008801890183160313850186018701071742
:101138000813881383120313850186018701880128
:101148000800F20083120313081372088600881738
:101158000630F1003030F000F00BB028F10BB02869
:1011680000008312031388130800F200831203138C
:1011780008177208860088170330F1009730F000CE
:10118800F00BC428F10BC428C92883120313881351
:10119800080083160313981618128312031398175E
:1011A80083160313181383120313181619308316A2
:1011B800031399009A0183160317871183160313E3
:1011C80018150800F5007303031DEB28EC28F82810
:1011D80075087F3EF4007408F60076080A128A152E
:1011E800A5200A128A15092902307306031DFD2855
:1011F800FE2809297508BF3EF4007408F600760831
:101208000A128A15A5200A128A150800F800F401A6
:10121800F5017008F200F3017208F6007308F70090
:10122800781C172918291E297608F4070318F50AC7
:101238007708F50701300310F60DF70DFF3E031D83
:101248001F290310F80C7808031D2B292C291429B1
:101258007508F1007408F00008000A128A15612068
:101268000A128A158316031391150A128A1561202A
:101278000A128A15831203131308F200F301720885
:10128800F4007308F5000A128A1561200A128A15FB
:1012980070037104031D512952295629831603131B
:1012A8009112592983160313911611167508F10026
:1012B8007408F0000800F400F201F3018229831297
:1012C800031308177208740784000A128A1500208D
:1012D8000A128A15860088170330F1009730F0004B
:1012E800F00B7429F10B74297929831203138813DD
:1012F8000130F2070318F30A0030F3077208740785
:1013080084000A128A1500200A128A15003A031D61
:101318008E298F296329080028308312031394002B
:10132800831603139101831203132008A4002108D4
:10133800A5002208A6002308A70002300310A40D68
:10134800A50DA60DA70DFF3E031DA2292708F30032
:101358002608F2002508F1002408F0000030F70004
:101368003D30F6000930F5000030F4000A128A1505
:1013780036230A128A157008FF3E8316031393005A
:101388009401871507160800831203130813003009
:101398000A128A15A5200A128A151430F400793029
:1013A800F300F30BD529F40BD529DA2930300A12CA
:1013B8008A15A5200A128A150630F4003030F30089
:1013C800F30BE429F40BE429000030300A128A15E3
:1013D800A5200A128A153530F300F30BF1293030B5
:1013E8000A128A15A5200A128A153530F300F30B64
:1013F800FB2938300A128A15A5200A128A151030DE
:101408000A128A15A5200A128A1501300A128A15AD
:10141800A5200A128A1506300A128A15A5200A1272
:101428008A150F300A128A15A5200A128A15080093
:10143800F601F31F202A212A282AF209F309F20AC1
:101448000319F30AF601F60AF11F2B2A2C2A312A6E
:10145800F009F109F00A0319F10A70087104031977
:10146800362A372A662AF501F50A452A013003107B
:10147800F00DF10DFF3E031D3B2A0130F400740806
:10148800F507F11F482A492A3A2A71087302031DF1
:101498004F2A70087202031C522A532A592A7008CC
:1014A800F2027108031CF303F30201300310F10C7C
:1014B800F00CFF3E031D5A2A0130F502031D652A70
:1014C800662A492A760803196A2A6B2A702AF209B9
:1014D800F309F20A0319F30A7308F1007208F0001D
:1014E8000800831203136D08031D7B2A7C2AA02A97
:1014F8000230F7007708F30026300A128A15E62032
:101508000A128A1510300A128A155F210A128A15E2
:101518008312031385100230F7007708F300273091
:101528000A128A15E6200A128A1544300A128A1508
:101538005F210A128A15C92A5A306D06031DA52A89
:10154800A62AC92A0230F7007708F30027300A12C2
:101558008A15E6200A128A1510300A128A155F21A8
:101568000A128A158312031385140230F7007708CC
:10157800F30026300A128A15E6200A128A1542302C
:101588000A128A155F210A128A15831203136D083D
:10159800F700F801770883160313A0007808A10064
:1015A8000800F200122B8F30831603138F05342B9B
:1015B800831603130F088F3910388F00342B8316C6
:1015C80003130F088F3920388F00342B8316031329
:1015D8000F088F3910388F00342B831603130F0828
:1015E8008F3940388F00342B831603130F088F3937
:1015F80050388F00342B831603130F088F39603847
:101608008F00342B7030831603138F04342B83160A
:1016180003130F088F3960388F00342B7208F000DD
:10162800F1017108003A03191A2B0B2B7008003AC4
:101638000319D72A013A0319DC2A033A0319E32AC2
:10164800013A0319EA2A073A0319F12A013A031958
:10165800F82A033A0319FF2A013A0319062B0B2B20
:101668000F1408000030FC000030FB000030FA00C6
:101678000030F90073087204710470040319452BD3
:10168800462B932BFD01FD0A562B0130F800031061
:10169800F00DF10DF20DF30DF80B4B2B0130F800A6
:1016A8007808FD07F31F592B5A2B492B0130F800F6
:1016B8000310F90DFA0DFB0DFC0DF80B5C2B7308EC
:1016C8007702031D712B72087602031D712B7108B6
:1016D8007502031D712B70087402031C742B752B83
:1016E800842B7008F4027108031C710FF50272084C
:1016F800031C720FF6027308031C730FF7027914A8
:1017080001300310F30CF20CF10CF00CFF3E031D3A
:10171800852B0130FD02031D922B932B5A2B7C083D
:10172800F3007B08F2007A08F1007908F00008005D
:10173800F601F11FA02BA12BA82BF009F109F00A43
:101748000319F10AF601F60AF31FAB2BAC2BB52BE4
:10175800F209F309F20A0319F30A0130F4007408D4
:10176800F606F701F801700871040319BC2BBD2BAC
:10177800F42BF501F50ACB2B01300310F00DF10D18
:10178800FF3E031DC12B0130F4007408F507F11F5B
:10179800CE2BCF2BC02B01300310F70DF80DFF3ED9
:1017A800031DD02B71087302031DDC2B7008720215
:1017B800031CDF2BE02BE72B7008F2027108031CD7
:1017C800F303F302771401300310F10CF00CFF3E21
:1017D800031DE82B0130F502031DF32BF42BCF2B4F
:1017E80076080319F82BF92BFE2BF709F809F70AE5
:1017F8000319F80A7808F1007708F00008000310C8
:1018080083120313560D570DD8005808DE005E08E2
:10181800031D0F2C102C192C0030D7000030D600D7
:101828000030D5000030D4007E2C5408D80055086C
:10183800D9005608DA005708DB001F300310DB0C0C
:10184800DA0CD90CD80CFF3E031D222C5808DC00FA
:101858005C08DD00D617FF30D405FF30D505FF3012
:10186800D6050030D7059630DE02DE1F3C2C3D2C15
:10187800572C5E08803A973E0318432C442C452C7D
:10188800102C01300310D70CD60CD50CD40CFF3E0D
:10189800031D462C0130D8005808DE07031D552CBF
:1018A800562C452C6E2C20305E02031C5C2C5D2CC3
:1018B800692C102C0130D8000310D40DD50DD60D8D
:1018C800D70DD80B602C0130DE025E08031D6D2C8D
:1018D8006E2C5E2C5D080319722C732C7E2CD40997
:1018E800D509D609D709D40A0319D50A0319D60A7E
:1018F8000319D70A0800F80078080319842C852CE6
:10190800992CF31F882C892C992C7009FA007109DD
:10191800FB007209FC007309FD00FA0A0319FB0AAF
:101928000319FC0A0319FD0AA12C7308FD007208AB
:10193800FC007108FB007008FA0073087204710457
:101948007004031DA82CA92CB22C0030F300003021
:10195800F2000030F1000030F000382D9630F4002D
:101968007408F900C42C0130F4007408F907013038
:101978000310FD0CFC0CFB0CFA0CFF3E031DBC2CE9
:10198800FE307D05031DC92CCA2CB72CE62C01306E
:10199800F4007408F9070130FA0700300318013021
:1019A800FB07003003180130FC0700300318013032
:1019B800FD0701300310FD0CFC0CFB0CFA0CFF3E7C
:1019C800031DDE2CFF307D05031DEB2CEC2CCB2CEE
:1019D800F82C0130F9020130F4000310FA0DFB0D68
:1019E800FC0DFD0DF40BF12CFC1BFB2CFC2C022D2B
:1019F800023079020318012D022DED2C7918052DDE
:101A0800062D0E2DFF30FA05FF30FB057F30FC0553
:101A1800FF30FD050310F90C7908F400F501F60113
:101A2800F70118300310F40DF50DF60DF70DFF3E14
:101A3800031D162D7408FA047508FB047608FC04C7
:101A48007708FD04780803192A2D2B2D302DF31F54
:101A58002E2D2F2D302DFD177D08F3007C08F20068
:101A68007B08F1007A08F00008006430F0000030CC
:101A7800F100831203136B08F900FA017908F200E8
:101A88007A08F3000A128A159C230A128A1571082B
:101A980083160313B9007008B8006430F0000030F2
:101AA800F100831203136B08F900FA017908F200B8
:101AB8007A08F3000A128A151C220A128A1571087C
:101AC80083160313B7007008B6000A30F000003020
:101AD800F1003708F3003608F2000A128A159C2331
:101AE8000A128A15710883160313B5007008B4002A
:101AF8000A30F0000030F1003708F3003608F20031
:101B08000A128A151C220A128A15710883160313F1
:101B1800B3007008B200F301F30A14300A128A15F0
:101B2800E6200A128A15831603133808013E84003A
:101B38000A128A1500200A128A150A128A15B92073
:101B48000A128A15F301F30A15300A128A15E620DB
:101B58000A128A15831603133408013E84000A12F8
:101B68008A1500200A128A150A128A15B9200A1243
:101B78008A15F301F30A16300A128A15E6200A12AA
:101B88008A15831603133208013E84000A128A1547
:101B980000200A128A150A128A15B9200A128A1513
:101BA8003330831203136B02031CDB2DDC2DF02D65
:101BB8000230F9007908F30010300A128A15E6207D
:101BC8000A128A1512300A128A155F210A128A151A
:101BD800831203130516032E0230F9007908F30067
:101BE80010300A128A15E6200A128A150B300A12DA
:101BF8008A155F210A128A158312031305126B08CE
:101C0800F900FA01790883160313A6007A08A700D9
:101C180008006430F0000030F100831203136E08EE
:101C2800F900FA017908F2007A08F3000A128A1515
:101C38009C230A128A15710883160313C3007008BF
:101C4800C2006430F0000030F100831203136E0804
:101C5800F900FA017908F2007A08F3000A128A15E5
:101C68001C220A128A15710883120313E9007008EE
:101C7800E8000A30F0000030F1006908F300680855
:101C8800F2000A128A159C230A128A157108831613
:101C98000313C1007008C0000A30F0000030F100E2
:101CA800831203136908F3006808F2000A128A1500
:101CB8001C220A128A15710883160313BF007008C4
:101CC800BE000230F9007908F30001300A128A15C3
:101CD800E6200A128A15831603134208013E84007F
:101CE8000A128A1500200A128A150A128A15B920C2
:101CF8000A128A150230F9007908F30002300A1234
:101D08008A15E6200A128A15831603134008013E35
:101D180084000A128A1500200A128A150A128A15E6
:101D2800B9200A128A150230F9007908F300033045
:101D38000A128A15E6200A128A15831603133E082A
:101D4800013E84000A128A1500200A128A150A1216
:101D58008A15B9200A128A153230831203136E02CB
:101D68000318B72EB82EDA2E0230F9007908F300DE
:101D780004300A128A15E6200A128A150E300A1251
:101D88008A155F210A128A15F301F30A05300A122F
:101D98008A15E6200A128A1539300A128A155F2137
:101DA8000A128A15831203130515FB2EF301F30A91
:101DB80005300A128A15E6200A128A150F300A120F
:101DC8008A155F210A128A150230F9007908F30092
:101DD80004300A128A15E6200A128A152F300A12D0
:101DE8008A155F210A128A158312031305116E08DA
:101DF800F900FA01790883160313A2007A08A300F0
:101E08000800831203136F08DF00E001E101E2011B
:101E18006208F3006108F2006008F1005F08F00052
:101E280001300A128A157F240A128A157308831250
:101E38000313A7007208A6007108A5007008A40083
:101E48004330A300FA30A2000030A1000030A00007
:101E58000A128A118A240A128A1583120313230884
:101E6800C1002208C0002108BF002008BE0043307E
:101E7800BD007F30BC000030BB000030BA000A1241
:101E88008A11A1200A128A15831203133D08D7006C
:101E98003C08D6003B08D5003A08D4000A128A1537
:101EA80003240A128A15831203135408E3006308F3
:101EB800EA006430F0000030F1006A08DF00E00159
:101EC8005F08F2006008F3000A128A159C230A12C0
:101ED8008A15710883160313B1007008B0006430C6
:101EE800F0000030F100831203136A08DF00E001FC
:101EF8005F08F2006008F3000A128A151C220A1211
:101F08008A15710883160313AF007008AE000A30F3
:101F1800F0000030F1002F08F3002E08F2000A123A
:101F28008A159C230A128A15710883160313AD00BB
:101F38007008AC000A30F0000030F1002F08F30000
:101F48002E08F2000A128A151C220A128A15710834
:101F580083160313AB007008AA0002308312031320
:101F6800DF005F08F30018300A128A15E6200A120B
:101F78008A15831603132C08013E84000A128A1559
:101F880000200A128A150A128A15B9200A128A151F
:101F9800023083120313DF005F08F30019300A12BE
:101FA8008A15E6200A128A15831603132A08013EA9
:101FB80084000A128A1500200A128A150A128A1544
:101FC800B9200A128A151F30831203136A02031CF0
:101FD800EE2FEF2FF12F8516F22F85126A08DF00FA
:101FE800E0015F0883160313A80083120313600837
:081FF80083160313A900080081
:102FCC0064008001840A0406031900340406E72F08
:102FDC000A128A1561200A168A118316031311141A
:102FEC0008000A128A1561200A168A118316031327
:042FFC0011150800A3
:04400E00D4E0FFFFFC
:00000001FF
