:020000040000FA
:100000000A128A11F02F00308A000408840A82073D
:1000100000343034313432343334343435343634DB
:1000200037343834393420342034203420342034E8
:10003000003443344C344F34533445340034433467
:1000400065346C346434613400344F345034453496
:100050004E3400344F344634463400344C34753416
:0A0060007A3400344F344E3400347B
:100600000A128A111C230A128A1183160313111469
:1006100008000A128A111C230A128A118316031376
:10062000111508000A128A111C230A128A11700877
:100630008312031393000800831603131419212B4C
:10064000222B1C2B11081F39031D272B282B1C2B99
:100650000800831603178801890183160313850197
:10066000860187010813881383120313850186010D
:1006700087018801080000300A128A114E230A12ED
:100680008A1101300A128A114E230A128A110C3083
:100690000A128A114E230A128A110800F2008312EC
:1006A000031308137208860088170630F1003030F3
:1006B000F000F00B592BF10B592B000083120313A0
:1006C00088130800F20083120313081772088600CB
:1006D00088170330F1009730F000F00B6D2BF10B11
:1006E0006D2B722B8312031388130800F50073031C
:1006F000031D7B2B7C2B882B75087F3EF400740830
:10070000F60076080A128A114E230A128A11992BD2
:1007100002307306031D8D2B8E2B992B7508BF3E5F
:10072000F4007408F60076080A128A114E230A12A1
:100730008A1108000A128A111C230A128A118316D0
:10074000031391150A128A111C230A128A118312AB
:1007500003131308F200F3017208F4007308F500A4
:100760000A128A111C230A128A1170037104031DD4
:10077000BA2BBB2BBF2B831603139112C22B8316EC
:100780000313911611167508F1007408F0000800A3
:10079000F400F201F301EB2B831203130817720824
:1007A000740784000A128A1103200A128A11860033
:1007B00088170330F1009730F000F00BDD2BF10BC0
:1007C000DD2BE22B8312031388130130F207031889
:1007D000F30A0030F3077208740784000A128A11C2
:1007E00003200A128A11003A031DF72BF82BCC2B99
:1007F0000800283083120313940083160313910119
:10080000831203132A08AE002B08AF002C08B00097
:100810002D08B10002300310AE0DAF0DB00DB10DBB
:10082000FF3E031D0B2C3108F3003008F2002F08A7
:10083000F1002E08F0000030F7003D30F6000930DE
:10084000F5000030F4000A128A1194250A128A1168
:100850007008FF3E83160313930094018715071653
:10086000080083120313081300300A128A114E2362
:100870000A128A111430F4007930F300F30B3E2C85
:10088000F40B3E2C432C30300A128A114E230A12EC
:100890008A110630F4003030F300F30B4D2CF40BCA
:1008A0004D2C000030300A128A114E230A128A1190
:1008B0003530F300F30B5A2C30300A128A114E23D4
:1008C0000A128A113530F300F30B642C38300A1207
:1008D0008A114E230A128A1110300A128A114E23ED
:1008E0000A128A1101300A128A114E230A128A1141
:1008F00006300A128A114E230A128A110F300A1288
:100900008A114E230A128A11080083120313280841
:10091000031D8B2C8C2CB02C0230F7007708F300D1
:1009200001300A128A1176230A128A110B300A1238
:100930008A11C8230A128A11831203138510023008
:10094000F7007708F30001300A128A1176230A12A1
:100950008A1111300A128A11C8230A128A11D92C5D
:100960005A302806031DB52CB62CD92C0230F700BE
:100970007708F30001300A128A1176230A128A11CD
:100980000B300A128A11C8230A128A118312031328
:1009900085140230F7007708F30001300A128A113B
:1009A00076230A128A111D300A128A11C8230A12EC
:1009B0008A110800F601F31FDE2CDF2CE62CF20969
:1009C000F309F20A0319F30AF601F60AF11FE92CFA
:1009D000EA2CEF2CF009F109F00A0319F10A70086A
:1009E00071040319F42CF52C242DF501F50A032DBF
:1009F00001300310F00DF10DFF3E031DF92C013005
:100A0000F4007408F507F11F062D072DF82C710866
:100A10007302031D0D2D70087202031C102D112D81
:100A2000172D7008F2027108031CF303F302013062
:100A30000310F10CF00CFF3E031D182D0130F502E0
:100A4000031D232D242D072D76080319282D292D6C
:100A50002E2DF209F309F20A0319F30A7308F100C3
:100A60007208F0000800F200702D8F308316031317
:100A70008F05922D831603130F088F3910388F00BE
:100A8000922D831603130F088F3920388F00922D73
:100A9000831603130F088F3910388F00922D831699
:100AA00003130F088F3940388F00922D83160313DC
:100AB0000F088F3950388F00922D831603130F08BB
:100AC0008F3960388F00922D7030831603138F0496
:100AD000922D831603130F088F3960388F00922DE3
:100AE0007208F000F1017108003A0319782D692DA0
:100AF0007008003A0319352D013A03193A2D033ACB
:100B00000319412D013A0319482D073A03194F2DB6
:100B1000013A0319562D033A03195D2D013A0319C1
:100B2000642D692D0F1408000030FC000030FB001C
:100B30000030FA000030F900730872047104700488
:100B40000319A32DA42DF12DFD01FD0AB42D0130B3
:100B5000F8000310F00DF10DF20DF30DF80BA92DB7
:100B60000130F8007808FD07F31FB72DB82DA72D29
:100B70000130F8000310F90DFA0DFB0DFC0DF80B18
:100B8000BA2D73087702031DCF2D72087602031D5C
:100B9000CF2D71087502031DCF2D70087402031C40
:100BA000D22DD32DE22D7008F4027108031C710FB1
:100BB000F5027208031C720FF6027308031C730F10
:100BC000F702791401300310F30CF20CF10CF00C65
:100BD000FF3E031DE32D0130FD02031DF02DF12D1D
:100BE000B82D7C08F3007B08F2007A08F100790840
:100BF000F0000800F601F11FFE2DFF2D062EF00972
:100C0000F109F00A0319F10AF601F60AF31F092E99
:100C10000A2E132EF209F309F20A0319F30A01301E
:100C2000F4007408F606F701F8017008710403195E
:100C30001A2E1B2E522EF501F50A292E0130031013
:100C4000F00DF10DFF3E031D1F2E0130F40074085E
:100C5000F507F11F2C2E2D2E1E2E01300310F70D3F
:100C6000F80DFF3E031D2E2E71087302031D3A2E50
:100C700070087202031C3D2E3E2E452E7008F202B3
:100C80007108031CF303F302771401300310F10C15
:100C9000F00CFF3E031D462E0130F502031D512EC0
:100CA000522E2D2E76080319562E572E5C2EF7093C
:100CB000F809F70A0319F80A7808F1007708F00034
:100CC000080006300A128A1133250A128A110A1204
:100CD0008A1129230A128A110A128A1131240A124E
:100CE0008A110A128A113B230A128A1100308312D8
:100CF0000313AD000130AC008630AB00A030AA0079
:100D00000A128A11F9230A128A11F301F30A013037
:100D10000A128A1176230A128A1117300A128A11CE
:100D2000C8230A128A11F301F30A07300A128A1142
:100D300076230A128A1126300A128A11C8230A124F
:100D40008A110A128A1100230A128A112130F00036
:100D50000030F1000A128A1112230A128A1100309F
:100D6000F000F1000A128A119A230A128A117008FF
:100D700083120313B2003208A8000A128A11092351
:100D80000A128A11823083120313B300DD30B200DD
:100D9000B20BC82EB30BC82E0A128A1100230A12F6
:100DA0008A111130F0000030F1000A128A1112236A
:100DB0000A128A110030F000F1000A128A119A23F7
:100DC0000A128A11700883120313B2003208A900B4
:100DD0000A128A1109230A128A118230831203131C
:100DE000B300DD30B200B20BF32EB30BF32E0A12B8
:100DF0008A1105270A128A110A128A1185240A12F9
:100E00008A11A12E0A128A1100286430F0000030E5
:100E1000F100831203132908F900FA017908F2009E
:100E20007A08F3000A128A11FA250A128A11710847
:100E300083120313A7007008A6006430F00000308E
:100E4000F1002908F900FA017908F2007A08F300A4
:100E50000A128A11DA240A128A1171088312031302
:100E6000A5007008A4000A30F0000030F100250849
:100E7000F3002408F2000A128A11FA250A128A11D4
:100E8000710883120313A3007008A2000A30F00057
:100E90000030F1002508F3002408F2000A128A113C
:100EA000DA240A128A11710883120313A100700850
:100EB000A0000230F9007908F30007300A128A1105
:100EC00076230A128A11831203132608013E840036
:100ED0000A128A1103200A128A110A128A11622345
:100EE0000A128A110230F9007908F30008300A1258
:100EF0008A1176230A128A11831203132208013EF3
:100F000084000A128A1103200A128A110A128A1115
:100F100062230A128A110230F9007908F3000930BD
:100F20000A128A1176230A128A11831203132008E7
:100F3000013E84000A128A1103200A128A110A1241
:100F40008A1162230A128A11323083120313290292
:100F50000318AB2FAC2FCE2F0230F9007908F30025
:100F60000B300A128A1176230A128A110D300A12E6
:100F70008A11C8230A128A11F301F30A0B300A12EC
:100F80008A1176230A128A112A300A128A11C8237A
:100F90000A128A11831203130515EF2FF301F30AC6
:100FA0000B300A128A1176230A128A110D300A12A6
:100FB0008A11C8230A128A110230F9007908F30055
:100FC0000B300A128A1176230A128A1122300A1271
:100FD0008A11C8230A128A1183120313051108000B
:100FE00083120313A001A101A201A301A401A50181
:100FF000A601A701A801A90183010A128A11612E85
:04400E00D4E0FFFFFC
:00000001FF
