:020000040000FA
:100000000A128A11EB2F00308A000408840A820742
:1000100000343034313432343334343435343634DB
:1000200037343834393420342034203420342034E8
:100030002034003441344C34453452345434413447
:10004000003448346F34723461343A340034483404
:1000500075346D346F343A340034543465346D344F
:100060003A3400344C3475347A343A3400344F34F2
:1000700046344634003458343A340034433443343C
:1000800000344F344E340034503450340034633430
:0C0090006D3400342B3400342D34003467
:10032A000A128A11B1210A128A11831603131114AF
:10033A0008000A128A11B1210A128A1183160313BC
:10034A00111508000A128A11B1210A128A117008BD
:10035A008312031393000800831603131419B62992
:10036A00B729B12911081F39031DBC29BD29B12993
:10037A000800831203130813183086008817C73041
:10038A00F000C729F00BC629CA29CB298312031307
:10039A00881308008316031788018901831603133B
:1003AA0085018601870108138813831203138501C7
:1003BA00860187018801080000300A128A11F42197
:1003CA000A128A1101300A128A11F4210A128A11B8
:1003DA000C300A128A11F4210A128A110800F2005A
:1003EA008312031308137208860088170630F10077
:1003FA003030F000F00BFF29F10BFF2900008312C7
:10040A00031388130800F2008312031308177208F3
:10041A00860088170330F1009730F000F00B132A9A
:10042A00F10B132A182A8312031388130800F50004
:10043A007303031D212A222A2E2A75087F3EF400FF
:10044A007408F60076080A128A11F4210A128A112F
:10045A003F2A02307306031D332A342A3F2A7508BD
:10046A00BF3EF4007408F60076080A128A11F421D5
:10047A000A128A1108000A128A11B1210A128A1173
:10048A008316031391150A128A11B1210A128A11CD
:10049A00831203131308F200F3017208F4007308BD
:1004AA00F5000A128A11B1210A128A117003710425
:1004BA00031D602A612A652A831603139112682A8A
:1004CA0083160313911611167508F1007408F000CB
:1004DA000800F400F201F301912A831203130817AA
:1004EA007208740784000A128A1103200A128A11F8
:1004FA00860088170330F1009730F000F00B832A4A
:10050A00F10B832A882A8312031388130130F20716
:10051A000318F30A0030F3077208740784000A12FA
:10052A008A1103200A128A11003A031D9D2A9E2A63
:10053A00722A0800283083120313940083160313C7
:10054A009101831203132F08B3003008B400310855
:10055A00B5003208B60002300310B30DB40DB50D64
:10056A00B60DFF3E031DB12A3608F3003508F20026
:10057A003408F1003308F0000030F7003D30F6008F
:10058A000930F5000030F4000A128A113A240A12DE
:10059A008A117008FF3E831603139300940187158E
:1005AA000716080083120313081300300A128A116F
:1005BA00F4210A128A111430F4007930F300F30B93
:1005CA00E42AF40BE42AE92A30300A128A11F421C7
:1005DA000A128A110630F4003030F300F30BF32AC2
:1005EA00F40BF32A000030300A128A11F4210A129D
:1005FA008A113530F300F30B002B30300A128A11BE
:10060A00F4210A128A113530F300F30B0A2B383021
:10061A000A128A11F4210A128A1110300A128A1156
:10062A00F4210A128A1101300A128A11F4210A12DB
:10063A008A1106300A128A11F4210A128A110F301D
:10064A000A128A11F4210A128A110800831203136A
:10065A002D08031D312B322B562B0230F700770859
:10066A00F30026300A128A111C220A128A1110304B
:10067A000A128A116E220A128A1183120313851032
:10068A000230F7007708F30027300A128A111C2279
:10069A000A128A1144300A128A116E220A128A1127
:1006AA007F2B5A302D06031D5B2B5C2B7F2B0230D0
:1006BA00F7007708F30027300A128A111C220A125F
:1006CA008A1110300A128A116E220A128A118312B2
:1006DA00031385140230F7007708F30026300A1254
:1006EA008A111C220A128A1142300A128A116E22B7
:1006FA000A128A110800F601F31F842B852B8C2B12
:10070A00F209F309F20A0319F30AF601F60AF11FCC
:10071A008F2B902B952BF009F109F00A0319F10A96
:10072A007008710403199A2B9B2BCA2BF501F50A41
:10073A00A92B01300310F00DF10DFF3E031D9F2B75
:10074A000130F4007408F507F11FAC2BAD2B9E2B7A
:10075A0071087302031DB32B70087202031CB62BB7
:10076A00B72BBD2B7008F2027108031CF303F302C6
:10077A0001300310F10CF00CFF3E031DBE2B0130BB
:10078A00F502031DC92BCA2BAD2B76080319CE2BF4
:10079A00CF2BD42BF209F309F20A0319F30A7308CF
:1007AA00F1007208F0000800F200162C8F30831650
:1007BA0003138F05382C831603130F088F3910384B
:1007CA008F00382C831603130F088F3920388F00B7
:1007DA00382C831603130F088F3910388F00382CE2
:1007EA00831603130F088F3940388F00382C83166D
:1007FA0003130F088F3950388F00382C83160313D0
:10080A000F088F3960388F00382C70308316031325
:10081A008F04382C831603130F088F3960388F0022
:10082A00382C7208F000F1017108003A03191E2CE5
:10083A000F2C7008003A0319DB2B013A0319E02B3D
:10084A00033A0319E72B013A0319EE2B073A031966
:10085A00F52B013A0319FC2B033A0319032C013A2D
:10086A0003190A2C0F2C0F1408000030FC0000306A
:10087A00FB000030FA000030F900730872047104BA
:10088A0070040319492C4A2C972CFD01FD0A5A2C95
:10089A000130F8000310F00DF10DF20DF30DF80B15
:1008AA004F2C0130F8007808FD07F31F5D2C5E2CF1
:1008BA004D2C0130F8000310F90DFA0DFB0DFC0D5B
:1008CA00F80B602C73087702031D752C72087602E8
:1008DA00031D752C71087502031D752C70087402AE
:1008EA00031C782C792C882C7008F4027108031CDC
:1008FA00710FF5027208031C720FF6027308031CCB
:10090A00730FF702791401300310F30CF20CF10C97
:10091A00F00CFF3E031D892C0130FD02031D962CAD
:10092A00972C5E2C7C08F3007B08F2007A08F10011
:10093A007908F0000800F601F11FA42CA52CAC2CB4
:10094A00F009F109F00A0319F10AF601F60AF31F90
:10095A00AF2CB02CB92CF209F309F20A0319F30AE5
:10096A000130F4007408F606F701F8017008710402
:10097A000319C02CC12CF82CF501F50ACF2C013033
:10098A000310F00DF10DFF3E031DC52C0130F400DC
:10099A007408F507F11FD22CD32CC42C0130031094
:1009AA00F70DF80DFF3E031DD42C71087302031DC9
:1009BA00E02C70087202031CE32CE42CEB2C700868
:1009CA00F2027108031CF303F302771401300310D7
:1009DA00F10CF00CFF3E031DEC2C0130F502031D57
:1009EA00F72CF82CD32C76080319FC2CFD2C022D9D
:1009FA00F709F809F70A0319F80A7808F1007708DD
:100A0A00F00008000A30F0000030F10083120313EE
:100A1A002C08F900FA017908F2007A08F3000A12A0
:100A2A008A11A0240A128A11710883120313A300DF
:100A3A007008A2000A30F0000030F1002C08F9001A
:100A4A00FA017908F2007A08F3000A128A1180235F
:100A5A000A128A11710883120313A1007008A000F8
:100A6A00F301F30A0A300A128A111C220A128A11A5
:100A7A00831203132208013E84000A128A110320FA
:100A8A000A128A110A128A1108220A128A11F30119
:100A9A00F30A0B300A128A111C220A128A118312D3
:100AAA0003132008013E84000A128A1103200A1245
:100ABA008A110A128A1108220A128A110F30831225
:100ACA0003132C0203186A2D6B2D7F2D0230F900B7
:100ADA007908F30008300A128A111C220A128A11B4
:100AEA0012300A128A116E220A128A118312031311
:100AFA008515922D0230F9007908F30008300A12A0
:100B0A008A111C220A128A110B300A128A116E22C9
:100B1A000A128A1183120313851108006430F00047
:100B2A000030F100831203132E08F900FA01790844
:100B3A00F2007A08F3000A128A11A0240A128A1112
:100B4A00710883120313AB007008AA006430F00026
:100B5A000030F1002E08F900FA017908F2007A084B
:100B6A00F3000A128A1180230A128A117108831269
:100B7A000313A9007008A8000A30F0000030F10041
:100B8A002908F3002808F2000A128A11A0240A127E
:100B9A008A11710883120313A7007008A6000A308D
:100BAA00F0000030F1002908F3002808F2000A12C8
:100BBA008A1180230A128A11710883120313A5006D
:100BCA007008A4000230F9007908F30001300A1213
:100BDA008A111C220A128A11831203132A08013E5F
:100BEA0084000A128A1103200A128A110A128A112F
:100BFA0008220A128A110230F9007908F300023039
:100C0A000A128A111C220A128A1183120313260855
:100C1A00013E84000A128A1103200A128A110A125A
:100C2A008A1108220A128A110230F9007908F3009F
:100C3A0003300A128A111C220A128A118312031320
:100C4A002408013E84000A128A1103200A128A111A
:100C5A000A128A1108220A128A11323083120313E5
:100C6A002E020318392E3A2E5C2E0230F90079082A
:100C7A00F30004300A128A111C220A128A110E3059
:100C8A000A128A116E220A128A11F301F30A053036
:100C9A000A128A111C220A128A1139300A128A117E
:100CAA006E220A128A118312031305157D2EF3018F
:100CBA00F30A05300A128A111C220A128A110F300D
:100CCA000A128A116E220A128A110230F900790870
:100CDA00F30004300A128A111C220A128A112F30D8
:100CEA000A128A116E220A128A118312031305113B
:100CFA00080006300A128A11D9230A128A110A1226
:100D0A008A11CF210A128A110A128A11D7220A12CB
:100D1A008A110A128A11E1210A128A1100308312F9
:100D2A000313B2000130B1008630B000A030AF002A
:100D3A000A128A119F220A128A11F301F30A013058
:100D4A000A128A111C220A128A112A300A128A11DC
:100D5A006E220A128A11F301F30A08300A128A1162
:100D6A001C220A128A1133300A128A116E220A12BE
:100D7A008A11F301F30A0C300A128A111C220A1290
:100D8A008A113F300A128A116E220A128A11F3015D
:100D9A00F30A0F300A128A111C220A128A111F3012
:100DAA000A128A116E220A128A11F301F30A183002
:100DBA000A128A111C220A128A1125300A128A1171
:100DCA006E220A128A11023083120313B7003708FF
:100DDA00F3001A300A128A111C220A128A11DF3011
:100DEA000A128A1108220A128A1102308312031384
:100DFA00B7003708F3001B300A128A111C220A12A4
:100E0A008A1137300A128A116E220A128A11F301E4
:100E1A00F30A1D300A128A111C220A128A11193089
:100E2A000A128A116E220A128A11023083120313DD
:100E3A00B7003708F3001F300A128A111C220A125F
:100E4A008A1134300A128A116E220A128A11F301A7
:100E5A00F30A23300A128A111C220A128A113C3020
:100E6A000A128A116E220A128A11F301F30A263033
:100E7A000A128A111C220A128A1136300A128A119F
:100E8A006E220A128A110A128A1195210A128A11ED
:100E9A001130F0000030F1000A128A11A7210A125B
:100EAA008A110030F000F1000A128A1140220A1257
:100EBA008A11700883120313B7003708AE000A12AA
:100ECA008A119E210A128A11823083120313B800F2
:100EDA00DD30B700B70B6F2FB80B6F2F0A128A11CC
:100EEA0095210A128A112130F0000030F1000A120D
:100EFA008A11A7210A128A110030F000F1000A12A1
:100F0A008A1140220A128A11700883120313B70049
:100F1A003708AD000A128A119E210A128A118230FC
:100F2A0083120313B800DD30B700B70B9A2FB80B42
:100F3A009A2F0A128A1195210A128A113130F00069
:100F4A000030F1000A128A11A7210A128A11003010
:100F5A00F000F1000A128A1140220A128A1170085E
:100F6A0083120313B7003708AC000A128A119E21B4
:100F7A000A128A11823083120313B800DD30B700D7
:100F8A00B70BC52FB80BC52F0A128A1193250A125F
:100F9A008A110A128A112B230A128A110A128A1139
:100FAA0007250A128A110A128A11BE210A128A1107
:100FBA00823083120313B800DD30B700B70BE32F7A
:100FCA00B80BE32F482F0A128A1100288312031341
:100FDA00A001A101A201A301A401A501A601A701E3
:100FEA00A801A901AA01AB01AC01AD01AE018301BF
:060FFA000A128A117E2E8E
:04400E00D4E0FFFFFC
:00000001FF
