:020000040000FA
:060000000A128A110C280F
:10000800FE00030EF0000A08F1000A168A118E2F6E
:100018000A128A110F288313EE30FD001630FE00F5
:10002800A030FF00DA3084000A168A1169260A1205
:100038008A11A0308400DA300A168A11DD250A12E6
:100048008A11EC01ED01EE01F901FA01FB018301CE
:100058000A128A11902B831203132D088039B200DB
:100068003208B7002D08B2003207B3003308BD00CC
:10007800AC1F3F28402841283D143D080319452856
:10008800462855283D0A031D4A284B285328003086
:10009800AD000030AC000030AB000030AA00AC1757
:1000A8005D280030AD000030AC000030AB000030FF
:1000B800AA0031088039B2003208B7063108B20008
:1000C8003207B3003308B800B01F6B286C286D28BE
:1000D800381438080319712872288128380A031D32
:1000E800762877287F280030B1000030B000003033
:1000F800AF000030AE00B01789280030B1000030E2
:10010800B0000030AF000030AE00380803198D2869
:100118008E2893283D08031D922893289C28003098
:10012800AD000030AC000030AB000030AA008F2BCF
:100138002A08B2003208F20030080A168A11062787
:100148000A128A11730883120313C3007208C200CB
:100158004208B200B301B401B5013508BC00340847
:10016800BB003308BA003208B9004308B200B30133
:10017800B401B5013508C1003408C0003308BF0018
:100188003208BE002B08B2003208F2002F080A1607
:100198008A1106270A128A11730883120313C300EF
:1001A8007208C2004208B200B301B401B5013208B6
:1001B800B907330803110318013E0319E428BA07E5
:1001C800340803110318013E0319EB28BB0735084F
:1001D80003110318013E0319F228BC074308B200B3
:1001E800B301B401B5013208BE073308031103187F
:1001F800013E03190029BF07340803110318013E03
:1002080003190729C007350803110318013E03190C
:100218000E29C1072C08B2003208F2002E080A166F
:100228008A1106270A128A11730883120313C3005E
:100238007208C2004208B200B301B401B501320825
:10024800B907330803110318013E03192C29BA070B
:10025800340803110318013E03193329BB07350875
:1002680003110318013E03193A29BC074308B200D9
:10027800B301B401B5013208BE07330803110318EE
:10028800013E03194829BF07340803110318013E2A
:1002980003194F29C007350803110318013E031934
:1002A8005629C1070830B2000310B90DBA0DBB0DAD
:1002B800BC0DB20B58292B08B2003208F2002E08E8
:1002C8000A168A1106270A128A1173088312031361
:1002D800C3007208C2004208B2004308B300B40168
:1002E800B5013208B907330803110318013E031991
:1002F8007E29BA07340803110318013E031985291A
:10030800BB07350803110318013E03198C29BC07E4
:100318002A08B2003208F2002F080A168A110627A6
:100328000A128A11730883120313C3007208C200E9
:100338004208B2004308B300B401B5013208B90756
:10034800330803110318013E0319AB29BA0734080F
:1003580003110318013E0319B229BB07350803111D
:100368000318013E0319B929BC070830B20003106D
:10037800B90DBA0DBB0DBC0DB20BBB292A08B200D2
:100388003208F2002E080A168A1106270A128A1164
:10039800730883120313C3007208C2004208B20034
:1003A8004308B300B401B5013208B9073308031193
:1003B8000318013E0319E129BA0734080311031889
:1003C800013E0319E829BB07350803110318013E4C
:1003D8000319EF29BC072B08B2003208F2003008D5
:1003E8000A168A1106270A128A1173088312031340
:1003F800C3007208C2004208B2004308B300B40147
:10040800B5013208BE07330803110318013E03196A
:100418000E2ABF07340803110318013E0319152AD1
:10042800C007350803110318013E03191C2AC10728
:100438002C08B2003208F2002F080A168A11062783
:100448000A128A11730883120313C3007208C200C8
:100458004208B2004308B300B401B5013208BE0730
:10046800330803110318013E03193B2ABF07340858
:1004780003110318013E0319422AC0073508031166
:100488000318013E0319492AC1072C08B200320893
:10049800F20030080A168A1106270A128A11730810
:1004A80083120313C3007208C2004208B200430853
:1004B800B300B401B50108300310B20DB30DB40D8B
:1004C800B50DFF3E031D602A3208BE07330803112D
:1004D8000318013E0319712ABF07340803110318D2
:1004E800013E0319782AC007350803110318013E95
:1004F80003197F2AC1073908B2003A08B3003B083C
:10050800B4003C08B50018300310B50CB40CB30C9B
:10051800B20CFF3E031D882A3208BE0733080311B8
:100528000318013E0319992ABF0734080311031859
:10053800013E0319A02AC007350803110318013E1C
:100548000319A72AC1070830B2000310B90DBA0D64
:10055800BB0DBC0DB20BA92A3D083807B200B30188
:10056800B30D3208823EC20033080318013EFF3E35
:10057800C300DB2A0130B2000310BE0DBF0DC00D51
:10058800C10DB20BC02ABC1FCA2ACB2ACC2A3E14E2
:100598000130B2000310B90DBA0DBB0DBC0DB20B82
:1005A800CE2AFF30C2070318C30AFF30C307C01F93
:1005B800DE2ADF2ABE2AB801BC1FE32AE42A002B60
:1005C800FF303905B200FF303A05B300FF303B0574
:1005D800B4007F303C05B5003508340433043204D8
:1005E8000319F72AF82AFB2AB801B80A002B3E1C7F
:1005F800FE2AFF2A002BF82A38080319042B052B9A
:10060800362B0130BE07003003180130BF07003019
:1006180003180130C007003003180130C107411C1E
:10062800162B172B362B3E08B2003F08B3004008A4
:10063800B4004108B5000130B600350DB50CB40C56
:10064800B30CB20CB60B212B3508C1003408C0001E
:100658003308BF003208BE000130C2070318C30ABE
:100668000030C3074308803AFF0080307F02031D33
:100678003F2BFF304202031C422B432B4E2B7F3073
:1006880083120313C1008030C0000030BF00003067
:10069800BE00832B831203134308803AFF00803087
:1006A8007F02031D592B0130420203185C2B5D2B7E
:1006B800692B003083120313C1000030C0000030E2
:1006C800BF000030BE00B701832B8312031342081A
:1006D800B2003208BD00FF30BE05FF30BF057F30D5
:1006E800C0050030C1053D1C7A2B7B2B7C2BC01725
:1006F8003D08B2000310320CB3003308C1003708BC
:10070800B2003208C1044108AD004008AC003F08FF
:10071800AB003E08AA00080006300A128A154C21D0
:100728000A128A110A168A1152260A128A110A1204
:100738008A1544200A128A110A168A113F260A12BB
:100748008A11003083120313AB000130AA008630EF
:10075800A900A030A8000A168A11C6270A128A1111
:100768000A128A15F1200A128A110A168A11B42669
:100778000A128A11F501F50A01300A168A11E226D1
:100788000A128A112A300A168A115D270A128A115A
:10079800F501F50A08300A168A11E2260A128A11AA
:1007A80033300A168A115D270A128A11F501F50AF3
:1007B8000C300A168A11E2260A128A113F300A16EC
:1007C8008A115D270A128A11F501F50A0F300A16F7
:1007D8008A11E2260A128A111F300A168A115D2729
:1007E8000A128A11F501F50A18300A168A11E2264A
:1007F8000A128A1125300A168A115D270A128A11EF
:1008080002308316031790001008F5001A300A16F4
:100818008A11E2260A128A11DF300A168A118C26FA
:100828000A128A1102308316031790001008F50087
:100838001B300A168A11E2260A128A1137300A1664
:100848008A115D270A128A11F501F50A1D300A1668
:100858008A11E2260A128A1119300A168A115D27AE
:100868000A128A1102308316031790001008F50047
:100878001F300A168A11E2260A128A1134300A1623
:100888008A115D270A128A11F501F50A23300A1622
:100898008A11E2260A128A113C300A168A115D274B
:1008A8000A128A11F501F50A26300A168A11E2267B
:1008B8000A128A1136300A168A115D270A128A111D
:1008C8000A168A11C9260A128A1183160313BA0155
:1008D800BB010A168A11EE250A128A111130F2009C
:1008E8000030F3000A168A1100260A128A11003015
:1008F800F200F3000A168A112F270A128A117208C9
:100908008316031790001008FB000A168A11F725B2
:100918000A128A118230831603179100DD30900085
:10092800900B942C910B942C0A168A11EE250A121E
:100938008A112130F2000030F3000A168A110026CD
:100948000A128A110030F200F3000A168A112F27C2
:100958000A128A117208831603179000100883126E
:100968000313ED000A168A11F7250A128A1182303C
:10097800831603179100DD309000900BC12C910B6A
:10098800C12C0A168A11EE250A128A113130F2009A
:100998000030F3000A168A1100260A128A11003064
:1009A800F200F3000A168A112F270A128A11720818
:1009B8008316031790001008FA000A168A11F72503
:1009C8000A128A118230831603179100DD309000D5
:1009D800900BEC2C910BEC2C0A168A11EE250A12BE
:1009E8008A114130F2000030F3000A168A110026FD
:1009F8000A128A110030F200F3000A168A112F2712
:100A08000A128A1172088316031790001008F90059
:100A18000A168A11F7250A128A11823083160317DB
:100A28009100DD309000900B172D910B172D0A16B1
:100A38008A11EE250A128A115130F2000030F300B3
:100A48000A168A1100260A128A110030F200F300F1
:100A58000A168A112F270A128A1172088316031799
:100A68009000100883120313EE000A168A11F72566
:100A78000A128A118230831603179100DD30900024
:100A8800900B442D910B442D0A128A1195260A12B7
:100A98008A110A128A15AD210A128A110A128A15B8
:100AA800F5220A128A110A128A154E240A128A118C
:100AB8000A128A1528250A128A1108308316031388
:100AC80032063304031D692D6A2D7E2D831203130C
:100AD80008100811023083160317920004309100A1
:100AE800B9309000900B762D910B762D920B762DC8
:100AF8007D2D8D2D0A3032063304031D842D852D5E
:100B08008A2D83120313081408116E2D8312031300
:100B1800081501300A128A1502200A128A11831652
:100B2800031790009101100883160313B20083166F
:100B38000317110883160313B30002300A128A152B
:100B480002200A128A1183160317900091011008D7
:100B580083160313B00083160317110883160313B3
:100B6800B1003F303005AE0000303105AF002E082F
:100B78000A168A1115260A128A118316031790007D
:100B8800100883160313E3002E080A168A11D825C5
:100B98000A128A118316031790001008831603138C
:100BA800E40032080A168A1115260A128A118316D9
:100BB80003179000100883160313E60032080A167C
:100BC8008A11D8250A128A11831603179000100873
:100BD80083160313E70002308316031790001008EA
:100BE800F5001D300A168A11E2260A128A118316A8
:100BF800031363080A168A118C260A128A11023016
:100C08008316031790001008F5001E300A168A1183
:100C1800E2260A128A118316031364080A168A1137
:100C28008C260A128A1102308316031790001008C6
:100C3800F50020300A168A11E2260A128A11831654
:100C4800031366080A168A118C260A128A110230C2
:100C58008316031790001008F50021300A168A1130
:100C6800E2260A128A118316031367080A168A11E4
:100C78008C260A128A114130831603179100ED3031
:100C88009000900B452E910B452E4A2E0A168A117C
:100C98002E260A128A11831603133B08F3003A081A
:100CA800F2000A168A110A260A128A110D308316D2
:100CB80003179100FB309000900B602E910B602E73
:100CC800831603133A088316031790001007A03EF3
:100CD800840083130008F200840A0008F3000A164F
:100CE8008A110A260A128A110D30831603179100F9
:100CF800FB309000900B7E2E910B7E2E01308316D8
:100D08000313BA070318BB0A0030BB0705303A06BD
:100D18003B04031D902E912E6D2C692C0A128A110A
:100D28000C286430F2000030F3007B0883120313B0
:100D3800A400A5012408F4002508F5000A128A1168
:100D480097270A128A11730883160313D7007208AB
:100D5800D6006430F2000030F3007B0883120313DE
:100D6800A400A5012408F4002508F5000A128A1534
:100D780098200A128A11730883160313D500720883
:100D8800D4000A30F2000030F3005508F50054088A
:100D9800F4000A128A1197270A128A117308831617
:100DA8000313D3007208D2000A30F2000030F300B7
:100DB8005508F5005408F4000A128A1598200A12FA
:100DC8008A11730883160313D1007208D000023009
:100DD80083120313A4002408F50001300A168A11AF
:100DE800E2260A128A11831603135608013E84006C
:100DF8000A168A1100200A128A110A168A118C26EC
:100E08000A128A11023083120313A4002408F50081
:100E180002300A168A11E2260A128A11831603136F
:100E28005208013E84000A168A1100200A128A110B
:100E38000A168A118C260A128A11023083120313A9
:100E4800A4002408F50003300A168A11E2260A12C3
:100E58008A11831603135008013E84000A168A116A
:100E680000200A128A110A168A118C260A128A117F
:100E780032307B020318412F422F662F0230831233
:100E88000313A4002408F50004300A168A11E22688
:100E98000A128A110E300A168A115D270A128A115F
:100EA800F501F50A05300A168A11E2260A128A1196
:100EB80039300A168A115D270A128A118312031320
:100EC8000515892FF501F50A05300A168A11E2265B
:100ED8000A128A110F300A168A115D270A128A111E
:100EE800023083120313A4002408F50004300A1604
:100EF8008A11E2260A128A112F300A168A115D27F2
:100F08000A128A118312031305117B08A400A50194
:100F1800240883160313A2008312031325088316DB
:100F28000313A300080083120313A101F31F9D2FCD
:100F38009E2FA52FF209F309F20A0319F30AA1015A
:100F4800A10AF51FA82FA92FB22FF409F509F40A51
:100F58000319F50A0130F6007608A106A201A301DB
:100F6800720873040319B92FBA2FF12FA001A00A30
:100F7800C82F01300310F20DF30DFF3E031DBE2FE5
:100F88000130F6007608A007F31FCB2FCC2FBD2F1A
:100F980001300310A20DA30DFF3E031DCD2F7308D2
:100FA8007502031DD92F72087402031CDC2FDD2F74
:100FB800E42F7208F4027308031CF503F5022214E7
:100FC80001300310F30CF20CFF3E031DE52F013036
:100FD800A002031DF02FF12FCC2F21080319F52FA4
:100FE800F62FFB2FA209A309A20A0319A30A2308B3
:080FF800F3002208F2000800DA
:10100400F8000A168A11EE250A128A15D030F20069
:101014000030F3000A168A1100260A128A1578088D
:1010240083120313A000A1012008F2002108F30099
:101034000A168A1100260A128A150A168A11E5254B
:101044000A128A15D130F2000030F3000A168A1110
:1010540000260A128A150030F200F3000A168A11DB
:101064002F270A128A15730883160313B700720810
:10107400B6000A168A11F7250A128A158316031375
:101084003608080083120313081300300A168A1165
:1010940078260A128A151430F6007930F500F50B1B
:1010A4005128F60B5128562830300A168A11782612
:1010B4000A128A150630F6003030F500F50B602868
:1010C400F60B6028000030300A168A1178260A12BE
:1010D4008A153530F500F50B6D2830300A168A1163
:1010E40078260A128A153530F500F50B7728383042
:1010F4000A168A1178260A128A1510300A168A11DD
:1011040078260A128A1501300A168A1178260A12DC
:101114008A1506300A168A1178260A128A150F30A3
:101124000A168A1178260A128A150800F801F51F92
:101134009C289D28A428F409F509F40A0319F50A42
:10114400F801F80AF31FA728A828AD28F209F30923
:10115400F20A0319F30A720873040319B228B328B4
:10116400E228F701F70AC12801300310F20DF30D4C
:10117400FF3E031DB7280130F6007608F707F31F7A
:10118400C428C528B62873087502031DCB28720825
:101194007402031CCE28CF28D5287208F4027308E1
:1011A400031CF503F50201300310F30CF20CFF3EAF
:1011B400031DD6280130F702031DE128E228C528C3
:1011C40078080319E628E728EC28F409F509F40A55
:1011D4000319F50A7508F3007408F20008000A16EA
:1011E4008A11EE250A128A15D030F2000030F3007D
:1011F4000A168A1100260A128A150030F200F3003A
:101204000A168A1100260A128A151130F2000030DB
:10121400F3000A168A1100260A128A151130F20008
:101224000030F3000A168A1100260A128A150130CA
:10123400F2000030F3000A168A1100260A128A15F9
:101244000130F2000030F3000A168A1100260A1257
:101254008A150130F2000030F3000A168A110026C4
:101264000A128A150330F2000030F3000A168A11BC
:1012740000260A128A152030F2000030F3000A1604
:101284008A1100260A128A150A168A11F7250A12EB
:101294008A150800F40089298F30831603138F05FB
:1012A400AB29831603130F088F3910388F00AB292D
:1012B400831603130F088F3920388F00AB29831648
:1012C40003130F088F3910388F00AB2983160313CB
:1012D4000F088F3940388F00AB29831603130F088A
:1012E4008F3950388F00AB29831603130F088F39B9
:1012F40060388F00AB297030831603138F04AB2939
:10130400831603130F088F3960388F00AB297408D4
:10131400F200F3017308003A031991298229720833
:10132400003A03194E29013A03195329033A0319C0
:101334005A29013A03196129073A03196829013A1C
:1013440003196F29033A03197629013A03197D29F0
:1013540082290F140800831203136D08031DB32997
:10136400B429D8290230A0002008F50026300A1636
:101374008A11E2260A128A1510300A168A115D278C
:101384000A128A158312031385100230A000200864
:10139400F50027300A168A11E2260A128A1544300B
:1013A4000A168A115D270A128A15012A5A306D0617
:1013B400031DDD29DE29012A0230A0002008F500E2
:1013C40027300A168A11E2260A128A1510300A16E4
:1013D4008A115D270A128A158312031385140230B9
:1013E400A0002008F50026300A168A11E2260A1207
:1013F4008A1542300A168A115D270A128A15831249
:1014040003136D08A000A101200883160313A00094
:1014140083120313210883160313A100080000306C
:10142400F6000030F5000030F4000030F3008312C1
:10143400031323082204210420040319222A232A43
:10144400702AF701F70A332A0130F2000310A00DC5
:10145400A10DA20DA30DF20B282A0130F20072088F
:10146400F707A31F362A372A262A0130F200031071
:10147400F30DF40DF50DF60DF20B392A23082702AE
:10148400031D4E2A22082602031D4E2A2108250286
:10149400031D4E2A20082402031C512A522A612AC1
:1014A4002008A4022108031C210FA5022208031C02
:1014B400220FA6022308031C230FA7027314013072
:1014C4000310A30CA20CA10CA00CFF3E031D622A66
:1014D4000130F702031D6F2A702A372A7608A30009
:1014E4007508A2007408A1007308A0000800031086
:1014F40083120313600D610DE2006208F7007708A0
:10150400031D852A862A8F2A0030E1000030E0007E
:101514000030DF000030DE00F42A5E08E2005F08DD
:10152400E3006008E4006108E5001F300310E50CE7
:10153400E40CE30CE20CFF3E031D982A6208E6006B
:101544006608F600E017FF30DE05FF30DF05FF30E8
:10155400E0050030E1059630F702F71FB22AB32AFE
:10156400CD2A7708803A973E0318B92ABA2ABB2AAB
:10157400862A01300310E10CE00CDF0CDE0CFF3E88
:10158400031DBC2A0130E2006208F707031DCB2AC1
:10159400CC2ABB2AE42A20307702031CD22AD32A7D
:1015A400DF2A862A0130E2000310DE0DDF0DE00D94
:1015B400E10DE20BD62A0130F7027708031DE32A76
:1015C400E42AD42A76080319E82AE92AF42ADE0947
:1015D400DF09E009E109DE0A0319DF0A0319E00A59
:1015E4000319E10A08000A30F2000030F3007A0817
:1015F40083120313A400A5012408F4002508F500B0
:101604000A128A1197270A128A157308831603137C
:10161400CF007208CE000A30F2000030F3007A08DE
:1016240083120313A400A5012408F4002508F5007F
:101634000A128A1598200A128A157308831603134E
:10164400CD007208CC00F501F50A0A300A168A1199
:10165400E2260A128A15831603134E08013E8400FB
:101664000A168A1100200A128A150A168A118C2673
:101674000A128A15F501F50A0B300A168A11E226B8
:101684000A128A15831603134C08013E84000A16B5
:101694008A1100200A128A150A168A118C260A1247
:1016A4008A1508307A020318582B592B6F2B0230F5
:1016B40083120313A4002408F50008300A168A11C3
:1016C400E2260A128A1512300A168A115D270A12B6
:1016D4008A15831203138515842B02308312031396
:1016E400A4002408F50008300A168A11E2260A121A
:1016F4008A150B300A168A115D270A128A1583127D
:10170400031385117A08A400A50124088316031382
:10171400A40083120313250883160313A5000800ED
:1017240083120313A40024080319992B9A2BAE2BBC
:10173400F51F9D2B9E2BAE2B7209A6007309A700E3
:101744007409A8007509A900A60A0319A70A0319B0
:10175400A80A0319A90AB62B7508A9007408A800D9
:101764007308A7007208A600750874047304720451
:10177400031DBD2BBE2BC72B0030F5000030F40039
:101784000030F3000030F2004D2C9630A000200809
:10179400A500D92B0130A0002008A50701300310B3
:1017A400A90CA80CA70CA60CFF3E031DD12BFE30E0
:1017B4002905031DDE2BDF2BCC2BFB2B0130A000D6
:1017C4002008A5070130A607003003180130A70739
:1017D400003003180130A807003003180130A907AE
:1017E40001300310A90CA80CA70CA60CFF3E031D86
:1017F400F32BFF302905031D002C012CE02B0D2CAD
:101804000130A5020130A0000310A60DA70DA80DFC
:10181400A90DA00B062CA81B102C112C172C023080
:1018240025020318162C172C022C25181A2C1B2CF5
:10183400232CFF30A605FF30A7057F30A805FF3015
:10184400A9050310A50C2508A000A101A201A3016C
:1018540018300310A00DA10DA20DA30DFF3E031D12
:101864002B2C2008A6042108A7042208A804230876
:10187400A904240803193F2C402C452CF51F432CA4
:10188400442C452CA9172908F5002808F40027083A
:10189400F3002608F20008006430F2000030F30080
:1018A400790883120313A400A5012408F400250871
:1018B400F5000A128A1197270A128A1573088316EB
:1018C4000313CB007208CA006430F2000030F30046
:1018D400790883120313A400A5012408F400250841
:1018E400F5000A128A1598200A128A1573088316BD
:1018F4000313C9007208C8000A30F2000030F30074
:101904004908F5004808F4000A128A1197270A12B8
:101914008A15730883160313C7007208C6000A30B9
:10192400F2000030F3004908F5004808F4000A12F8
:101934008A1598200A128A15730883160313C500A2
:101944007208C400F501F50A14300A168A11E22659
:101954000A128A15831603134A08013E84000A16E4
:101964008A1100200A128A150A168A118C260A1274
:101974008A15F501F50A15300A168A11E2260A12AB
:101984008A15831603134608013E84000A168A1139
:1019940000200A128A150A168A118C260A128A1540
:1019A400F501F50A16300A168A11E2260A128A157A
:1019B400831603134408013E84000A168A1100208A
:1019C4000A128A150A168A118C260A128A153330CD
:1019D4007902031CEE2CEF2C052D02308312031325
:1019E400A4002408F50010300A168A11E2260A120F
:1019F4008A1512300A168A115D270A128A15831273
:101A0400031305161A2D023083120313A4002408AD
:101A1400F50010300A168A11E2260A128A150B30D4
:101A24000A168A115D270A128A15831203130512F6
:101A34007908A400A501240883160313A6008312C1
:101A44000313250883160313A70008008312031346
:101A54006E08E700E801E901EA016A08F50069088F
:101A6400F4006808F3006708F20001300A128A15CE
:101A740092230A128A15750883120313B10074089D
:101A8400B0007308AF007208AE004330AD00FA3006
:101A9400AC000030AB000030AA000A128A112F20DB
:101AA4000A128A15831203132D08CB002C08CA00CE
:101AB4002B08C9002A08C8004330C7007F30C6007D
:101AC4000030C5000030C4000A128A1523260A1209
:101AD4008A15831203134708E1004608E00045080D
:101AE400DF004408DE000A128A1579220A128A15D8
:101AF400831203135E08EB006B08EC006430F20001
:101B04000030F3006C08E700E8016708F400680897
:101B1400F5000A128A1197270A128A157308831688
:101B24000313C3007208C2006430F2000030F300F3
:101B3400831203136C08E700E8016708F4006808DF
:101B4400F5000A128A1598200A128A15730883165A
:101B54000313C1007208C0000A30F2000030F30021
:101B64004108F5004008F4000A128A1197270A1266
:101B74008A15730883160313BF007208BE000A3067
:101B8400F2000030F3004108F5004008F4000A12A6
:101B94008A1598200A128A15730883160313BD0048
:101BA4007208BC00023083120313E7006708F500D3
:101BB40018300A168A11E2260A128A1583160313AC
:101BC4003E08013E84000A168A1100200A128A1572
:101BD4000A168A118C260A128A15023083120313FC
:101BE400E7006708F50019300A168A11E2260A127E
:101BF4008A15831603133C08013E84000A168A11D1
:101C040000200A128A150A168A118C260A128A15CD
:101C14001F30831203136C02031C112E122E142E78
:101C24008516152E85126C08E700E80167088316EF
:101C34000313A80083120313680883160313A9006F
:101C44000800831203134B088039CC004C08D500DC
:101C54004B08CC004C07CD004D08DC00CA1F332EC6
:101C6400342E352E5C145C080319392E3A2E4A2E74
:101C74005C0A031D3E2E3F2E472E0030CB00003061
:101C8400CA000030C9000030C800CA17CB01522E68
:101C94000030CB000030CA000030C9000030C8005A
:101CA40047088039CC004C08D5064708CC004C07BF
:101CB400CD004D08DD00C61F602E612E622E5D141E
:101CC4005D080319662E672E772E5D0A031D6B2EA1
:101CD4006C2E742E0030C7000030C6000030C500E2
:101CE4000030C400C617C7017F2E0030C700003083
:101CF400C6000030C5000030C4004708460445044F
:101D04004404031D862E872EA02E0030CB00003005
:101D1400CA000030C9000030C8008030CA047F30D7
:101D2400CB045508CC004C08CB044B08C7004A0828
:101D3400C6004908C5004808C400FF2F5C08031DFD
:101D4400A42EA52EAE2E0030C7000030C6000030F1
:101D5400C5000030C400FF2F5C08CC00CD014D0845
:101D6400CF005D084C02CE00031CCF034E087F3E1B
:101D7400D6004F080318013E003ED7004B08D4009C
:101D84004A08D3004908D2004808D1000030CB00EB
:101D94000030CA000030C9000030C8000030DB0049
:101DA4000030DA000030D9000030D800DD01242FE3
:101DB4005D080319DE2EDF2EFF2E0130CC00031048
:101DC400D10DD20DD30DD40DCC0BE12E0130CC00AE
:101DD4000310C80DC90DCA0DCB0DCC0BEA2EDB1FA9
:101DE400F42EF52EF62E48140130CC000310D80D35
:101DF400D90DDA0DDB0DCC0BF82E47085402031D68
:101E04000D2F46085302031D0D2F45085202031DD2
:101E14000D2F44085102031C102F112F202F5B1784
:101E24004408D1024508031C450FD2024608031C8E
:101E3400460FD3024708031C470FD4020130CC00DD
:101E44004C08DD071A305D02031C292F2A2FDA2ED5
:101E540054085304520451040319312F322F512FC3
:101E64005814512F0130CC000310C80DC90DCA0DF0
:101E7400CB0DCC0B362FDB1F402F412F422F4814A4
:101E84000130CC000310D80DD90DDA0DDB0DCC0BCD
:101E9400442FFF30D6070318D70AFF30D707CA1FCD
:101EA400542F552F342FDD01DB1F592F5A2F762F36
:101EB400FF305805CC00FF305905CD00FF305A05DE
:101EC400CE007F305B05CF004F084E044D044C0418
:101ED40003196D2F6E2F712FDD01DD0A762F481C3B
:101EE400742F752F762F6E2F5D0803197A2F7B2F91
:101EF400AC2F0130C807003003180130C907003087
:101F040003180130CA07003003180130CB074B1CFB
:101F14008C2F8D2FAC2F4808CC004908CD004A08DF
:101F2400CE004B08CF000130D0004F0DCF0CCE0CAB
:101F3400CD0CCC0CD00B972F4F08CB004E08CA0009
:101F44004D08C9004C08C8000130D6070318D70A49
:101F54000030D7075708803AFF0080307F02031D06
:101F6400B52FFF305602031CB82FB92FC72FFF30EF
:101F740083120313D6000030D7000030CB000030AA
:101F8400CA000030C9000030C80083120313570888
:101F9400803AFF0080307F02031DD22F01305602A9
:101FA4000318D52FD62FE32F83120313D601D7019D
:101FB4000030CB000030CA000030C9000030C80037
:101FC400D501831203135608CC004C08DC005C1CBA
:101FD400EC2FED2FEF2FCA17F32F7F30CC004C08D6
:101FE400CA055C08CC0003104C0CCD004D08CB0096
:101FF4005508CC004C08CB04972E080010308A00FA
:102004000408840A820700343034313432343334DF
:102014003434353436343734383439342034203495
:102024002034203420342034003441344C344534BA
:10203400523454344134003448346F34723461348B
:102044003A340034483475346D346F343A340034DF
:10205400543465346D343A3400344C3475347A3441
:102064003A3400344F3446344634003458343A3425
:1020740000344334433400344F344E340034503449
:102084005034003463346D3400342B3400342D3434
:02209400003416
:102BB000F20072080F39303E080064008001840A78
:102BC0000406031900340406DE2D0A168A11212694
:102BD0000A168A1183160313911408000A168A1123
:102BE00021260A168A1183160313111408000A16E7
:102BF0008A1121260A168A1183160313111508005B
:102C00000A168A1121260A168A11720883120313E2
:102C10009300080083160313981C0F2E102E0A2E03
:102C200072088312031399000800F3007308F2007E
:102C300004300310F20CFF3E031D192E7208303EC3
:102C40000800831603131419262E272E212E11088F
:102C50001F39031D2C2E2D2E212E08008312031345
:102C60000813183086008817C730F200372EF20B91
:102C7000362E3A2E3B2E83120313881308000030A1
:102C80000A168A1178260A168A1101300A168A1144
:102C900078260A168A110C300A168A1178260A1626
:102CA0008A1108008316031788018901831603130C
:102CB0008501860187010717081388138312031300
:102CC000850186018701880108007E088A007F0847
:102CD00082000A168A1165260A168A118000840A63
:102CE00004087D0603190034FF0A0319FE0A692E41
:102CF000F400831203130813740886008817063043
:102D0000F3003030F200F20B832EF30B832E000021
:102D10008312031388130800F400831203130817A7
:102D20007408860088170330F3009730F200F20B26
:102D3000972EF30B972E9C2E8312031388130800F3
:102D4000303430342D34303430342D343034303469
:102D50000034303430343A34303430343A3430346F
:102D6000303400340A3400348312031390131013E8
:102D7000101690129011901010140B170C1083164F
:102D800003130C14F430831203138F0002308E00EF
:102D9000080083160313981618128312031398174A
:102DA000831603131813831203131816193083168E
:102DB000031399009A0183160317871183160313CF
:102DC00018150800F7007503031DE72EE82EF42EF2
:102DD00077087F3EF6007608F80078080A168A1110
:102DE00078260A168A11052F02307506031DF92E62
:102DF000FA2E052F7708BF3EF6007608F80078080F
:102E00000A168A1178260A168A11080083120313FB
:102E1000A400A001A1017208F400F5017408A20049
:102E20007508A300241C152F162F1C2F2208A0079D
:102E30000318A10A2308A10701300310A20DA30D56
:102E4000FF3E031D1D2F0310A40C2408031D292F72
:102E50002A2F122F2108F3002008F20008000A167A
:102E60008A1121260A168A118316031391150A1650
:102E70008A1121260A168A11831203131308F400FB
:102E8000F5017408F6007508F7000A168A11212664
:102E90000A168A1172037304031D4F2F502F542FEB
:102EA000831603139112572F8316031391161116CD
:102EB0007708F3007608F2000800F600F401F50147
:102EC000802F8312031308177408760784000A16EC
:102ED0008A1100200A168A11860088170330F30031
:102EE0009730F200F20B722FF30B722F772F8312B1
:102EF000031388130130F4070318F50A0030F507AF
:102F00007408760784000A168A1100200A168A11AE
:102F1000003A031D8C2F8D2F612F0800831203139D
:102F20000C1C932F942FBF2F013083160313AA0775
:102F30000318AB0A0030AB0702302A062B04031D2E
:102F4000A22FA32FA52FAA01AB012A032B04031D37
:102F5000AA2FAB2FAE2F83120313881483160313EB
:102F60002A082B04031DB52FB62FB92F8312031384
:102F70008810E93083128F0028308E000C10710801
:102F80008A00700E8300FE0E7E0E09002830831228
:102F9000031394008316031391018312031328086B
:102FA000AC002908AD002A08AE002B08AF000230A3
:102FB0000310AC0DAD0DAE0DAF0DFF3E031DD82FB0
:102FC0002F08A3002E08A2002D08A1002C08A000A5
:102FD0000030A7003D30A6000930A5000030A40055
:102FE0000A128A1511220A168A1183120313200865
:102FF000FF3E8316031393009401871507160800FC
:04400E00D4E0FFFFFC
:00000001FF
