:020000040000FA
:100000000A128A11F32F00308A000408840A82073A
:1000100000343034313432343334343435343634DB
:1000200037343834393420342034203420342034E8
:100030002034003441344C34453452345434413447
:10004000003448346F346C34613400344F344634F7
:10005000463400344C3475347A34003458343A34ED
:0800600000344F344E3400342B
:1005160064008001840A04060319003404068C2A48
:100526000A128A11AF220A128A11831603131114B2
:1005360008000A128A11AF220A128A1183160313BF
:10054600111508000A128A11AF220A128A117008C0
:100556008312031393000800831603131419B42A95
:10056600B52AAF2A11081F39031DBA2ABB2AAF2A9A
:100576000800831603178801890183160313850172
:1005860086018701081388138312031385018601E8
:1005960087018801080000300A128A11E1220A1236
:1005A6008A1101300A128A11E1220A128A110C30CC
:1005B6000A128A11E1220A128A110800F200831235
:1005C600031308137208860088170630F1003030CE
:1005D600F000F00BEC2AF10BEC2A00008312031357
:1005E60088130800F20083120313081772088600A6
:1005F60088170330F1009730F000F00B002BF10B59
:10060600002B052B8312031388130800F5007303D0
:10061600031D0E2B0F2B1B2B75087F3EF400740851
:10062600F60076080A128A11E1220A128A112C2B88
:1006360002307306031D202B212B2C2B7508BF3E81
:10064600F4007408F60076080A128A11E1220A12EA
:100656008A1108000A128A11AF220A128A11831619
:10066600031391150A128A11AF220A128A118312F4
:1006760003131308F200F3017208F4007308F5007F
:100686000A128A11AF220A128A1170037104031D1D
:100696004D2B4E2B522B831603139112552B83167B
:1006A6000313911611167508F1007408F00008007E
:1006B600F400F201F3017E2B83120313081772086C
:1006C600740784000A128A1103200A128A1186000E
:1006D60088170330F1009730F000F00B702BF10B08
:1006E600702B752B8312031388130130F20703183E
:1006F600F30A0030F3077208740784000A128A119D
:1007060003200A128A11003A031D8A2B8B2B5F2BBA
:1007160008002830831203139400831603139101F3
:10072600831203133308B7003408B8003508B9003C
:100736003608BA0002300310B70DB80DB90DBA0D60
:10074600FF3E031D9E2B3A08F3003908F2003808D5
:10075600F1003708F0000030F7003D30F6000930B0
:10076600F5000030F4000A128A11D2240A128A1106
:100776007008FF3E8316031393009401871507162E
:10078600080083120313081300300A128A11E122AB
:100796000A128A111430F4007930F300F30BD12BCE
:1007A600F40BD12BD62B30300A128A11E1220A1211
:1007B6008A110630F4003030F300F30BE02BF40B13
:1007C600E02B000030300A128A11E1220A128A1147
:1007D6003530F300F30BED2B30300A128A11E1228B
:1007E6000A128A113530F300F30BF72B38300A1250
:1007F6008A11E1220A128A1110300A128A11E122A4
:100806000A128A1101300A128A11E1220A128A1189
:1008160006300A128A11E1220A128A110F300A12D0
:100826008A11E1220A128A110800F601F31F1C2C14
:100836001D2C242CF209F309F20A0319F30AF60116
:10084600F60AF11F272C282C2D2CF009F109F00AA5
:100856000319F10A700871040319322C332C622C27
:10086600F501F50A412C01300310F00DF10DFF3EA4
:10087600031D372C0130F4007408F507F11F442CD2
:10088600452C362C71087302031D4B2C700872021E
:10089600031C4E2C4F2C552C7008F2027108031CB9
:1008A600F303F30201300310F10CF00CFF3E031DBD
:1008B600562C0130F502031D612C622C452C76085E
:1008C6000319662C672C6C2CF209F309F20A03193A
:1008D600F30A7308F1007208F0000800F200AE2C6B
:1008E6008F30831603138F05D02C831603130F083E
:1008F6008F3910388F00D02C831603130F088F39C9
:1009060020388F00D02C831603130F088F39103828
:100916008F00D02C831603130F088F3940388F00B1
:10092600D02C831603130F088F3950388F00D02C24
:10093600831603130F088F3960388F00D02C703060
:10094600831603138F04D02C831603130F088F39D5
:1009560060388F00D02C7208F000F1017108003A5F
:100966000319B62CA72C7008003A0319732C013A08
:100976000319782C033A03197F2C013A0319862CA4
:10098600073A03198D2C013A0319942C033A0319DB
:100996009B2C013A0319A22CA72C0F140800003037
:1009A600FC000030FB000030FA000030F90073084C
:1009B6007204710470040319E12CE22C2F2DFD0141
:1009C600FD0AF22C0130F8000310F00DF10DF20DC6
:1009D600F30DF80BE72C0130F8007808FD07F31F3C
:1009E600F52CF62CE52C0130F8000310F90DFA0D64
:1009F600FB0DFC0DF80BF82C73087702031D0D2D6B
:100A060072087602031D0D2D71087502031D0D2D4A
:100A160070087402031C102D112D202D7008F4028D
:100A26007108031C710FF5027208031C720FF6029F
:100A36007308031C730FF702791401300310F30CCB
:100A4600F20CF10CF00CFF3E031D212D0130FD02CE
:100A5600031D2E2D2F2DF62C7C08F3007B08F200AB
:100A66007A08F1007908F0000800F601F11F3C2D24
:100A76003D2D442DF009F109F00A0319F10AF6019A
:100A8600F60AF31F472D482D512DF209F309F20AF4
:100A96000319F30A0130F4007408F606F701F801A9
:100AA600700871040319582D592D902DF501F50A7A
:100AB600672D01300310F00DF10DFF3E031D5D2D76
:100AC6000130F4007408F507F11F6A2D6B2D5C2DBB
:100AD60001300310F70DF80DFF3E031D6C2D710854
:100AE6007302031D782D70087202031C7B2D7C2D6A
:100AF600832D7008F2027108031CF303F3027714C6
:100B060001300310F10CF00CFF3E031D842D013063
:100B1600F502031D8F2D902D6B2D76080319942D4C
:100B2600952D9A2DF709F809F70A0319F80A780896
:100B3600F1007708F00008000A30F0000030F100FC
:100B4600831203133008F900FA017908F2007A08D3
:100B5600F3000A128A1138250A128A1171088312C3
:100B66000313A7007008A6000A30F0000030F10059
:100B76003008F900FA017908F2007A08F3000A123F
:100B86008A1118240A128A11710883120313A50008
:100B96007008A400F301F30A04300A128A1109232B
:100BA6000A128A11831203132608013E84000A12D0
:100BB6008A1103200A128A110A128A11F5220A12D0
:100BC6008A11F301F30A05300A128A1109230A125F
:100BD6008A11831203132408013E84000A128A1123
:100BE60003200A128A110A128A11F5220A128A11A0
:100BF60014308312031330020318022E032E172E0D
:100C06000230F9007908F30001300A128A1109232B
:100C16000A128A1112300A128A115B230A128A11E9
:100C26008312031385152A2E0230F9007908F30082
:100C360001300A128A1109230A128A110B300A128C
:100C46008A115B230A128A11831203138511080085
:100C560006300A128A1171240A128A110A128A119E
:100C6600BC220A128A110A128A11C4230A128A1194
:100C76000A128A11CE220A128A1100308312031335
:100C8600B6000130B5008630B400A030B3000A12B9
:100C96008A118C230A128A11F301F30A0A300A1206
:100CA6008A1109230A128A1122300A128A115B2339
:100CB6000A128A11F301F30A01300A128A11092372
:100CC6000A128A1126300A128A115B230A128A1125
:100CD600F301F30A1E300A128A1109230A128A1135
:100CE60019300A128A115B230A128A110A128A1112
:100CF60093220A128A112130F0000030F1000A1204
:100D06008A11A5220A128A110030F000F1000A1297
:100D16008A112D230A128A11700883120313BB004D
:100D26003B08B1000A128A119C220A128A118230EB
:100D360083120313BC00DD30BB00BB0BA02EBC0B23
:100D4600A02E0A128A1193220A128A111130F0007B
:100D56000030F1000A128A11A5220A128A11003007
:100D6600F000F1000A128A112D230A128A11700866
:100D760083120313BB003B08B2000A128A119C229D
:100D86000A128A11823083120313BC00DD30BB00C5
:100D9600BB0BCB2EBC0BCB2E0A128A1193220A1246
:100DA6008A113130F0000030F1000A128A11A522B2
:100DB6000A128A110030F000F1000A128A112D235E
:100DC6000A128A11700883120313BB003B08B00095
:100DD6000A128A119C220A128A1182308312031384
:100DE600BC00DD30BB00BB0BF62EBC0BF62E0A1288
:100DF6008A1108270A128A110A128A119F250A12D5
:100E06008A11792E0A128A1100286430F000003007
:100E1600F100831203133208F900FA017908F2008F
:100E26007A08F3000A128A1138250A128A11710803
:100E360083120313AF007008AE006430F000003078
:100E4600F1003208F900FA017908F2007A08F30095
:100E56000A128A1118240A128A11710883120313BE
:100E6600AD007008AC000A30F0000030F1002D082B
:100E7600F3002C08F2000A128A1138250A128A1188
:100E8600710883120313AB007008AA000A30F00041
:100E96000030F1002D08F3002C08F2000A128A1126
:100EA60018240A128A11710883120313A900700804
:100EB600A8000230F9007908F3000A300A128A11F4
:100EC60009230A128A11831203132E08013E840095
:100ED6000A128A1103200A128A110A128A11F522AD
:100EE6000A128A110230F9007908F3000B300A124F
:100EF6008A1109230A128A11831203132A08013E52
:100F060084000A128A1103200A128A110A128A110F
:100F1600F5220A128A110230F9007908F3000C3022
:100F26000A128A1109230A128A1183120313280846
:100F3600013E84000A128A1103200A128A110A123B
:100F46008A11F5220A128A113230831203133202F1
:100F56000318AE2FAF2FD12F0230F9007908F30016
:100F66000E300A128A1109230A128A110E300A1249
:100F76008A115B230A128A11F301F30A0E300A1250
:100F86008A1109230A128A1129300A128A115B234F
:100F96000A128A11831203130515F22FF301F30ABD
:100FA6000E300A128A1109230A128A110E300A1209
:100FB6008A115B230A128A110230F9007908F300BC
:100FC6000E300A128A1109230A128A111E300A12D9
:100FD6008A115B230A128A11831203130511080072
:100FE60083132030840033300A128A118B220A12AE
:0A0FF6008A1183010A128A112B2EC2
:04400E00D4E0FFFFFC
:00000001FF
